{
  "_format": "hh-sol-artifact-1",
  "contractName": "SpinZKGameContract",
  "sourceName": "contracts/game_zk/GameContract.sol",
  "abi": [
    {
      "inputs": [
        {
          "internalType": "address",
          "name": "verifier_address",
          "type": "address"
        }
      ],
      "stateMutability": "nonpayable",
      "type": "constructor"
    },
    {
      "anonymous": false,
      "inputs": [
        {
          "indexed": true,
          "internalType": "uint256",
          "name": "gameId",
          "type": "uint256"
        },
        {
          "indexed": true,
          "internalType": "address",
          "name": "playerAddress",
          "type": "address"
        },
        {
          "indexed": false,
          "internalType": "uint64[4]",
          "name": "metaTransactionHashFromOnChain",
          "type": "uint64[4]"
        }
      ],
      "name": "GameSubmission",
      "type": "event"
    },
    {
      "inputs": [
        {
          "internalType": "uint64",
          "name": "input",
          "type": "uint64"
        }
      ],
      "name": "_reverseBytes",
      "outputs": [
        {
          "internalType": "uint64",
          "name": "",
          "type": "uint64"
        }
      ],
      "stateMutability": "pure",
      "type": "function"
    },
    {
      "inputs": [
        {
          "internalType": "uint64[4]",
          "name": "a",
          "type": "uint64[4]"
        },
        {
          "internalType": "uint64[4]",
          "name": "b",
          "type": "uint64[4]"
        }
      ],
      "name": "equalUintArrays",
      "outputs": [
        {
          "internalType": "bool",
          "name": "",
          "type": "bool"
        }
      ],
      "stateMutability": "pure",
      "type": "function"
    },
    {
      "inputs": [],
      "name": "getStorageContract",
      "outputs": [
        {
          "internalType": "address",
          "name": "",
          "type": "address"
        }
      ],
      "stateMutability": "view",
      "type": "function"
    },
    {
      "inputs": [],
      "name": "getVerifierContract",
      "outputs": [
        {
          "internalType": "address",
          "name": "",
          "type": "address"
        }
      ],
      "stateMutability": "view",
      "type": "function"
    },
    {
      "inputs": [
        {
          "internalType": "bytes32",
          "name": "data",
          "type": "bytes32"
        }
      ],
      "name": "hashBytes32ToUint64Array",
      "outputs": [
        {
          "internalType": "uint64[4]",
          "name": "",
          "type": "uint64[4]"
        }
      ],
      "stateMutability": "pure",
      "type": "function"
    },
    {
      "inputs": [],
      "name": "owner",
      "outputs": [
        {
          "internalType": "address",
          "name": "",
          "type": "address"
        }
      ],
      "stateMutability": "view",
      "type": "function"
    },
    {
      "inputs": [
        {
          "internalType": "uint256[3]",
          "name": "addressParts",
          "type": "uint256[3]"
        }
      ],
      "name": "parseAddress",
      "outputs": [
        {
          "internalType": "address",
          "name": "",
          "type": "address"
        }
      ],
      "stateMutability": "pure",
      "type": "function"
    },
    {
      "inputs": [
        {
          "internalType": "uint256[][]",
          "name": "instances",
          "type": "uint256[][]"
        }
      ],
      "name": "parseProofInstances",
      "outputs": [
        {
          "internalType": "uint64[4]",
          "name": "metaDataHash",
          "type": "uint64[4]"
        },
        {
          "internalType": "uint64[4]",
          "name": "endGameStateHash",
          "type": "uint64[4]"
        }
      ],
      "stateMutability": "pure",
      "type": "function"
    },
    {
      "inputs": [
        {
          "internalType": "address",
          "name": "new_owner",
          "type": "address"
        }
      ],
      "name": "setOwner",
      "outputs": [],
      "stateMutability": "nonpayable",
      "type": "function"
    },
    {
      "inputs": [
        {
          "internalType": "address",
          "name": "verifier_address",
          "type": "address"
        }
      ],
      "name": "setVerifier",
      "outputs": [],
      "stateMutability": "nonpayable",
      "type": "function"
    },
    {
      "inputs": [
        {
          "internalType": "uint256[3]",
          "name": "commitments",
          "type": "uint256[3]"
        }
      ],
      "name": "setVerifierImageCommitments",
      "outputs": [],
      "stateMutability": "nonpayable",
      "type": "function"
    },
    {
      "inputs": [],
      "name": "storageContract",
      "outputs": [
        {
          "internalType": "contract GameStateStorage",
          "name": "",
          "type": "address"
        }
      ],
      "stateMutability": "view",
      "type": "function"
    },
    {
      "inputs": [
        {
          "internalType": "uint256",
          "name": "gameId",
          "type": "uint256"
        },
        {
          "internalType": "bytes",
          "name": "finalState",
          "type": "bytes"
        },
        {
          "internalType": "uint64[4]",
          "name": "playerInputStateHash",
          "type": "uint64[4]"
        },
        {
          "internalType": "uint256[]",
          "name": "proof",
          "type": "uint256[]"
        },
        {
          "internalType": "uint256[]",
          "name": "verify_instance",
          "type": "uint256[]"
        },
        {
          "internalType": "uint256[]",
          "name": "aux",
          "type": "uint256[]"
        },
        {
          "internalType": "uint256[][]",
          "name": "instances",
          "type": "uint256[][]"
        }
      ],
      "name": "submitGame",
      "outputs": [],
      "stateMutability": "nonpayable",
      "type": "function"
    },
    {
      "inputs": [],
      "name": "verifier",
      "outputs": [
        {
          "internalType": "contract IZKVerifier",
          "name": "",
          "type": "address"
        }
      ],
      "stateMutability": "view",
      "type": "function"
    },
    {
      "inputs": [
        {
          "internalType": "uint256",
          "name": "",
          "type": "uint256"
        }
      ],
      "name": "zk_image_commitments",
      "outputs": [
        {
          "internalType": "uint256",
          "name": "",
          "type": "uint256"
        }
      ],
      "stateMutability": "view",
      "type": "function"
    }
  ],
  "bytecode": "0x6080346100d6576001600160401b0390601f61161c38819003918201601f1916830191848311848410176100c0578084926020946040528339810103126100d657516001600160a01b038082169290918390036100d65760018060a01b03199233846002541617600255836001541617600155604051906104e89081830190838210908211176100c0578291611134833903906000f080156100b4571690600054161760005560405161105890816100dc8239f35b6040513d6000823e3d90fd5b634e487b7160e01b600052604160045260246000fd5b600080fdfe608080604052600436101561001357600080fd5b600090813560e01c90816311ce026714610bd85750806313af403514610b8f5780632b7ac3f3146100ef5780632bdd45b914610b5257806337e87d5714610b265780634a00ac6914610aca5780635437988d14610a7c578063560bfc7e14610a385780637189997e146109835780638427fe8e146108ae578063892ff0e5146101725780638c1336ec146101415780638da5cb5b14610118578063a74a0434146100ef5763f0342125146100c657600080fd5b346100ec57806003193601126100ec57546040516001600160a01b039091168152602090f35b80fd5b50346100ec57806003193601126100ec576001546040516001600160a01b039091168152602090f35b50346100ec57806003193601126100ec576002546040516001600160a01b039091168152602090f35b50346100ec5760203660031901126100ec57600435600381101561016e5760209060030154604051908152f35b5080fd5b50346100ec576101403660031901126100ec576001600160401b03602435116100ec573660236024350112156100ec576001600160401b0360243560040135116100ec5736602480356004013581350101116100ec5736606312156100ec576040516101dd81610c89565b60c4813682116108aa576044905b8282106108925750505060c4356001600160401b03811161068b57610214903690600401610c46565b9060e4356001600160401b03811161088e57610234903690600401610c46565b9290610104356001600160401b0381116106a757610256903690600401610c46565b9490610124356001600160401b03811161088a57610278903690600401610c46565b9690956003548061074e575b506001546001600160a01b031694853b1561074a57916102dd6102ef938c97959398966102cb6040519a8b9963ae022ccd60e01b8b52608060048c015260848b0191610ffe565b8881036003190160248a015291610ffe565b85810360031901604487015291610ffe565b600319838203016064840152868152602081019060208860051b820101918791865b8a81106106da575050505082809103915afa80156106cf576106b8575b509061033991610e74565b508254604051634fe8446f60e01b815233600482015291926001600160a01b0390911691848082602481875afa9182156106ab5781926105f9575b5061038e6020928360405192828480945193849201610fdb565b8101039060025afa156105ee576103a58451610da8565b60806040516103b381610c89565b3690376001600160401b03815116906001600160401b03602082015116926001600160401b03606081604085015116930151166001600160401b038251166001600160401b03602084015116916001600160401b036060816040870151169501511694604051976020890197600435895260408a01526060890152608088015260a087015260c086015260e08501526101008401526101209081840152825261014082018281106001600160401b038211176105d857602092816104808894826040528351928391610fdb565b8101039060025afa1561056c576104a161049a8451610da8565b9283610f8d565b15610577578083913b1561016e57816040518092631535530f60e01b825260406004830152602435600401356044830152602435600401356024803501606484013782606460243560040135840101523360248301528183606482601f19601f60243560040135011681010301925af1801561056c57610558575b505061052b6040518092610c15565b33907f4689d5a4a7067603e6ddcaa845fa9fe59ab7907b4d0fe1ca8e13e7f9b9dc5da8608060043592a380f35b61056190610c76565b61016e57813861051c565b6040513d84823e3d90fd5b60405162461bcd60e51b815260206004820152603360248201527f537461727420737461746520646f6573206e6f74206d61746368207375626d696044820152727373696f6e2c206e6f206368616c6c656e676560681b6064820152608490fd5b634e487b7160e01b600052604160045260246000fd5b6040513d85823e3d90fd5b9150503d8086833e61060b8183610ca4565b8101906020818303126106a3578051906001600160401b0382116106a757019080601f830112156106a3578151906001600160401b03821161068f57604051879291610661601f8401601f191660200183610ca4565b8282526020838601011161068b5761068461038e92602095868085019101610fdb565b9250610374565b8280fd5b634e487b7160e01b87526041600452602487fd5b8580fd5b8680fd5b50604051903d90823e3d90fd5b936106c7610339939295610c76565b93909161032e565b6040513d87823e3d90fd5b9295509290939550601f198382030184528435601e198936030181121561074657880190602082359201916001600160401b038111610742578060051b360383136107425761072f6020928392600195610ffe565b960194019101908694928b969492610311565b8c80fd5b8b80fd5b8a80fd5b8460011015610876576020860135036108315783600210156107d8576004546040860135036107ec5783600310156107d8576005546060860135036107935738610284565b60405162461bcd60e51b815260206004820152601a60248201527f496e76616c696420696d61676520636f6d6d69746d656e7420320000000000006044820152606490fd5b634e487b7160e01b8a52603260045260248afd5b60405162461bcd60e51b815260206004820152601a60248201527f496e76616c696420696d61676520636f6d6d69746d656e7420310000000000006044820152606490fd5b60405162461bcd60e51b815260206004820152601a60248201527f496e76616c696420696d61676520636f6d6d69746d656e7420300000000000006044820152606490fd5b634e487b7160e01b8b52603260045260248bfd5b8880fd5b8480fd5b6020809161089f84610bfc565b8152019101906101eb565b8380fd5b50346100ec5760603660031901126100ec5736602312156100ec576040516001600160401b03606082018181118382101761096f5760405260648236821161088e57602094506004905b8282106109605750505063ffffffff61093061091683855116610d1b565b926040610927828888015116610d1b565b95015116610d1b565b916bffffffffffffffff0000000060405194861b16906001600160401b0360601b9060601b161791841c16178152f35b813581529085019085016108f8565b634e487b7160e01b84526041600452602484fd5b50346100ec576101003660031901126100ec5736602312156100ec576040516109ab81610c89565b6084813682116108aa576004905b828210610a20575050503660a3121561016e576040516109d881610c89565b610104918136841161088e57602094506084905b848210610a095750506109ff9250610f8d565b6040519015158152f35b858091610a1584610bfc565b8152019101906109ec565b60208091610a2d84610bfc565b8152019101906109b9565b50346100ec5760603660031901126100ec57366064116100ec57610a6760018060a01b03600254163314610cc5565b60043560035560243560045560443560055580f35b50346100ec5760203660031901126100ec576004356001600160a01b038181169182900361068b57610ab390600254163314610cc5565b600180546001600160a01b03191691909117905580f35b50346100ec5760203660031901126100ec57600435906001600160401b0382116100ec57610100610b24610b0a610b043660048701610c46565b90610e74565b610b1a6040939293518094610c15565b6080830190610c15565bf35b50346100ec5760203660031901126100ec576080610b45600435610da8565b610b246040518092610c15565b50346100ec5760203660031901126100ec57600435906001600160401b039081831683036100ec5750610b86602092610d1b565b60405191168152f35b50346100ec5760203660031901126100ec576004356001600160a01b038181169182900361068b57610bc76002549182163314610cc5565b6001600160a01b0319161760025580f35b90503461016e578160031936011261016e5790546001600160a01b03168152602090f35b35906001600160401b0382168203610c1057565b600080fd5b6000915b60048310610c2657505050565b6001906001600160401b0383511681526020809101920192019190610c19565b9181601f84011215610c10578235916001600160401b038311610c10576020808501948460051b010111610c1057565b6001600160401b0381116105d857604052565b608081019081106001600160401b038211176105d857604052565b90601f801991011681019081106001600160401b038211176105d857604052565b15610ccc57565b60405162461bcd60e51b815260206004820152602160248201527f4f6e6c79206f776e65722063616e2063616c6c20746869732066756e6374696f6044820152603760f91b6064820152608490fd5b600091825b600880851015610d7a576001600160fd1b0385168503610d645767ffffffffffffff0060019260ff6001600160401b0387168860031b1c16921b1617930192610d20565b634e487b7160e01b600052601160045260246000fd5b5092509050565b906004811015610d925760051b0190565b634e487b7160e01b600052603260045260246000fd5b9060406080604051610db981610c89565b36903760405190610dc982610c89565b608036833760005b600480821015610e2f578160061b90828204841483151715610e1a5760c0918203918211610e1a5750906001600160401b03866001931c16610e138286610d81565b5201610dd1565b601190634e487b7160e01b6000525260246000fd5b509193505050565b9015610d9257803590601e1981360301821215610c105701908135916001600160401b038311610c10576020018260051b36038113610c10579190565b9160405192610e8284610c89565b60803685378360405191610e9583610c89565b60803684378294610ea68183610e37565b93909315610d92576001600160401b03809435168152610ec68284610e37565b60011015610d9257602085910135166020820152610ee48284610e37565b60021015610d9257604085910135166040820152610f028284610e37565b60031015610d92578460608092013516910152610f1f8183610e37565b60041015610d92576080013583168452610f398183610e37565b60051015610d925760a0013583166020850152610f568183610e37565b60069391931015610d92578360c0610f75940135166040860152610e37565b60079291921015610d925760e0606092013516910152565b9060009060005b60048110610fa55750505050600190565b6001600160401b0380610fb88387610d81565b511690610fc58385610d81565b511603610fd457600101610f94565b5050905090565b60005b838110610fee5750506000910152565b8181015183820152602001610fde565b81835290916001600160fb1b038311610c105760209260051b80928483013701019056fea2646970667358221220fb9d6f6aa8079b8fb80cec2e84d02bede089f845885ef42e363173ea4bf071cb64736f6c634300081800336080806040523461002857600080546001600160a01b031916331790556104ba908161002e8239f35b600080fdfe604060808152600436101561001357600080fd5b600090813560e01c806302a22337146102475780631535530f1461007857634fe8446f1461004057600080fd5b346100745760203660031901126100745761007090610065610060610281565b6103ea565b9051918291826103a1565b0390f35b5080fd5b50346100745780600319360112610074576004359067ffffffffffffffff80831161024357366023840112156102435782600401359081116102435760243681838601011161023f5780356001600160a01b038181169182900361023b5786541633036101ec5785526001926020908482528620946100f7865461029c565b601f81116101a6575b508691601f851160011461013e57509183949184938895610131575b5050501b916000199060031b1c191617905580f35b010135925038808061011c565b92909184601f198116888a52858a20958a905b8983831061018a575050501061016e575b50505050811b01905580f35b60001960f88660031b161c199201013516905538808080610162565b8786018701358955909701969384019388935090810190610151565b868852828820601f860160051c8101918487106101e2575b601f0160051c019086905b8281106101d7575050610100565b8981550186906101c9565b90915081906101be565b835162461bcd60e51b8152602060048201526023818401527f4f6e6c792063726561746f722063616e2063616c6c20746869732066756e637460448201526234b7b760e91b6064820152608490fd5b8680fd5b8480fd5b8380fd5b503461007457602036600319011261007457610070916100659082906001600160a01b03610273610281565b1681526001602052206102d6565b600435906001600160a01b038216820361029757565b600080fd5b90600182811c921680156102cc575b60208310146102b657565b634e487b7160e01b600052602260045260246000fd5b91607f16916102ab565b906040519160009080546102e98161029c565b908186526020926001916001811690816000146103835750600114610347575b50505050829003601f01601f1916820167ffffffffffffffff81118382101761033157604052565b634e487b7160e01b600052604160045260246000fd5b909293506000528260002091836000935b83851061036f575050505083010138808080610309565b805488860183015293019284908201610358565b60ff191688860152505050151560051b840101905038808080610309565b6020808252825181830181905290939260005b8281106103d657505060409293506000838284010152601f8019910116010190565b8181018601518482016040015285016103b4565b6001600160a01b031660008181526001602052604081205490919061040e9061029c565b1561042a578160409161042793526001602052206102d6565b90565b50604051908060208301528060408301528060608301528060808301528060a083015260a0825260c082019082821067ffffffffffffffff831117610470575060405290565b634e487b7160e01b81526041600452602490fdfea26469706673582212207feea081625edeb9474ddeef6a8f05b51d269b28b5581e3d19201f3d0219460264736f6c63430008180033",
  "linkReferences": {},
  "deployedLinkReferences": {}
}