{
  "contracts/GameContract.sol": {
    "GameContract": {
      "abi": [
        {
          "inputs": [
            {
              "internalType": "address",
              "name": "verifier_address",
              "type": "address"
            }
          ],
          "stateMutability": "nonpayable",
          "type": "constructor"
        },
        {
          "anonymous": false,
          "inputs": [
            {
              "indexed": false,
              "internalType": "uint64",
              "name": "previous_total_steps",
              "type": "uint64"
            },
            {
              "indexed": false,
              "internalType": "uint64",
              "name": "previos_position",
              "type": "uint64"
            },
            {
              "indexed": false,
              "internalType": "uint64",
              "name": "total_steps",
              "type": "uint64"
            },
            {
              "indexed": false,
              "internalType": "uint64",
              "name": "current_position",
              "type": "uint64"
            }
          ],
          "name": "UpdateState",
          "type": "event"
        },
        {
          "anonymous": false,
          "inputs": [
            {
              "indexed": true,
              "internalType": "address",
              "name": "sender",
              "type": "address"
            }
          ],
          "name": "VerificationSucceeded",
          "type": "event"
        },
        {
          "inputs": [],
          "name": "current_position",
          "outputs": [
            {
              "internalType": "uint64",
              "name": "",
              "type": "uint64"
            }
          ],
          "stateMutability": "view",
          "type": "function"
        },
        {
          "inputs": [],
          "name": "getStates",
          "outputs": [
            {
              "internalType": "uint64",
              "name": "",
              "type": "uint64"
            },
            {
              "internalType": "uint64",
              "name": "",
              "type": "uint64"
            }
          ],
          "stateMutability": "view",
          "type": "function"
        },
        {
          "inputs": [
            {
              "internalType": "uint256[]",
              "name": "proof",
              "type": "uint256[]"
            },
            {
              "internalType": "uint256[]",
              "name": "verify_instance",
              "type": "uint256[]"
            },
            {
              "internalType": "uint256[]",
              "name": "aux",
              "type": "uint256[]"
            },
            {
              "internalType": "uint256[][]",
              "name": "instances",
              "type": "uint256[][]"
            }
          ],
          "name": "submitScore",
          "outputs": [],
          "stateMutability": "nonpayable",
          "type": "function"
        },
        {
          "inputs": [],
          "name": "total_steps",
          "outputs": [
            {
              "internalType": "uint64",
              "name": "",
              "type": "uint64"
            }
          ],
          "stateMutability": "view",
          "type": "function"
        },
        {
          "inputs": [],
          "name": "verifier",
          "outputs": [
            {
              "internalType": "contract IZKVerifier",
              "name": "",
              "type": "address"
            }
          ],
          "stateMutability": "view",
          "type": "function"
        },
        {
          "inputs": [
            {
              "internalType": "uint256[]",
              "name": "proof",
              "type": "uint256[]"
            },
            {
              "internalType": "uint256[]",
              "name": "verify_instance",
              "type": "uint256[]"
            },
            {
              "internalType": "uint256[]",
              "name": "aux",
              "type": "uint256[]"
            },
            {
              "internalType": "uint256[][]",
              "name": "instances",
              "type": "uint256[][]"
            }
          ],
          "name": "verify",
          "outputs": [
            {
              "components": [
                {
                  "internalType": "uint64",
                  "name": "total_steps",
                  "type": "uint64"
                },
                {
                  "internalType": "uint64",
                  "name": "position",
                  "type": "uint64"
                }
              ],
              "internalType": "struct GameContract.ZKInput",
              "name": "zk_input",
              "type": "tuple"
            },
            {
              "components": [
                {
                  "internalType": "uint64",
                  "name": "total_steps",
                  "type": "uint64"
                },
                {
                  "internalType": "uint64",
                  "name": "position",
                  "type": "uint64"
                }
              ],
              "internalType": "struct GameContract.ZKOutput",
              "name": "zk_output",
              "type": "tuple"
            }
          ],
          "stateMutability": "nonpayable",
          "type": "function"
        }
      ],
      "evm": {
        "bytecode": {
          "linkReferences": {},
          "object": "608060405234801561001057600080fd5b50604051610d18380380610d18833981810160405281019061003291906100db565b806000806101000a81548173ffffffffffffffffffffffffffffffffffffffff021916908373ffffffffffffffffffffffffffffffffffffffff16021790555050610108565b600080fd5b600073ffffffffffffffffffffffffffffffffffffffff82169050919050565b60006100a88261007d565b9050919050565b6100b88161009d565b81146100c357600080fd5b50565b6000815190506100d5816100af565b92915050565b6000602082840312156100f1576100f0610078565b5b60006100ff848285016100c6565b91505092915050565b610c01806101176000396000f3fe608060405234801561001057600080fd5b50600436106100625760003560e01c80630e5bc8d0146100675780632b7ac3f3146100835780634d56acd3146100a157806352de5f98146100bf578063ae022ccd146100dd578063d8ab82741461010e575b600080fd5b610081600480360381019061007c91906105ee565b61012d565b005b61008b6101f7565b6040516100989190610756565b60405180910390f35b6100a961021b565b6040516100b69190610794565b60405180910390f35b6100c7610235565b6040516100d49190610794565b60405180910390f35b6100f760048036038101906100f291906105ee565b61024f565b60405161010592919061081c565b60405180910390f35b610116610494565b604051610124929190610845565b60405180910390f35b6000806101408a8a8a8a8a8a8a8a61024f565b915091508060000151600060146101000a81548167ffffffffffffffff021916908367ffffffffffffffff1602179055508060200151600160006101000a81548167ffffffffffffffff021916908367ffffffffffffffff1602179055507f7aee085ce8e2eda4fac2a988081f6a26fe0adeca01c75bde1c5dbc3ca91063de82600001518360200151836000015184602001516040516101e3949392919061086e565b60405180910390a150505050505050505050565b60008054906101000a900473ffffffffffffffffffffffffffffffffffffffff1681565b600160009054906101000a900467ffffffffffffffff1681565b600060149054906101000a900467ffffffffffffffff1681565b6102576104cd565b61025f6104fb565b60008054906101000a900473ffffffffffffffffffffffffffffffffffffffff1673ffffffffffffffffffffffffffffffffffffffff1663ae022ccd8b8b8b8b8b8b8b8b6040518963ffffffff1660e01b81526004016102c6989796959493929190610ac1565b60006040518083038186803b1580156102de57600080fd5b505afa1580156102f2573d6000803e3d6000fd5b5050505060405180604001604052808585600081811061031557610314610b2a565b5b90506020028101906103279190610b68565b600081811061033957610338610b2a565b5b9050602002013567ffffffffffffffff1681526020018585600081811061036357610362610b2a565b5b90506020028101906103759190610b68565b600181811061038757610386610b2a565b5b9050602002013567ffffffffffffffff1681525091506040518060400160405280858560008181106103bc576103bb610b2a565b5b90506020028101906103ce9190610b68565b60028181106103e0576103df610b2a565b5b9050602002013567ffffffffffffffff1681526020018585600081811061040a57610409610b2a565b5b905060200281019061041c9190610b68565b600381811061042e5761042d610b2a565b5b9050602002013567ffffffffffffffff1681525090503373ffffffffffffffffffffffffffffffffffffffff167f9508ee0b8ce58138ead5f169fde353bda2e3991ea16a8aa21e626fb211a3f2ef60405160405180910390a29850989650505050505050565b600080600060149054906101000a900467ffffffffffffffff16600160009054906101000a900467ffffffffffffffff16915091509091565b6040518060400160405280600067ffffffffffffffff168152602001600067ffffffffffffffff1681525090565b6040518060400160405280600067ffffffffffffffff168152602001600067ffffffffffffffff1681525090565b600080fd5b600080fd5b600080fd5b600080fd5b600080fd5b60008083601f84011261055857610557610533565b5b8235905067ffffffffffffffff81111561057557610574610538565b5b6020830191508360208202830111156105915761059061053d565b5b9250929050565b60008083601f8401126105ae576105ad610533565b5b8235905067ffffffffffffffff8111156105cb576105ca610538565b5b6020830191508360208202830111156105e7576105e661053d565b5b9250929050565b6000806000806000806000806080898b03121561060e5761060d610529565b5b600089013567ffffffffffffffff81111561062c5761062b61052e565b5b6106388b828c01610542565b9850985050602089013567ffffffffffffffff81111561065b5761065a61052e565b5b6106678b828c01610542565b9650965050604089013567ffffffffffffffff81111561068a5761068961052e565b5b6106968b828c01610542565b9450945050606089013567ffffffffffffffff8111156106b9576106b861052e565b5b6106c58b828c01610598565b92509250509295985092959890939650565b600073ffffffffffffffffffffffffffffffffffffffff82169050919050565b6000819050919050565b600061071c610717610712846106d7565b6106f7565b6106d7565b9050919050565b600061072e82610701565b9050919050565b600061074082610723565b9050919050565b61075081610735565b82525050565b600060208201905061076b6000830184610747565b92915050565b600067ffffffffffffffff82169050919050565b61078e81610771565b82525050565b60006020820190506107a96000830184610785565b92915050565b6107b881610771565b82525050565b6040820160008201516107d460008501826107af565b5060208201516107e760208501826107af565b50505050565b60408201600082015161080360008501826107af565b50602082015161081660208501826107af565b50505050565b600060808201905061083160008301856107be565b61083e60408301846107ed565b9392505050565b600060408201905061085a6000830185610785565b6108676020830184610785565b9392505050565b60006080820190506108836000830187610785565b6108906020830186610785565b61089d6040830185610785565b6108aa6060830184610785565b95945050505050565b600082825260208201905092915050565b600080fd5b82818337505050565b60006108de83856108b3565b93507f07ffffffffffffffffffffffffffffffffffffffffffffffffffffffffffffff831115610911576109106108c4565b5b6020830292506109228385846108c9565b82840190509392505050565b600082825260208201905092915050565b6000819050919050565b600082825260208201905092915050565b60006109668385610949565b93507f07ffffffffffffffffffffffffffffffffffffffffffffffffffffffffffffff831115610999576109986108c4565b5b6020830292506109aa8385846108c9565b82840190509392505050565b60006109c384848461095a565b90509392505050565b600080fd5b600080fd5b600080fd5b600080833560016020038436030381126109f8576109f76109d6565b5b83810192508235915060208301925067ffffffffffffffff821115610a2057610a1f6109cc565b5b602082023603831315610a3657610a356109d1565b5b509250929050565b6000602082019050919050565b6000610a57838561092e565b935083602084028501610a698461093f565b8060005b87811015610aaf578484038952610a8482846109db565b610a8f8682846109b6565b9550610a9a84610a3e565b935060208b019a505050600181019050610a6d565b50829750879450505050509392505050565b60006080820190508181036000830152610adc818a8c6108d2565b90508181036020830152610af181888a6108d2565b90508181036040830152610b068186886108d2565b90508181036060830152610b1b818486610a4b565b90509998505050505050505050565b7f4e487b7100000000000000000000000000000000000000000000000000000000600052603260045260246000fd5b600080fd5b600080fd5b600080fd5b60008083356001602003843603038112610b8557610b84610b59565b5b80840192508235915067ffffffffffffffff821115610ba757610ba6610b5e565b5b602083019250602082023603831315610bc357610bc2610b63565b5b50925092905056fea26469706673582212205b1b6be2b1d3ca07069ece580b428e2afaf418c509f458530c0541db5d1cd72d64736f6c63430008180033",
          "opcodes": "PUSH1 0x80 PUSH1 0x40 MSTORE CALLVALUE DUP1 ISZERO PUSH2 0x10 JUMPI PUSH1 0x0 DUP1 REVERT JUMPDEST POP PUSH1 0x40 MLOAD PUSH2 0xD18 CODESIZE SUB DUP1 PUSH2 0xD18 DUP4 CODECOPY DUP2 DUP2 ADD PUSH1 0x40 MSTORE DUP2 ADD SWAP1 PUSH2 0x32 SWAP2 SWAP1 PUSH2 0xDB JUMP JUMPDEST DUP1 PUSH1 0x0 DUP1 PUSH2 0x100 EXP DUP2 SLOAD DUP2 PUSH20 0xFFFFFFFFFFFFFFFFFFFFFFFFFFFFFFFFFFFFFFFF MUL NOT AND SWAP1 DUP4 PUSH20 0xFFFFFFFFFFFFFFFFFFFFFFFFFFFFFFFFFFFFFFFF AND MUL OR SWAP1 SSTORE POP POP PUSH2 0x108 JUMP JUMPDEST PUSH1 0x0 DUP1 REVERT JUMPDEST PUSH1 0x0 PUSH20 0xFFFFFFFFFFFFFFFFFFFFFFFFFFFFFFFFFFFFFFFF DUP3 AND SWAP1 POP SWAP2 SWAP1 POP JUMP JUMPDEST PUSH1 0x0 PUSH2 0xA8 DUP3 PUSH2 0x7D JUMP JUMPDEST SWAP1 POP SWAP2 SWAP1 POP JUMP JUMPDEST PUSH2 0xB8 DUP2 PUSH2 0x9D JUMP JUMPDEST DUP2 EQ PUSH2 0xC3 JUMPI PUSH1 0x0 DUP1 REVERT JUMPDEST POP JUMP JUMPDEST PUSH1 0x0 DUP2 MLOAD SWAP1 POP PUSH2 0xD5 DUP2 PUSH2 0xAF JUMP JUMPDEST SWAP3 SWAP2 POP POP JUMP JUMPDEST PUSH1 0x0 PUSH1 0x20 DUP3 DUP5 SUB SLT ISZERO PUSH2 0xF1 JUMPI PUSH2 0xF0 PUSH2 0x78 JUMP JUMPDEST JUMPDEST PUSH1 0x0 PUSH2 0xFF DUP5 DUP3 DUP6 ADD PUSH2 0xC6 JUMP JUMPDEST SWAP2 POP POP SWAP3 SWAP2 POP POP JUMP JUMPDEST PUSH2 0xC01 DUP1 PUSH2 0x117 PUSH1 0x0 CODECOPY PUSH1 0x0 RETURN INVALID PUSH1 0x80 PUSH1 0x40 MSTORE CALLVALUE DUP1 ISZERO PUSH2 0x10 JUMPI PUSH1 0x0 DUP1 REVERT JUMPDEST POP PUSH1 0x4 CALLDATASIZE LT PUSH2 0x62 JUMPI PUSH1 0x0 CALLDATALOAD PUSH1 0xE0 SHR DUP1 PUSH4 0xE5BC8D0 EQ PUSH2 0x67 JUMPI DUP1 PUSH4 0x2B7AC3F3 EQ PUSH2 0x83 JUMPI DUP1 PUSH4 0x4D56ACD3 EQ PUSH2 0xA1 JUMPI DUP1 PUSH4 0x52DE5F98 EQ PUSH2 0xBF JUMPI DUP1 PUSH4 0xAE022CCD EQ PUSH2 0xDD JUMPI DUP1 PUSH4 0xD8AB8274 EQ PUSH2 0x10E JUMPI JUMPDEST PUSH1 0x0 DUP1 REVERT JUMPDEST PUSH2 0x81 PUSH1 0x4 DUP1 CALLDATASIZE SUB DUP2 ADD SWAP1 PUSH2 0x7C SWAP2 SWAP1 PUSH2 0x5EE JUMP JUMPDEST PUSH2 0x12D JUMP JUMPDEST STOP JUMPDEST PUSH2 0x8B PUSH2 0x1F7 JUMP JUMPDEST PUSH1 0x40 MLOAD PUSH2 0x98 SWAP2 SWAP1 PUSH2 0x756 JUMP JUMPDEST PUSH1 0x40 MLOAD DUP1 SWAP2 SUB SWAP1 RETURN JUMPDEST PUSH2 0xA9 PUSH2 0x21B JUMP JUMPDEST PUSH1 0x40 MLOAD PUSH2 0xB6 SWAP2 SWAP1 PUSH2 0x794 JUMP JUMPDEST PUSH1 0x40 MLOAD DUP1 SWAP2 SUB SWAP1 RETURN JUMPDEST PUSH2 0xC7 PUSH2 0x235 JUMP JUMPDEST PUSH1 0x40 MLOAD PUSH2 0xD4 SWAP2 SWAP1 PUSH2 0x794 JUMP JUMPDEST PUSH1 0x40 MLOAD DUP1 SWAP2 SUB SWAP1 RETURN JUMPDEST PUSH2 0xF7 PUSH1 0x4 DUP1 CALLDATASIZE SUB DUP2 ADD SWAP1 PUSH2 0xF2 SWAP2 SWAP1 PUSH2 0x5EE JUMP JUMPDEST PUSH2 0x24F JUMP JUMPDEST PUSH1 0x40 MLOAD PUSH2 0x105 SWAP3 SWAP2 SWAP1 PUSH2 0x81C JUMP JUMPDEST PUSH1 0x40 MLOAD DUP1 SWAP2 SUB SWAP1 RETURN JUMPDEST PUSH2 0x116 PUSH2 0x494 JUMP JUMPDEST PUSH1 0x40 MLOAD PUSH2 0x124 SWAP3 SWAP2 SWAP1 PUSH2 0x845 JUMP JUMPDEST PUSH1 0x40 MLOAD DUP1 SWAP2 SUB SWAP1 RETURN JUMPDEST PUSH1 0x0 DUP1 PUSH2 0x140 DUP11 DUP11 DUP11 DUP11 DUP11 DUP11 DUP11 DUP11 PUSH2 0x24F JUMP JUMPDEST SWAP2 POP SWAP2 POP DUP1 PUSH1 0x0 ADD MLOAD PUSH1 0x0 PUSH1 0x14 PUSH2 0x100 EXP DUP2 SLOAD DUP2 PUSH8 0xFFFFFFFFFFFFFFFF MUL NOT AND SWAP1 DUP4 PUSH8 0xFFFFFFFFFFFFFFFF AND MUL OR SWAP1 SSTORE POP DUP1 PUSH1 0x20 ADD MLOAD PUSH1 0x1 PUSH1 0x0 PUSH2 0x100 EXP DUP2 SLOAD DUP2 PUSH8 0xFFFFFFFFFFFFFFFF MUL NOT AND SWAP1 DUP4 PUSH8 0xFFFFFFFFFFFFFFFF AND MUL OR SWAP1 SSTORE POP PUSH32 0x7AEE085CE8E2EDA4FAC2A988081F6A26FE0ADECA01C75BDE1C5DBC3CA91063DE DUP3 PUSH1 0x0 ADD MLOAD DUP4 PUSH1 0x20 ADD MLOAD DUP4 PUSH1 0x0 ADD MLOAD DUP5 PUSH1 0x20 ADD MLOAD PUSH1 0x40 MLOAD PUSH2 0x1E3 SWAP5 SWAP4 SWAP3 SWAP2 SWAP1 PUSH2 0x86E JUMP JUMPDEST PUSH1 0x40 MLOAD DUP1 SWAP2 SUB SWAP1 LOG1 POP POP POP POP POP POP POP POP POP POP JUMP JUMPDEST PUSH1 0x0 DUP1 SLOAD SWAP1 PUSH2 0x100 EXP SWAP1 DIV PUSH20 0xFFFFFFFFFFFFFFFFFFFFFFFFFFFFFFFFFFFFFFFF AND DUP2 JUMP JUMPDEST PUSH1 0x1 PUSH1 0x0 SWAP1 SLOAD SWAP1 PUSH2 0x100 EXP SWAP1 DIV PUSH8 0xFFFFFFFFFFFFFFFF AND DUP2 JUMP JUMPDEST PUSH1 0x0 PUSH1 0x14 SWAP1 SLOAD SWAP1 PUSH2 0x100 EXP SWAP1 DIV PUSH8 0xFFFFFFFFFFFFFFFF AND DUP2 JUMP JUMPDEST PUSH2 0x257 PUSH2 0x4CD JUMP JUMPDEST PUSH2 0x25F PUSH2 0x4FB JUMP JUMPDEST PUSH1 0x0 DUP1 SLOAD SWAP1 PUSH2 0x100 EXP SWAP1 DIV PUSH20 0xFFFFFFFFFFFFFFFFFFFFFFFFFFFFFFFFFFFFFFFF AND PUSH20 0xFFFFFFFFFFFFFFFFFFFFFFFFFFFFFFFFFFFFFFFF AND PUSH4 0xAE022CCD DUP12 DUP12 DUP12 DUP12 DUP12 DUP12 DUP12 DUP12 PUSH1 0x40 MLOAD DUP10 PUSH4 0xFFFFFFFF AND PUSH1 0xE0 SHL DUP2 MSTORE PUSH1 0x4 ADD PUSH2 0x2C6 SWAP9 SWAP8 SWAP7 SWAP6 SWAP5 SWAP4 SWAP3 SWAP2 SWAP1 PUSH2 0xAC1 JUMP JUMPDEST PUSH1 0x0 PUSH1 0x40 MLOAD DUP1 DUP4 SUB DUP2 DUP7 DUP1 EXTCODESIZE ISZERO DUP1 ISZERO PUSH2 0x2DE JUMPI PUSH1 0x0 DUP1 REVERT JUMPDEST POP GAS STATICCALL ISZERO DUP1 ISZERO PUSH2 0x2F2 JUMPI RETURNDATASIZE PUSH1 0x0 DUP1 RETURNDATACOPY RETURNDATASIZE PUSH1 0x0 REVERT JUMPDEST POP POP POP POP PUSH1 0x40 MLOAD DUP1 PUSH1 0x40 ADD PUSH1 0x40 MSTORE DUP1 DUP6 DUP6 PUSH1 0x0 DUP2 DUP2 LT PUSH2 0x315 JUMPI PUSH2 0x314 PUSH2 0xB2A JUMP JUMPDEST JUMPDEST SWAP1 POP PUSH1 0x20 MUL DUP2 ADD SWAP1 PUSH2 0x327 SWAP2 SWAP1 PUSH2 0xB68 JUMP JUMPDEST PUSH1 0x0 DUP2 DUP2 LT PUSH2 0x339 JUMPI PUSH2 0x338 PUSH2 0xB2A JUMP JUMPDEST JUMPDEST SWAP1 POP PUSH1 0x20 MUL ADD CALLDATALOAD PUSH8 0xFFFFFFFFFFFFFFFF AND DUP2 MSTORE PUSH1 0x20 ADD DUP6 DUP6 PUSH1 0x0 DUP2 DUP2 LT PUSH2 0x363 JUMPI PUSH2 0x362 PUSH2 0xB2A JUMP JUMPDEST JUMPDEST SWAP1 POP PUSH1 0x20 MUL DUP2 ADD SWAP1 PUSH2 0x375 SWAP2 SWAP1 PUSH2 0xB68 JUMP JUMPDEST PUSH1 0x1 DUP2 DUP2 LT PUSH2 0x387 JUMPI PUSH2 0x386 PUSH2 0xB2A JUMP JUMPDEST JUMPDEST SWAP1 POP PUSH1 0x20 MUL ADD CALLDATALOAD PUSH8 0xFFFFFFFFFFFFFFFF AND DUP2 MSTORE POP SWAP2 POP PUSH1 0x40 MLOAD DUP1 PUSH1 0x40 ADD PUSH1 0x40 MSTORE DUP1 DUP6 DUP6 PUSH1 0x0 DUP2 DUP2 LT PUSH2 0x3BC JUMPI PUSH2 0x3BB PUSH2 0xB2A JUMP JUMPDEST JUMPDEST SWAP1 POP PUSH1 0x20 MUL DUP2 ADD SWAP1 PUSH2 0x3CE SWAP2 SWAP1 PUSH2 0xB68 JUMP JUMPDEST PUSH1 0x2 DUP2 DUP2 LT PUSH2 0x3E0 JUMPI PUSH2 0x3DF PUSH2 0xB2A JUMP JUMPDEST JUMPDEST SWAP1 POP PUSH1 0x20 MUL ADD CALLDATALOAD PUSH8 0xFFFFFFFFFFFFFFFF AND DUP2 MSTORE PUSH1 0x20 ADD DUP6 DUP6 PUSH1 0x0 DUP2 DUP2 LT PUSH2 0x40A JUMPI PUSH2 0x409 PUSH2 0xB2A JUMP JUMPDEST JUMPDEST SWAP1 POP PUSH1 0x20 MUL DUP2 ADD SWAP1 PUSH2 0x41C SWAP2 SWAP1 PUSH2 0xB68 JUMP JUMPDEST PUSH1 0x3 DUP2 DUP2 LT PUSH2 0x42E JUMPI PUSH2 0x42D PUSH2 0xB2A JUMP JUMPDEST JUMPDEST SWAP1 POP PUSH1 0x20 MUL ADD CALLDATALOAD PUSH8 0xFFFFFFFFFFFFFFFF AND DUP2 MSTORE POP SWAP1 POP CALLER PUSH20 0xFFFFFFFFFFFFFFFFFFFFFFFFFFFFFFFFFFFFFFFF AND PUSH32 0x9508EE0B8CE58138EAD5F169FDE353BDA2E3991EA16A8AA21E626FB211A3F2EF PUSH1 0x40 MLOAD PUSH1 0x40 MLOAD DUP1 SWAP2 SUB SWAP1 LOG2 SWAP9 POP SWAP9 SWAP7 POP POP POP POP POP POP POP JUMP JUMPDEST PUSH1 0x0 DUP1 PUSH1 0x0 PUSH1 0x14 SWAP1 SLOAD SWAP1 PUSH2 0x100 EXP SWAP1 DIV PUSH8 0xFFFFFFFFFFFFFFFF AND PUSH1 0x1 PUSH1 0x0 SWAP1 SLOAD SWAP1 PUSH2 0x100 EXP SWAP1 DIV PUSH8 0xFFFFFFFFFFFFFFFF AND SWAP2 POP SWAP2 POP SWAP1 SWAP2 JUMP JUMPDEST PUSH1 0x40 MLOAD DUP1 PUSH1 0x40 ADD PUSH1 0x40 MSTORE DUP1 PUSH1 0x0 PUSH8 0xFFFFFFFFFFFFFFFF AND DUP2 MSTORE PUSH1 0x20 ADD PUSH1 0x0 PUSH8 0xFFFFFFFFFFFFFFFF AND DUP2 MSTORE POP SWAP1 JUMP JUMPDEST PUSH1 0x40 MLOAD DUP1 PUSH1 0x40 ADD PUSH1 0x40 MSTORE DUP1 PUSH1 0x0 PUSH8 0xFFFFFFFFFFFFFFFF AND DUP2 MSTORE PUSH1 0x20 ADD PUSH1 0x0 PUSH8 0xFFFFFFFFFFFFFFFF AND DUP2 MSTORE POP SWAP1 JUMP JUMPDEST PUSH1 0x0 DUP1 REVERT JUMPDEST PUSH1 0x0 DUP1 REVERT JUMPDEST PUSH1 0x0 DUP1 REVERT JUMPDEST PUSH1 0x0 DUP1 REVERT JUMPDEST PUSH1 0x0 DUP1 REVERT JUMPDEST PUSH1 0x0 DUP1 DUP4 PUSH1 0x1F DUP5 ADD SLT PUSH2 0x558 JUMPI PUSH2 0x557 PUSH2 0x533 JUMP JUMPDEST JUMPDEST DUP3 CALLDATALOAD SWAP1 POP PUSH8 0xFFFFFFFFFFFFFFFF DUP2 GT ISZERO PUSH2 0x575 JUMPI PUSH2 0x574 PUSH2 0x538 JUMP JUMPDEST JUMPDEST PUSH1 0x20 DUP4 ADD SWAP2 POP DUP4 PUSH1 0x20 DUP3 MUL DUP4 ADD GT ISZERO PUSH2 0x591 JUMPI PUSH2 0x590 PUSH2 0x53D JUMP JUMPDEST JUMPDEST SWAP3 POP SWAP3 SWAP1 POP JUMP JUMPDEST PUSH1 0x0 DUP1 DUP4 PUSH1 0x1F DUP5 ADD SLT PUSH2 0x5AE JUMPI PUSH2 0x5AD PUSH2 0x533 JUMP JUMPDEST JUMPDEST DUP3 CALLDATALOAD SWAP1 POP PUSH8 0xFFFFFFFFFFFFFFFF DUP2 GT ISZERO PUSH2 0x5CB JUMPI PUSH2 0x5CA PUSH2 0x538 JUMP JUMPDEST JUMPDEST PUSH1 0x20 DUP4 ADD SWAP2 POP DUP4 PUSH1 0x20 DUP3 MUL DUP4 ADD GT ISZERO PUSH2 0x5E7 JUMPI PUSH2 0x5E6 PUSH2 0x53D JUMP JUMPDEST JUMPDEST SWAP3 POP SWAP3 SWAP1 POP JUMP JUMPDEST PUSH1 0x0 DUP1 PUSH1 0x0 DUP1 PUSH1 0x0 DUP1 PUSH1 0x0 DUP1 PUSH1 0x80 DUP10 DUP12 SUB SLT ISZERO PUSH2 0x60E JUMPI PUSH2 0x60D PUSH2 0x529 JUMP JUMPDEST JUMPDEST PUSH1 0x0 DUP10 ADD CALLDATALOAD PUSH8 0xFFFFFFFFFFFFFFFF DUP2 GT ISZERO PUSH2 0x62C JUMPI PUSH2 0x62B PUSH2 0x52E JUMP JUMPDEST JUMPDEST PUSH2 0x638 DUP12 DUP3 DUP13 ADD PUSH2 0x542 JUMP JUMPDEST SWAP9 POP SWAP9 POP POP PUSH1 0x20 DUP10 ADD CALLDATALOAD PUSH8 0xFFFFFFFFFFFFFFFF DUP2 GT ISZERO PUSH2 0x65B JUMPI PUSH2 0x65A PUSH2 0x52E JUMP JUMPDEST JUMPDEST PUSH2 0x667 DUP12 DUP3 DUP13 ADD PUSH2 0x542 JUMP JUMPDEST SWAP7 POP SWAP7 POP POP PUSH1 0x40 DUP10 ADD CALLDATALOAD PUSH8 0xFFFFFFFFFFFFFFFF DUP2 GT ISZERO PUSH2 0x68A JUMPI PUSH2 0x689 PUSH2 0x52E JUMP JUMPDEST JUMPDEST PUSH2 0x696 DUP12 DUP3 DUP13 ADD PUSH2 0x542 JUMP JUMPDEST SWAP5 POP SWAP5 POP POP PUSH1 0x60 DUP10 ADD CALLDATALOAD PUSH8 0xFFFFFFFFFFFFFFFF DUP2 GT ISZERO PUSH2 0x6B9 JUMPI PUSH2 0x6B8 PUSH2 0x52E JUMP JUMPDEST JUMPDEST PUSH2 0x6C5 DUP12 DUP3 DUP13 ADD PUSH2 0x598 JUMP JUMPDEST SWAP3 POP SWAP3 POP POP SWAP3 SWAP6 SWAP9 POP SWAP3 SWAP6 SWAP9 SWAP1 SWAP4 SWAP7 POP JUMP JUMPDEST PUSH1 0x0 PUSH20 0xFFFFFFFFFFFFFFFFFFFFFFFFFFFFFFFFFFFFFFFF DUP3 AND SWAP1 POP SWAP2 SWAP1 POP JUMP JUMPDEST PUSH1 0x0 DUP2 SWAP1 POP SWAP2 SWAP1 POP JUMP JUMPDEST PUSH1 0x0 PUSH2 0x71C PUSH2 0x717 PUSH2 0x712 DUP5 PUSH2 0x6D7 JUMP JUMPDEST PUSH2 0x6F7 JUMP JUMPDEST PUSH2 0x6D7 JUMP JUMPDEST SWAP1 POP SWAP2 SWAP1 POP JUMP JUMPDEST PUSH1 0x0 PUSH2 0x72E DUP3 PUSH2 0x701 JUMP JUMPDEST SWAP1 POP SWAP2 SWAP1 POP JUMP JUMPDEST PUSH1 0x0 PUSH2 0x740 DUP3 PUSH2 0x723 JUMP JUMPDEST SWAP1 POP SWAP2 SWAP1 POP JUMP JUMPDEST PUSH2 0x750 DUP2 PUSH2 0x735 JUMP JUMPDEST DUP3 MSTORE POP POP JUMP JUMPDEST PUSH1 0x0 PUSH1 0x20 DUP3 ADD SWAP1 POP PUSH2 0x76B PUSH1 0x0 DUP4 ADD DUP5 PUSH2 0x747 JUMP JUMPDEST SWAP3 SWAP2 POP POP JUMP JUMPDEST PUSH1 0x0 PUSH8 0xFFFFFFFFFFFFFFFF DUP3 AND SWAP1 POP SWAP2 SWAP1 POP JUMP JUMPDEST PUSH2 0x78E DUP2 PUSH2 0x771 JUMP JUMPDEST DUP3 MSTORE POP POP JUMP JUMPDEST PUSH1 0x0 PUSH1 0x20 DUP3 ADD SWAP1 POP PUSH2 0x7A9 PUSH1 0x0 DUP4 ADD DUP5 PUSH2 0x785 JUMP JUMPDEST SWAP3 SWAP2 POP POP JUMP JUMPDEST PUSH2 0x7B8 DUP2 PUSH2 0x771 JUMP JUMPDEST DUP3 MSTORE POP POP JUMP JUMPDEST PUSH1 0x40 DUP3 ADD PUSH1 0x0 DUP3 ADD MLOAD PUSH2 0x7D4 PUSH1 0x0 DUP6 ADD DUP3 PUSH2 0x7AF JUMP JUMPDEST POP PUSH1 0x20 DUP3 ADD MLOAD PUSH2 0x7E7 PUSH1 0x20 DUP6 ADD DUP3 PUSH2 0x7AF JUMP JUMPDEST POP POP POP POP JUMP JUMPDEST PUSH1 0x40 DUP3 ADD PUSH1 0x0 DUP3 ADD MLOAD PUSH2 0x803 PUSH1 0x0 DUP6 ADD DUP3 PUSH2 0x7AF JUMP JUMPDEST POP PUSH1 0x20 DUP3 ADD MLOAD PUSH2 0x816 PUSH1 0x20 DUP6 ADD DUP3 PUSH2 0x7AF JUMP JUMPDEST POP POP POP POP JUMP JUMPDEST PUSH1 0x0 PUSH1 0x80 DUP3 ADD SWAP1 POP PUSH2 0x831 PUSH1 0x0 DUP4 ADD DUP6 PUSH2 0x7BE JUMP JUMPDEST PUSH2 0x83E PUSH1 0x40 DUP4 ADD DUP5 PUSH2 0x7ED JUMP JUMPDEST SWAP4 SWAP3 POP POP POP JUMP JUMPDEST PUSH1 0x0 PUSH1 0x40 DUP3 ADD SWAP1 POP PUSH2 0x85A PUSH1 0x0 DUP4 ADD DUP6 PUSH2 0x785 JUMP JUMPDEST PUSH2 0x867 PUSH1 0x20 DUP4 ADD DUP5 PUSH2 0x785 JUMP JUMPDEST SWAP4 SWAP3 POP POP POP JUMP JUMPDEST PUSH1 0x0 PUSH1 0x80 DUP3 ADD SWAP1 POP PUSH2 0x883 PUSH1 0x0 DUP4 ADD DUP8 PUSH2 0x785 JUMP JUMPDEST PUSH2 0x890 PUSH1 0x20 DUP4 ADD DUP7 PUSH2 0x785 JUMP JUMPDEST PUSH2 0x89D PUSH1 0x40 DUP4 ADD DUP6 PUSH2 0x785 JUMP JUMPDEST PUSH2 0x8AA PUSH1 0x60 DUP4 ADD DUP5 PUSH2 0x785 JUMP JUMPDEST SWAP6 SWAP5 POP POP POP POP POP JUMP JUMPDEST PUSH1 0x0 DUP3 DUP3 MSTORE PUSH1 0x20 DUP3 ADD SWAP1 POP SWAP3 SWAP2 POP POP JUMP JUMPDEST PUSH1 0x0 DUP1 REVERT JUMPDEST DUP3 DUP2 DUP4 CALLDATACOPY POP POP POP JUMP JUMPDEST PUSH1 0x0 PUSH2 0x8DE DUP4 DUP6 PUSH2 0x8B3 JUMP JUMPDEST SWAP4 POP PUSH32 0x7FFFFFFFFFFFFFFFFFFFFFFFFFFFFFFFFFFFFFFFFFFFFFFFFFFFFFFFFFFFFFF DUP4 GT ISZERO PUSH2 0x911 JUMPI PUSH2 0x910 PUSH2 0x8C4 JUMP JUMPDEST JUMPDEST PUSH1 0x20 DUP4 MUL SWAP3 POP PUSH2 0x922 DUP4 DUP6 DUP5 PUSH2 0x8C9 JUMP JUMPDEST DUP3 DUP5 ADD SWAP1 POP SWAP4 SWAP3 POP POP POP JUMP JUMPDEST PUSH1 0x0 DUP3 DUP3 MSTORE PUSH1 0x20 DUP3 ADD SWAP1 POP SWAP3 SWAP2 POP POP JUMP JUMPDEST PUSH1 0x0 DUP2 SWAP1 POP SWAP2 SWAP1 POP JUMP JUMPDEST PUSH1 0x0 DUP3 DUP3 MSTORE PUSH1 0x20 DUP3 ADD SWAP1 POP SWAP3 SWAP2 POP POP JUMP JUMPDEST PUSH1 0x0 PUSH2 0x966 DUP4 DUP6 PUSH2 0x949 JUMP JUMPDEST SWAP4 POP PUSH32 0x7FFFFFFFFFFFFFFFFFFFFFFFFFFFFFFFFFFFFFFFFFFFFFFFFFFFFFFFFFFFFFF DUP4 GT ISZERO PUSH2 0x999 JUMPI PUSH2 0x998 PUSH2 0x8C4 JUMP JUMPDEST JUMPDEST PUSH1 0x20 DUP4 MUL SWAP3 POP PUSH2 0x9AA DUP4 DUP6 DUP5 PUSH2 0x8C9 JUMP JUMPDEST DUP3 DUP5 ADD SWAP1 POP SWAP4 SWAP3 POP POP POP JUMP JUMPDEST PUSH1 0x0 PUSH2 0x9C3 DUP5 DUP5 DUP5 PUSH2 0x95A JUMP JUMPDEST SWAP1 POP SWAP4 SWAP3 POP POP POP JUMP JUMPDEST PUSH1 0x0 DUP1 REVERT JUMPDEST PUSH1 0x0 DUP1 REVERT JUMPDEST PUSH1 0x0 DUP1 REVERT JUMPDEST PUSH1 0x0 DUP1 DUP4 CALLDATALOAD PUSH1 0x1 PUSH1 0x20 SUB DUP5 CALLDATASIZE SUB SUB DUP2 SLT PUSH2 0x9F8 JUMPI PUSH2 0x9F7 PUSH2 0x9D6 JUMP JUMPDEST JUMPDEST DUP4 DUP2 ADD SWAP3 POP DUP3 CALLDATALOAD SWAP2 POP PUSH1 0x20 DUP4 ADD SWAP3 POP PUSH8 0xFFFFFFFFFFFFFFFF DUP3 GT ISZERO PUSH2 0xA20 JUMPI PUSH2 0xA1F PUSH2 0x9CC JUMP JUMPDEST JUMPDEST PUSH1 0x20 DUP3 MUL CALLDATASIZE SUB DUP4 SGT ISZERO PUSH2 0xA36 JUMPI PUSH2 0xA35 PUSH2 0x9D1 JUMP JUMPDEST JUMPDEST POP SWAP3 POP SWAP3 SWAP1 POP JUMP JUMPDEST PUSH1 0x0 PUSH1 0x20 DUP3 ADD SWAP1 POP SWAP2 SWAP1 POP JUMP JUMPDEST PUSH1 0x0 PUSH2 0xA57 DUP4 DUP6 PUSH2 0x92E JUMP JUMPDEST SWAP4 POP DUP4 PUSH1 0x20 DUP5 MUL DUP6 ADD PUSH2 0xA69 DUP5 PUSH2 0x93F JUMP JUMPDEST DUP1 PUSH1 0x0 JUMPDEST DUP8 DUP2 LT ISZERO PUSH2 0xAAF JUMPI DUP5 DUP5 SUB DUP10 MSTORE PUSH2 0xA84 DUP3 DUP5 PUSH2 0x9DB JUMP JUMPDEST PUSH2 0xA8F DUP7 DUP3 DUP5 PUSH2 0x9B6 JUMP JUMPDEST SWAP6 POP PUSH2 0xA9A DUP5 PUSH2 0xA3E JUMP JUMPDEST SWAP4 POP PUSH1 0x20 DUP12 ADD SWAP11 POP POP POP PUSH1 0x1 DUP2 ADD SWAP1 POP PUSH2 0xA6D JUMP JUMPDEST POP DUP3 SWAP8 POP DUP8 SWAP5 POP POP POP POP POP SWAP4 SWAP3 POP POP POP JUMP JUMPDEST PUSH1 0x0 PUSH1 0x80 DUP3 ADD SWAP1 POP DUP2 DUP2 SUB PUSH1 0x0 DUP4 ADD MSTORE PUSH2 0xADC DUP2 DUP11 DUP13 PUSH2 0x8D2 JUMP JUMPDEST SWAP1 POP DUP2 DUP2 SUB PUSH1 0x20 DUP4 ADD MSTORE PUSH2 0xAF1 DUP2 DUP9 DUP11 PUSH2 0x8D2 JUMP JUMPDEST SWAP1 POP DUP2 DUP2 SUB PUSH1 0x40 DUP4 ADD MSTORE PUSH2 0xB06 DUP2 DUP7 DUP9 PUSH2 0x8D2 JUMP JUMPDEST SWAP1 POP DUP2 DUP2 SUB PUSH1 0x60 DUP4 ADD MSTORE PUSH2 0xB1B DUP2 DUP5 DUP7 PUSH2 0xA4B JUMP JUMPDEST SWAP1 POP SWAP10 SWAP9 POP POP POP POP POP POP POP POP POP JUMP JUMPDEST PUSH32 0x4E487B7100000000000000000000000000000000000000000000000000000000 PUSH1 0x0 MSTORE PUSH1 0x32 PUSH1 0x4 MSTORE PUSH1 0x24 PUSH1 0x0 REVERT JUMPDEST PUSH1 0x0 DUP1 REVERT JUMPDEST PUSH1 0x0 DUP1 REVERT JUMPDEST PUSH1 0x0 DUP1 REVERT JUMPDEST PUSH1 0x0 DUP1 DUP4 CALLDATALOAD PUSH1 0x1 PUSH1 0x20 SUB DUP5 CALLDATASIZE SUB SUB DUP2 SLT PUSH2 0xB85 JUMPI PUSH2 0xB84 PUSH2 0xB59 JUMP JUMPDEST JUMPDEST DUP1 DUP5 ADD SWAP3 POP DUP3 CALLDATALOAD SWAP2 POP PUSH8 0xFFFFFFFFFFFFFFFF DUP3 GT ISZERO PUSH2 0xBA7 JUMPI PUSH2 0xBA6 PUSH2 0xB5E JUMP JUMPDEST JUMPDEST PUSH1 0x20 DUP4 ADD SWAP3 POP PUSH1 0x20 DUP3 MUL CALLDATASIZE SUB DUP4 SGT ISZERO PUSH2 0xBC3 JUMPI PUSH2 0xBC2 PUSH2 0xB63 JUMP JUMPDEST JUMPDEST POP SWAP3 POP SWAP3 SWAP1 POP JUMP INVALID LOG2 PUSH5 0x6970667358 0x22 SLT KECCAK256 JUMPDEST SHL PUSH12 0xE2B1D3CA07069ECE580B428E 0x2A STATICCALL DELEGATECALL XOR 0xC5 MULMOD DELEGATECALL PC MSTORE8 0xC SDIV COINBASE 0xDB TSTORE SHR 0xD7 0x2D PUSH5 0x736F6C6343 STOP ADDMOD XOR STOP CALLER "
        },
        "methodIdentifiers": {
          "current_position()": "4d56acd3",
          "getStates()": "d8ab8274",
          "submitScore(uint256[],uint256[],uint256[],uint256[][])": "0e5bc8d0",
          "total_steps()": "52de5f98",
          "verifier()": "2b7ac3f3",
          "verify(uint256[],uint256[],uint256[],uint256[][])": "ae022ccd"
        }
      }
    }
  }
}