{
  "_format": "hh-sol-artifact-1",
  "contractName": "GameContract",
  "sourceName": "contracts/GameContract.sol",
  "abi": [
    {
      "inputs": [
        {
          "internalType": "address",
          "name": "verifier_address",
          "type": "address"
        }
      ],
      "stateMutability": "nonpayable",
      "type": "constructor"
    },
    {
      "anonymous": false,
      "inputs": [
        {
          "indexed": false,
          "internalType": "uint64",
          "name": "previous_total_steps",
          "type": "uint64"
        },
        {
          "indexed": false,
          "internalType": "uint64",
          "name": "previous_position",
          "type": "uint64"
        },
        {
          "indexed": false,
          "internalType": "uint64",
          "name": "total_steps",
          "type": "uint64"
        },
        {
          "indexed": false,
          "internalType": "uint64",
          "name": "current_position",
          "type": "uint64"
        }
      ],
      "name": "UpdateState",
      "type": "event"
    },
    {
      "anonymous": false,
      "inputs": [
        {
          "indexed": true,
          "internalType": "address",
          "name": "sender",
          "type": "address"
        }
      ],
      "name": "VerificationSucceeded",
      "type": "event"
    },
    {
      "inputs": [
        {
          "internalType": "uint64",
          "name": "_total_steps",
          "type": "uint64"
        },
        {
          "internalType": "uint64",
          "name": "_current_position",
          "type": "uint64"
        }
      ],
      "name": "DEV_ONLY_setStates",
      "outputs": [],
      "stateMutability": "nonpayable",
      "type": "function"
    },
    {
      "inputs": [],
      "name": "current_position",
      "outputs": [
        {
          "internalType": "uint64",
          "name": "",
          "type": "uint64"
        }
      ],
      "stateMutability": "view",
      "type": "function"
    },
    {
      "inputs": [],
      "name": "getStates",
      "outputs": [
        {
          "internalType": "uint64",
          "name": "",
          "type": "uint64"
        },
        {
          "internalType": "uint64",
          "name": "",
          "type": "uint64"
        }
      ],
      "stateMutability": "view",
      "type": "function"
    },
    {
      "inputs": [],
      "name": "owner",
      "outputs": [
        {
          "internalType": "address",
          "name": "",
          "type": "address"
        }
      ],
      "stateMutability": "view",
      "type": "function"
    },
    {
      "inputs": [
        {
          "internalType": "address",
          "name": "new_owner",
          "type": "address"
        }
      ],
      "name": "setOwner",
      "outputs": [],
      "stateMutability": "nonpayable",
      "type": "function"
    },
    {
      "inputs": [
        {
          "internalType": "address",
          "name": "verifier_address",
          "type": "address"
        }
      ],
      "name": "setVerifier",
      "outputs": [],
      "stateMutability": "nonpayable",
      "type": "function"
    },
    {
      "inputs": [
        {
          "internalType": "uint256[3]",
          "name": "commitments",
          "type": "uint256[3]"
        }
      ],
      "name": "setVerifierImageCommitments",
      "outputs": [],
      "stateMutability": "nonpayable",
      "type": "function"
    },
    {
      "inputs": [
        {
          "internalType": "uint256[]",
          "name": "proof",
          "type": "uint256[]"
        },
        {
          "internalType": "uint256[]",
          "name": "verify_instance",
          "type": "uint256[]"
        },
        {
          "internalType": "uint256[]",
          "name": "aux",
          "type": "uint256[]"
        },
        {
          "internalType": "uint256[][]",
          "name": "instances",
          "type": "uint256[][]"
        }
      ],
      "name": "settleProof",
      "outputs": [],
      "stateMutability": "nonpayable",
      "type": "function"
    },
    {
      "inputs": [],
      "name": "total_steps",
      "outputs": [
        {
          "internalType": "uint64",
          "name": "",
          "type": "uint64"
        }
      ],
      "stateMutability": "view",
      "type": "function"
    },
    {
      "inputs": [],
      "name": "verifier",
      "outputs": [
        {
          "internalType": "address",
          "name": "",
          "type": "address"
        }
      ],
      "stateMutability": "view",
      "type": "function"
    },
    {
      "inputs": [
        {
          "internalType": "uint256",
          "name": "",
          "type": "uint256"
        }
      ],
      "name": "zk_image_commitments",
      "outputs": [
        {
          "internalType": "uint256",
          "name": "",
          "type": "uint256"
        }
      ],
      "stateMutability": "view",
      "type": "function"
    }
  ],
  "bytecode": "0x60806040523480156200001157600080fd5b50604051620016fe380380620016fe83398181016040528101906200003791906200012b565b8033600160006101000a81548173ffffffffffffffffffffffffffffffffffffffff021916908373ffffffffffffffffffffffffffffffffffffffff160217905550806000806101000a81548173ffffffffffffffffffffffffffffffffffffffff021916908373ffffffffffffffffffffffffffffffffffffffff16021790555050506200015d565b600080fd5b600073ffffffffffffffffffffffffffffffffffffffff82169050919050565b6000620000f382620000c6565b9050919050565b6200010581620000e6565b81146200011157600080fd5b50565b6000815190506200012581620000fa565b92915050565b600060208284031215620001445762000143620000c1565b5b6000620001548482850162000114565b91505092915050565b611591806200016d6000396000f3fe608060405234801561001057600080fd5b50600436106100a95760003560e01c8063560bfc7e11610071578063560bfc7e14610140578063769837a11461015c5780638c1336ec146101785780638da5cb5b146101a8578063b6e9a4fd146101c6578063d8ab8274146101e2576100a9565b806313af4035146100ae5780632b7ac3f3146100ca5780634d56acd3146100e857806352de5f98146101065780635437988d14610124575b600080fd5b6100c860048036038101906100c39190610c01565b610201565b005b6100d26102d5565b6040516100df9190610c3d565b60405180910390f35b6100f06102f9565b6040516100fd9190610c7b565b60405180910390f35b61010e610313565b60405161011b9190610c7b565b60405180910390f35b61013e60048036038101906101399190610c01565b61032d565b005b61015a60048036038101906101559190610cbd565b610400565b005b61017660048036038101906101719190610da0565b61052b565b005b610192600480360381019061018d9190610ebf565b61078d565b60405161019f9190610efb565b60405180910390f35b6101b06107a8565b6040516101bd9190610c3d565b60405180910390f35b6101e060048036038101906101db9190610f42565b6107d2565b005b6101ea6108b8565b6040516101f8929190610f82565b60405180910390f35b600160009054906101000a900473ffffffffffffffffffffffffffffffffffffffff1673ffffffffffffffffffffffffffffffffffffffff163373ffffffffffffffffffffffffffffffffffffffff1614610291576040517f08c379a00000000000000000000000000000000000000000000000000000000081526004016102889061102e565b60405180910390fd5b80600160006101000a81548173ffffffffffffffffffffffffffffffffffffffff021916908373ffffffffffffffffffffffffffffffffffffffff16021790555050565b60008054906101000a900473ffffffffffffffffffffffffffffffffffffffff1681565b600560089054906101000a900467ffffffffffffffff1681565b600560009054906101000a900467ffffffffffffffff1681565b600160009054906101000a900473ffffffffffffffffffffffffffffffffffffffff1673ffffffffffffffffffffffffffffffffffffffff163373ffffffffffffffffffffffffffffffffffffffff16146103bd576040517f08c379a00000000000000000000000000000000000000000000000000000000081526004016103b49061102e565b60405180910390fd5b806000806101000a81548173ffffffffffffffffffffffffffffffffffffffff021916908373ffffffffffffffffffffffffffffffffffffffff16021790555050565b600160009054906101000a900473ffffffffffffffffffffffffffffffffffffffff1673ffffffffffffffffffffffffffffffffffffffff163373ffffffffffffffffffffffffffffffffffffffff1614610490576040517f08c379a00000000000000000000000000000000000000000000000000000000081526004016104879061102e565b60405180910390fd5b806000600381106104a4576104a361104e565b5b602002013560026000600381106104be576104bd61104e565b5b0181905550806001600381106104d7576104d661104e565b5b602002013560026001600381106104f1576104f061104e565b5b01819055508060026003811061050a5761050961104e565b5b6020020135600280600381106105235761052261104e565b5b018190555050565b600060026000600381106105425761054161104e565b5b01541461069f57600260006003811061055e5761055d61104e565b5b0154868660018181106105745761057361104e565b5b90506020020135146105bb576040517f08c379a00000000000000000000000000000000000000000000000000000000081526004016105b2906110c9565b60405180910390fd5b60026001600381106105d0576105cf61104e565b5b0154868660028181106105e6576105e561104e565b5b905060200201351461062d576040517f08c379a000000000000000000000000000000000000000000000000000000000815260040161062490611135565b60405180910390fd5b600280600381106106415761064061104e565b5b0154868660038181106106575761065661104e565b5b905060200201351461069e576040517f08c379a0000000000000000000000000000000000000000000000000000000008152600401610695906111a1565b60405180910390fd5b5b60008054906101000a900473ffffffffffffffffffffffffffffffffffffffff1673ffffffffffffffffffffffffffffffffffffffff1663ae022ccd89898989898989896040518963ffffffff1660e01b81526004016107069897969594939291906113cf565b60006040518083038186803b15801561071e57600080fd5b505afa158015610732573d6000803e3d6000fd5b505050503373ffffffffffffffffffffffffffffffffffffffff167f9508ee0b8ce58138ead5f169fde353bda2e3991ea16a8aa21e626fb211a3f2ef60405160405180910390a261078382826108f1565b5050505050505050565b6002816003811061079d57600080fd5b016000915090505481565b6000600160009054906101000a900473ffffffffffffffffffffffffffffffffffffffff16905090565b600160009054906101000a900473ffffffffffffffffffffffffffffffffffffffff1673ffffffffffffffffffffffffffffffffffffffff163373ffffffffffffffffffffffffffffffffffffffff1614610862576040517f08c379a00000000000000000000000000000000000000000000000000000000081526004016108599061102e565b60405180910390fd5b81600560006101000a81548167ffffffffffffffff021916908367ffffffffffffffff16021790555080600560086101000a81548167ffffffffffffffff021916908367ffffffffffffffff1602179055505050565b600080600560009054906101000a900467ffffffffffffffff16600560089054906101000a900467ffffffffffffffff16915091509091565b60006040518060400160405280848460008181106109125761091161104e565b5b90506020028101906109249190611447565b60008181106109365761093561104e565b5b9050602002013567ffffffffffffffff168152602001848460008181106109605761095f61104e565b5b90506020028101906109729190611447565b60018181106109845761098361104e565b5b9050602002013567ffffffffffffffff16815250905060006040518060400160405280858560008181106109bb576109ba61104e565b5b90506020028101906109cd9190611447565b60028181106109df576109de61104e565b5b9050602002013567ffffffffffffffff16815260200185856000818110610a0957610a0861104e565b5b9050602002810190610a1b9190611447565b6003818110610a2d57610a2c61104e565b5b9050602002013567ffffffffffffffff168152509050600560009054906101000a900467ffffffffffffffff1667ffffffffffffffff16826000015167ffffffffffffffff16148015610aad5750600560089054906101000a900467ffffffffffffffff1667ffffffffffffffff16826020015167ffffffffffffffff16145b610aec576040517f08c379a0000000000000000000000000000000000000000000000000000000008152600401610ae3906114f6565b60405180910390fd5b8060000151600560006101000a81548167ffffffffffffffff021916908367ffffffffffffffff1602179055508060200151600560086101000a81548167ffffffffffffffff021916908367ffffffffffffffff1602179055507f7aee085ce8e2eda4fac2a988081f6a26fe0adeca01c75bde1c5dbc3ca91063de8260000151836020015183600001518460200151604051610b8b9493929190611516565b60405180910390a150505050565b600080fd5b600080fd5b600073ffffffffffffffffffffffffffffffffffffffff82169050919050565b6000610bce82610ba3565b9050919050565b610bde81610bc3565b8114610be957600080fd5b50565b600081359050610bfb81610bd5565b92915050565b600060208284031215610c1757610c16610b99565b5b6000610c2584828501610bec565b91505092915050565b610c3781610bc3565b82525050565b6000602082019050610c526000830184610c2e565b92915050565b600067ffffffffffffffff82169050919050565b610c7581610c58565b82525050565b6000602082019050610c906000830184610c6c565b92915050565b600080fd5b600081905082602060030282011115610cb757610cb6610c96565b5b92915050565b600060608284031215610cd357610cd2610b99565b5b6000610ce184828501610c9b565b91505092915050565b600080fd5b600080fd5b60008083601f840112610d0a57610d09610cea565b5b8235905067ffffffffffffffff811115610d2757610d26610cef565b5b602083019150836020820283011115610d4357610d42610c96565b5b9250929050565b60008083601f840112610d6057610d5f610cea565b5b8235905067ffffffffffffffff811115610d7d57610d7c610cef565b5b602083019150836020820283011115610d9957610d98610c96565b5b9250929050565b6000806000806000806000806080898b031215610dc057610dbf610b99565b5b600089013567ffffffffffffffff811115610dde57610ddd610b9e565b5b610dea8b828c01610cf4565b9850985050602089013567ffffffffffffffff811115610e0d57610e0c610b9e565b5b610e198b828c01610cf4565b9650965050604089013567ffffffffffffffff811115610e3c57610e3b610b9e565b5b610e488b828c01610cf4565b9450945050606089013567ffffffffffffffff811115610e6b57610e6a610b9e565b5b610e778b828c01610d4a565b92509250509295985092959890939650565b6000819050919050565b610e9c81610e89565b8114610ea757600080fd5b50565b600081359050610eb981610e93565b92915050565b600060208284031215610ed557610ed4610b99565b5b6000610ee384828501610eaa565b91505092915050565b610ef581610e89565b82525050565b6000602082019050610f106000830184610eec565b92915050565b610f1f81610c58565b8114610f2a57600080fd5b50565b600081359050610f3c81610f16565b92915050565b60008060408385031215610f5957610f58610b99565b5b6000610f6785828601610f2d565b9250506020610f7885828601610f2d565b9150509250929050565b6000604082019050610f976000830185610c6c565b610fa46020830184610c6c565b9392505050565b600082825260208201905092915050565b7f4f6e6c79206f776e65722063616e2063616c6c20746869732066756e6374696f60008201527f6e00000000000000000000000000000000000000000000000000000000000000602082015250565b6000611018602183610fab565b915061102382610fbc565b604082019050919050565b600060208201905081810360008301526110478161100b565b9050919050565b7f4e487b7100000000000000000000000000000000000000000000000000000000600052603260045260246000fd5b7f496e76616c696420696d61676520636f6d6d69746d656e742030000000000000600082015250565b60006110b3601a83610fab565b91506110be8261107d565b602082019050919050565b600060208201905081810360008301526110e2816110a6565b9050919050565b7f496e76616c696420696d61676520636f6d6d69746d656e742031000000000000600082015250565b600061111f601a83610fab565b915061112a826110e9565b602082019050919050565b6000602082019050818103600083015261114e81611112565b9050919050565b7f496e76616c696420696d61676520636f6d6d69746d656e742032000000000000600082015250565b600061118b601a83610fab565b915061119682611155565b602082019050919050565b600060208201905081810360008301526111ba8161117e565b9050919050565b600082825260208201905092915050565b600080fd5b82818337505050565b60006111ec83856111c1565b93507f07ffffffffffffffffffffffffffffffffffffffffffffffffffffffffffffff83111561121f5761121e6111d2565b5b6020830292506112308385846111d7565b82840190509392505050565b600082825260208201905092915050565b6000819050919050565b600082825260208201905092915050565b60006112748385611257565b93507f07ffffffffffffffffffffffffffffffffffffffffffffffffffffffffffffff8311156112a7576112a66111d2565b5b6020830292506112b88385846111d7565b82840190509392505050565b60006112d1848484611268565b90509392505050565b600080fd5b600080fd5b600080fd5b60008083356001602003843603038112611306576113056112e4565b5b83810192508235915060208301925067ffffffffffffffff82111561132e5761132d6112da565b5b602082023603831315611344576113436112df565b5b509250929050565b6000602082019050919050565b6000611365838561123c565b9350836020840285016113778461124d565b8060005b878110156113bd57848403895261139282846112e9565b61139d8682846112c4565b95506113a88461134c565b935060208b019a50505060018101905061137b565b50829750879450505050509392505050565b600060808201905081810360008301526113ea818a8c6111e0565b905081810360208301526113ff81888a6111e0565b905081810360408301526114148186886111e0565b90508181036060830152611429818486611359565b90509998505050505050505050565b600080fd5b600080fd5b600080fd5b6000808335600160200384360303811261146457611463611438565b5b80840192508235915067ffffffffffffffff8211156114865761148561143d565b5b6020830192506020820236038313156114a2576114a1611442565b5b509250929050565b7f496e76616c696420737461727420737461746500000000000000000000000000600082015250565b60006114e0601383610fab565b91506114eb826114aa565b602082019050919050565b6000602082019050818103600083015261150f816114d3565b9050919050565b600060808201905061152b6000830187610c6c565b6115386020830186610c6c565b6115456040830185610c6c565b6115526060830184610c6c565b9594505050505056fea2646970667358221220d566a742be38209a8c9b9c6cb6ddc2672be6d01b89028f69e4d60a46fd74f11d64736f6c63430008180033",
  "linkReferences": {},
  "deployedLinkReferences": {}
}