{
  "_format": "hh-sol-artifact-1",
  "contractName": "GameContract",
  "sourceName": "contracts/GameContract.sol",
  "abi": [
    {
      "inputs": [
        {
          "internalType": "address",
          "name": "verifier_address",
          "type": "address"
        }
      ],
      "stateMutability": "nonpayable",
      "type": "constructor"
    },
    {
      "anonymous": false,
      "inputs": [
        {
          "indexed": false,
          "internalType": "uint64",
          "name": "previous_total_steps",
          "type": "uint64"
        },
        {
          "indexed": false,
          "internalType": "uint64",
          "name": "previos_position",
          "type": "uint64"
        },
        {
          "indexed": false,
          "internalType": "uint64",
          "name": "total_steps",
          "type": "uint64"
        },
        {
          "indexed": false,
          "internalType": "uint64",
          "name": "current_position",
          "type": "uint64"
        }
      ],
      "name": "UpdateState",
      "type": "event"
    },
    {
      "anonymous": false,
      "inputs": [
        {
          "indexed": true,
          "internalType": "address",
          "name": "sender",
          "type": "address"
        }
      ],
      "name": "VerificationSucceeded",
      "type": "event"
    },
    {
      "inputs": [],
      "name": "current_position",
      "outputs": [
        {
          "internalType": "uint64",
          "name": "",
          "type": "uint64"
        }
      ],
      "stateMutability": "view",
      "type": "function"
    },
    {
      "inputs": [],
      "name": "getStates",
      "outputs": [
        {
          "internalType": "uint64",
          "name": "",
          "type": "uint64"
        },
        {
          "internalType": "uint64",
          "name": "",
          "type": "uint64"
        }
      ],
      "stateMutability": "view",
      "type": "function"
    },
    {
      "inputs": [
        {
          "internalType": "uint256[]",
          "name": "proof",
          "type": "uint256[]"
        },
        {
          "internalType": "uint256[]",
          "name": "verify_instance",
          "type": "uint256[]"
        },
        {
          "internalType": "uint256[]",
          "name": "aux",
          "type": "uint256[]"
        },
        {
          "internalType": "uint256[][]",
          "name": "instances",
          "type": "uint256[][]"
        }
      ],
      "name": "submitScore",
      "outputs": [],
      "stateMutability": "nonpayable",
      "type": "function"
    },
    {
      "inputs": [],
      "name": "total_steps",
      "outputs": [
        {
          "internalType": "uint64",
          "name": "",
          "type": "uint64"
        }
      ],
      "stateMutability": "view",
      "type": "function"
    },
    {
      "inputs": [],
      "name": "verifier",
      "outputs": [
        {
          "internalType": "contract IZKVerifier",
          "name": "",
          "type": "address"
        }
      ],
      "stateMutability": "view",
      "type": "function"
    },
    {
      "inputs": [
        {
          "internalType": "uint256[]",
          "name": "proof",
          "type": "uint256[]"
        },
        {
          "internalType": "uint256[]",
          "name": "verify_instance",
          "type": "uint256[]"
        },
        {
          "internalType": "uint256[]",
          "name": "aux",
          "type": "uint256[]"
        },
        {
          "internalType": "uint256[][]",
          "name": "instances",
          "type": "uint256[][]"
        }
      ],
      "name": "verify",
      "outputs": [
        {
          "components": [
            {
              "internalType": "uint64",
              "name": "total_steps",
              "type": "uint64"
            },
            {
              "internalType": "uint64",
              "name": "position",
              "type": "uint64"
            }
          ],
          "internalType": "struct GameContract.ZKInput",
          "name": "zk_input",
          "type": "tuple"
        },
        {
          "components": [
            {
              "internalType": "uint64",
              "name": "total_steps",
              "type": "uint64"
            },
            {
              "internalType": "uint64",
              "name": "position",
              "type": "uint64"
            }
          ],
          "internalType": "struct GameContract.ZKOutput",
          "name": "zk_output",
          "type": "tuple"
        }
      ],
      "stateMutability": "nonpayable",
      "type": "function"
    }
  ],
  "bytecode": "0x608060405234801561001057600080fd5b50604051610d18380380610d18833981810160405281019061003291906100db565b806000806101000a81548173ffffffffffffffffffffffffffffffffffffffff021916908373ffffffffffffffffffffffffffffffffffffffff16021790555050610108565b600080fd5b600073ffffffffffffffffffffffffffffffffffffffff82169050919050565b60006100a88261007d565b9050919050565b6100b88161009d565b81146100c357600080fd5b50565b6000815190506100d5816100af565b92915050565b6000602082840312156100f1576100f0610078565b5b60006100ff848285016100c6565b91505092915050565b610c01806101176000396000f3fe608060405234801561001057600080fd5b50600436106100625760003560e01c80630e5bc8d0146100675780632b7ac3f3146100835780634d56acd3146100a157806352de5f98146100bf578063ae022ccd146100dd578063d8ab82741461010e575b600080fd5b610081600480360381019061007c91906105ee565b61012d565b005b61008b6101f7565b6040516100989190610756565b60405180910390f35b6100a961021b565b6040516100b69190610794565b60405180910390f35b6100c7610235565b6040516100d49190610794565b60405180910390f35b6100f760048036038101906100f291906105ee565b61024f565b60405161010592919061081c565b60405180910390f35b610116610494565b604051610124929190610845565b60405180910390f35b6000806101408a8a8a8a8a8a8a8a61024f565b915091508060000151600060146101000a81548167ffffffffffffffff021916908367ffffffffffffffff1602179055508060200151600160006101000a81548167ffffffffffffffff021916908367ffffffffffffffff1602179055507f7aee085ce8e2eda4fac2a988081f6a26fe0adeca01c75bde1c5dbc3ca91063de82600001518360200151836000015184602001516040516101e3949392919061086e565b60405180910390a150505050505050505050565b60008054906101000a900473ffffffffffffffffffffffffffffffffffffffff1681565b600160009054906101000a900467ffffffffffffffff1681565b600060149054906101000a900467ffffffffffffffff1681565b6102576104cd565b61025f6104fb565b60008054906101000a900473ffffffffffffffffffffffffffffffffffffffff1673ffffffffffffffffffffffffffffffffffffffff1663ae022ccd8b8b8b8b8b8b8b8b6040518963ffffffff1660e01b81526004016102c6989796959493929190610ac1565b60006040518083038186803b1580156102de57600080fd5b505afa1580156102f2573d6000803e3d6000fd5b5050505060405180604001604052808585600081811061031557610314610b2a565b5b90506020028101906103279190610b68565b600081811061033957610338610b2a565b5b9050602002013567ffffffffffffffff1681526020018585600081811061036357610362610b2a565b5b90506020028101906103759190610b68565b600181811061038757610386610b2a565b5b9050602002013567ffffffffffffffff1681525091506040518060400160405280858560008181106103bc576103bb610b2a565b5b90506020028101906103ce9190610b68565b60028181106103e0576103df610b2a565b5b9050602002013567ffffffffffffffff1681526020018585600081811061040a57610409610b2a565b5b905060200281019061041c9190610b68565b600381811061042e5761042d610b2a565b5b9050602002013567ffffffffffffffff1681525090503373ffffffffffffffffffffffffffffffffffffffff167f9508ee0b8ce58138ead5f169fde353bda2e3991ea16a8aa21e626fb211a3f2ef60405160405180910390a29850989650505050505050565b600080600060149054906101000a900467ffffffffffffffff16600160009054906101000a900467ffffffffffffffff16915091509091565b6040518060400160405280600067ffffffffffffffff168152602001600067ffffffffffffffff1681525090565b6040518060400160405280600067ffffffffffffffff168152602001600067ffffffffffffffff1681525090565b600080fd5b600080fd5b600080fd5b600080fd5b600080fd5b60008083601f84011261055857610557610533565b5b8235905067ffffffffffffffff81111561057557610574610538565b5b6020830191508360208202830111156105915761059061053d565b5b9250929050565b60008083601f8401126105ae576105ad610533565b5b8235905067ffffffffffffffff8111156105cb576105ca610538565b5b6020830191508360208202830111156105e7576105e661053d565b5b9250929050565b6000806000806000806000806080898b03121561060e5761060d610529565b5b600089013567ffffffffffffffff81111561062c5761062b61052e565b5b6106388b828c01610542565b9850985050602089013567ffffffffffffffff81111561065b5761065a61052e565b5b6106678b828c01610542565b9650965050604089013567ffffffffffffffff81111561068a5761068961052e565b5b6106968b828c01610542565b9450945050606089013567ffffffffffffffff8111156106b9576106b861052e565b5b6106c58b828c01610598565b92509250509295985092959890939650565b600073ffffffffffffffffffffffffffffffffffffffff82169050919050565b6000819050919050565b600061071c610717610712846106d7565b6106f7565b6106d7565b9050919050565b600061072e82610701565b9050919050565b600061074082610723565b9050919050565b61075081610735565b82525050565b600060208201905061076b6000830184610747565b92915050565b600067ffffffffffffffff82169050919050565b61078e81610771565b82525050565b60006020820190506107a96000830184610785565b92915050565b6107b881610771565b82525050565b6040820160008201516107d460008501826107af565b5060208201516107e760208501826107af565b50505050565b60408201600082015161080360008501826107af565b50602082015161081660208501826107af565b50505050565b600060808201905061083160008301856107be565b61083e60408301846107ed565b9392505050565b600060408201905061085a6000830185610785565b6108676020830184610785565b9392505050565b60006080820190506108836000830187610785565b6108906020830186610785565b61089d6040830185610785565b6108aa6060830184610785565b95945050505050565b600082825260208201905092915050565b600080fd5b82818337505050565b60006108de83856108b3565b93507f07ffffffffffffffffffffffffffffffffffffffffffffffffffffffffffffff831115610911576109106108c4565b5b6020830292506109228385846108c9565b82840190509392505050565b600082825260208201905092915050565b6000819050919050565b600082825260208201905092915050565b60006109668385610949565b93507f07ffffffffffffffffffffffffffffffffffffffffffffffffffffffffffffff831115610999576109986108c4565b5b6020830292506109aa8385846108c9565b82840190509392505050565b60006109c384848461095a565b90509392505050565b600080fd5b600080fd5b600080fd5b600080833560016020038436030381126109f8576109f76109d6565b5b83810192508235915060208301925067ffffffffffffffff821115610a2057610a1f6109cc565b5b602082023603831315610a3657610a356109d1565b5b509250929050565b6000602082019050919050565b6000610a57838561092e565b935083602084028501610a698461093f565b8060005b87811015610aaf578484038952610a8482846109db565b610a8f8682846109b6565b9550610a9a84610a3e565b935060208b019a505050600181019050610a6d565b50829750879450505050509392505050565b60006080820190508181036000830152610adc818a8c6108d2565b90508181036020830152610af181888a6108d2565b90508181036040830152610b068186886108d2565b90508181036060830152610b1b818486610a4b565b90509998505050505050505050565b7f4e487b7100000000000000000000000000000000000000000000000000000000600052603260045260246000fd5b600080fd5b600080fd5b600080fd5b60008083356001602003843603038112610b8557610b84610b59565b5b80840192508235915067ffffffffffffffff821115610ba757610ba6610b5e565b5b602083019250602082023603831315610bc357610bc2610b63565b5b50925092905056fea26469706673582212205b1b6be2b1d3ca07069ece580b428e2afaf418c509f458530c0541db5d1cd72d64736f6c63430008180033",
  "linkReferences": {},
  "deployedLinkReferences": {}
}