{
  "contracts/DummyContract.sol": {
    "DummyContract": {
      "abi": [
        {
          "inputs": [
            {
              "internalType": "address",
              "name": "verifier_address",
              "type": "address"
            }
          ],
          "stateMutability": "nonpayable",
          "type": "constructor"
        },
        {
          "anonymous": false,
          "inputs": [
            {
              "indexed": false,
              "internalType": "uint256",
              "name": "fib0",
              "type": "uint256"
            },
            {
              "indexed": false,
              "internalType": "uint256",
              "name": "fib1",
              "type": "uint256"
            }
          ],
          "name": "UpdateState",
          "type": "event"
        },
        {
          "anonymous": false,
          "inputs": [
            {
              "indexed": true,
              "internalType": "address",
              "name": "player_address",
              "type": "address"
            }
          ],
          "name": "VerificationSucceeded",
          "type": "event"
        },
        {
          "inputs": [
            {
              "internalType": "uint256[]",
              "name": "proof",
              "type": "uint256[]"
            },
            {
              "internalType": "uint256[]",
              "name": "verify_instance",
              "type": "uint256[]"
            },
            {
              "internalType": "uint256[]",
              "name": "aux",
              "type": "uint256[]"
            },
            {
              "internalType": "uint256[][]",
              "name": "instances",
              "type": "uint256[][]"
            }
          ],
          "name": "submitScore",
          "outputs": [],
          "stateMutability": "nonpayable",
          "type": "function"
        },
        {
          "inputs": [],
          "name": "verifier",
          "outputs": [
            {
              "internalType": "contract IDelphinusVerifier",
              "name": "",
              "type": "address"
            }
          ],
          "stateMutability": "view",
          "type": "function"
        },
        {
          "inputs": [
            {
              "internalType": "uint256[]",
              "name": "proof",
              "type": "uint256[]"
            },
            {
              "internalType": "uint256[]",
              "name": "verify_instance",
              "type": "uint256[]"
            },
            {
              "internalType": "uint256[]",
              "name": "aux",
              "type": "uint256[]"
            },
            {
              "internalType": "uint256[][]",
              "name": "instances",
              "type": "uint256[][]"
            }
          ],
          "name": "verify",
          "outputs": [
            {
              "internalType": "uint256",
              "name": "fib0",
              "type": "uint256"
            },
            {
              "internalType": "uint256",
              "name": "fib1",
              "type": "uint256"
            }
          ],
          "stateMutability": "nonpayable",
          "type": "function"
        }
      ],
      "evm": {
        "bytecode": {
          "linkReferences": {},
          "object": "608060405234801561001057600080fd5b50604051610c5f380380610c5f833981810160405281019061003291906100db565b806000806101000a81548173ffffffffffffffffffffffffffffffffffffffff021916908373ffffffffffffffffffffffffffffffffffffffff16021790555050610108565b600080fd5b600073ffffffffffffffffffffffffffffffffffffffff82169050919050565b60006100a88261007d565b9050919050565b6100b88161009d565b81146100c357600080fd5b50565b6000815190506100d5816100af565b92915050565b6000602082840312156100f1576100f0610078565b5b60006100ff848285016100c6565b91505092915050565b610b48806101176000396000f3fe608060405234801561001057600080fd5b50600436106100415760003560e01c80630e5bc8d0146100465780632b7ac3f314610062578063ae022ccd14610080575b600080fd5b610060600480360381019061005b9190610547565b6100b1565b005b61006a61010d565b60405161007791906106af565b60405180910390f35b61009a60048036038101906100959190610547565b610131565b6040516100a89291906106e3565b60405180910390f35b6000806100c48a8a8a8a8a8a8a8a610131565b915091507fecb087a34e164257c16319431a21cb2c4fcd9be7140eab666eef646dad11da5a82826040516100f99291906106e3565b60405180910390a150505050505050505050565b60008054906101000a900473ffffffffffffffffffffffffffffffffffffffff1681565b60008060008054906101000a900473ffffffffffffffffffffffffffffffffffffffff1673ffffffffffffffffffffffffffffffffffffffff1663ae022ccd8b8b8b8b8b8b8b8b6040518963ffffffff1660e01b815260040161019b98979695949392919061091a565b60006040518083038186803b1580156101b357600080fd5b505afa1580156101c7573d6000803e3d6000fd5b50505050838360008181106101df576101de610983565b5b90506020028101906101f191906109c1565b600381811061020357610202610983565b5b905060200201359150838360008181106102205761021f610983565b5b905060200281019061023291906109c1565b600481811061024457610243610983565b5b90506020020135905060006102968585600081811061026657610265610983565b5b905060200281019061027891906109c1565b600081811061028a57610289610983565b5b90506020020135610429565b905060006102e1868660008181106102b1576102b0610983565b5b90506020028101906102c391906109c1565b60018181106102d5576102d4610983565b5b90506020020135610429565b9050600061032c878760008181106102fc576102fb610983565b5b905060200281019061030e91906109c1565b60028181106103205761031f610983565b5b90506020020135610429565b9050600060208267ffffffffffffffff16901c60208467ffffffffffffffff16901b60608667ffffffffffffffff16901b1717905060008190503373ffffffffffffffffffffffffffffffffffffffff168173ffffffffffffffffffffffffffffffffffffffff16146103d4576040517f08c379a00000000000000000000000000000000000000000000000000000000081526004016103cb90610a81565b60405180910390fd5b8073ffffffffffffffffffffffffffffffffffffffff167f9508ee0b8ce58138ead5f169fde353bda2e3991ea16a8aa21e626fb211a3f2ef60405160405180910390a250505050509850989650505050505050565b6000806000905060005b60088110156104785760ff81600861044b9190610ad0565b8567ffffffffffffffff16901c1660088367ffffffffffffffff16901b1791508080600101915050610433565b5080915050919050565b600080fd5b600080fd5b600080fd5b600080fd5b600080fd5b60008083601f8401126104b1576104b061048c565b5b8235905067ffffffffffffffff8111156104ce576104cd610491565b5b6020830191508360208202830111156104ea576104e9610496565b5b9250929050565b60008083601f8401126105075761050661048c565b5b8235905067ffffffffffffffff81111561052457610523610491565b5b6020830191508360208202830111156105405761053f610496565b5b9250929050565b6000806000806000806000806080898b03121561056757610566610482565b5b600089013567ffffffffffffffff81111561058557610584610487565b5b6105918b828c0161049b565b9850985050602089013567ffffffffffffffff8111156105b4576105b3610487565b5b6105c08b828c0161049b565b9650965050604089013567ffffffffffffffff8111156105e3576105e2610487565b5b6105ef8b828c0161049b565b9450945050606089013567ffffffffffffffff81111561061257610611610487565b5b61061e8b828c016104f1565b92509250509295985092959890939650565b600073ffffffffffffffffffffffffffffffffffffffff82169050919050565b6000819050919050565b600061067561067061066b84610630565b610650565b610630565b9050919050565b60006106878261065a565b9050919050565b60006106998261067c565b9050919050565b6106a98161068e565b82525050565b60006020820190506106c460008301846106a0565b92915050565b6000819050919050565b6106dd816106ca565b82525050565b60006040820190506106f860008301856106d4565b61070560208301846106d4565b9392505050565b600082825260208201905092915050565b600080fd5b82818337505050565b6000610737838561070c565b93507f07ffffffffffffffffffffffffffffffffffffffffffffffffffffffffffffff83111561076a5761076961071d565b5b60208302925061077b838584610722565b82840190509392505050565b600082825260208201905092915050565b6000819050919050565b600082825260208201905092915050565b60006107bf83856107a2565b93507f07ffffffffffffffffffffffffffffffffffffffffffffffffffffffffffffff8311156107f2576107f161071d565b5b602083029250610803838584610722565b82840190509392505050565b600061081c8484846107b3565b90509392505050565b600080fd5b600080fd5b600080fd5b600080833560016020038436030381126108515761085061082f565b5b83810192508235915060208301925067ffffffffffffffff82111561087957610878610825565b5b60208202360383131561088f5761088e61082a565b5b509250929050565b6000602082019050919050565b60006108b08385610787565b9350836020840285016108c284610798565b8060005b878110156109085784840389526108dd8284610834565b6108e886828461080f565b95506108f384610897565b935060208b019a5050506001810190506108c6565b50829750879450505050509392505050565b60006080820190508181036000830152610935818a8c61072b565b9050818103602083015261094a81888a61072b565b9050818103604083015261095f81868861072b565b905081810360608301526109748184866108a4565b90509998505050505050505050565b7f4e487b7100000000000000000000000000000000000000000000000000000000600052603260045260246000fd5b600080fd5b600080fd5b600080fd5b600080833560016020038436030381126109de576109dd6109b2565b5b80840192508235915067ffffffffffffffff821115610a00576109ff6109b7565b5b602083019250602082023603831315610a1c57610a1b6109bc565b5b509250929050565b600082825260208201905092915050565b7f506c617965722061646472657373206d69736d61746368000000000000000000600082015250565b6000610a6b601783610a24565b9150610a7682610a35565b602082019050919050565b60006020820190508181036000830152610a9a81610a5e565b9050919050565b7f4e487b7100000000000000000000000000000000000000000000000000000000600052601160045260246000fd5b6000610adb826106ca565b9150610ae6836106ca565b9250828202610af4816106ca565b91508282048414831517610b0b57610b0a610aa1565b5b509291505056fea2646970667358221220cbc99bf0d4e28982e687bf77307af71d80713d41c76e0c94a0b2d13e851d512d64736f6c63430008180033",
          "opcodes": "PUSH1 0x80 PUSH1 0x40 MSTORE CALLVALUE DUP1 ISZERO PUSH2 0x10 JUMPI PUSH1 0x0 DUP1 REVERT JUMPDEST POP PUSH1 0x40 MLOAD PUSH2 0xC5F CODESIZE SUB DUP1 PUSH2 0xC5F DUP4 CODECOPY DUP2 DUP2 ADD PUSH1 0x40 MSTORE DUP2 ADD SWAP1 PUSH2 0x32 SWAP2 SWAP1 PUSH2 0xDB JUMP JUMPDEST DUP1 PUSH1 0x0 DUP1 PUSH2 0x100 EXP DUP2 SLOAD DUP2 PUSH20 0xFFFFFFFFFFFFFFFFFFFFFFFFFFFFFFFFFFFFFFFF MUL NOT AND SWAP1 DUP4 PUSH20 0xFFFFFFFFFFFFFFFFFFFFFFFFFFFFFFFFFFFFFFFF AND MUL OR SWAP1 SSTORE POP POP PUSH2 0x108 JUMP JUMPDEST PUSH1 0x0 DUP1 REVERT JUMPDEST PUSH1 0x0 PUSH20 0xFFFFFFFFFFFFFFFFFFFFFFFFFFFFFFFFFFFFFFFF DUP3 AND SWAP1 POP SWAP2 SWAP1 POP JUMP JUMPDEST PUSH1 0x0 PUSH2 0xA8 DUP3 PUSH2 0x7D JUMP JUMPDEST SWAP1 POP SWAP2 SWAP1 POP JUMP JUMPDEST PUSH2 0xB8 DUP2 PUSH2 0x9D JUMP JUMPDEST DUP2 EQ PUSH2 0xC3 JUMPI PUSH1 0x0 DUP1 REVERT JUMPDEST POP JUMP JUMPDEST PUSH1 0x0 DUP2 MLOAD SWAP1 POP PUSH2 0xD5 DUP2 PUSH2 0xAF JUMP JUMPDEST SWAP3 SWAP2 POP POP JUMP JUMPDEST PUSH1 0x0 PUSH1 0x20 DUP3 DUP5 SUB SLT ISZERO PUSH2 0xF1 JUMPI PUSH2 0xF0 PUSH2 0x78 JUMP JUMPDEST JUMPDEST PUSH1 0x0 PUSH2 0xFF DUP5 DUP3 DUP6 ADD PUSH2 0xC6 JUMP JUMPDEST SWAP2 POP POP SWAP3 SWAP2 POP POP JUMP JUMPDEST PUSH2 0xB48 DUP1 PUSH2 0x117 PUSH1 0x0 CODECOPY PUSH1 0x0 RETURN INVALID PUSH1 0x80 PUSH1 0x40 MSTORE CALLVALUE DUP1 ISZERO PUSH2 0x10 JUMPI PUSH1 0x0 DUP1 REVERT JUMPDEST POP PUSH1 0x4 CALLDATASIZE LT PUSH2 0x41 JUMPI PUSH1 0x0 CALLDATALOAD PUSH1 0xE0 SHR DUP1 PUSH4 0xE5BC8D0 EQ PUSH2 0x46 JUMPI DUP1 PUSH4 0x2B7AC3F3 EQ PUSH2 0x62 JUMPI DUP1 PUSH4 0xAE022CCD EQ PUSH2 0x80 JUMPI JUMPDEST PUSH1 0x0 DUP1 REVERT JUMPDEST PUSH2 0x60 PUSH1 0x4 DUP1 CALLDATASIZE SUB DUP2 ADD SWAP1 PUSH2 0x5B SWAP2 SWAP1 PUSH2 0x547 JUMP JUMPDEST PUSH2 0xB1 JUMP JUMPDEST STOP JUMPDEST PUSH2 0x6A PUSH2 0x10D JUMP JUMPDEST PUSH1 0x40 MLOAD PUSH2 0x77 SWAP2 SWAP1 PUSH2 0x6AF JUMP JUMPDEST PUSH1 0x40 MLOAD DUP1 SWAP2 SUB SWAP1 RETURN JUMPDEST PUSH2 0x9A PUSH1 0x4 DUP1 CALLDATASIZE SUB DUP2 ADD SWAP1 PUSH2 0x95 SWAP2 SWAP1 PUSH2 0x547 JUMP JUMPDEST PUSH2 0x131 JUMP JUMPDEST PUSH1 0x40 MLOAD PUSH2 0xA8 SWAP3 SWAP2 SWAP1 PUSH2 0x6E3 JUMP JUMPDEST PUSH1 0x40 MLOAD DUP1 SWAP2 SUB SWAP1 RETURN JUMPDEST PUSH1 0x0 DUP1 PUSH2 0xC4 DUP11 DUP11 DUP11 DUP11 DUP11 DUP11 DUP11 DUP11 PUSH2 0x131 JUMP JUMPDEST SWAP2 POP SWAP2 POP PUSH32 0xECB087A34E164257C16319431A21CB2C4FCD9BE7140EAB666EEF646DAD11DA5A DUP3 DUP3 PUSH1 0x40 MLOAD PUSH2 0xF9 SWAP3 SWAP2 SWAP1 PUSH2 0x6E3 JUMP JUMPDEST PUSH1 0x40 MLOAD DUP1 SWAP2 SUB SWAP1 LOG1 POP POP POP POP POP POP POP POP POP POP JUMP JUMPDEST PUSH1 0x0 DUP1 SLOAD SWAP1 PUSH2 0x100 EXP SWAP1 DIV PUSH20 0xFFFFFFFFFFFFFFFFFFFFFFFFFFFFFFFFFFFFFFFF AND DUP2 JUMP JUMPDEST PUSH1 0x0 DUP1 PUSH1 0x0 DUP1 SLOAD SWAP1 PUSH2 0x100 EXP SWAP1 DIV PUSH20 0xFFFFFFFFFFFFFFFFFFFFFFFFFFFFFFFFFFFFFFFF AND PUSH20 0xFFFFFFFFFFFFFFFFFFFFFFFFFFFFFFFFFFFFFFFF AND PUSH4 0xAE022CCD DUP12 DUP12 DUP12 DUP12 DUP12 DUP12 DUP12 DUP12 PUSH1 0x40 MLOAD DUP10 PUSH4 0xFFFFFFFF AND PUSH1 0xE0 SHL DUP2 MSTORE PUSH1 0x4 ADD PUSH2 0x19B SWAP9 SWAP8 SWAP7 SWAP6 SWAP5 SWAP4 SWAP3 SWAP2 SWAP1 PUSH2 0x91A JUMP JUMPDEST PUSH1 0x0 PUSH1 0x40 MLOAD DUP1 DUP4 SUB DUP2 DUP7 DUP1 EXTCODESIZE ISZERO DUP1 ISZERO PUSH2 0x1B3 JUMPI PUSH1 0x0 DUP1 REVERT JUMPDEST POP GAS STATICCALL ISZERO DUP1 ISZERO PUSH2 0x1C7 JUMPI RETURNDATASIZE PUSH1 0x0 DUP1 RETURNDATACOPY RETURNDATASIZE PUSH1 0x0 REVERT JUMPDEST POP POP POP POP DUP4 DUP4 PUSH1 0x0 DUP2 DUP2 LT PUSH2 0x1DF JUMPI PUSH2 0x1DE PUSH2 0x983 JUMP JUMPDEST JUMPDEST SWAP1 POP PUSH1 0x20 MUL DUP2 ADD SWAP1 PUSH2 0x1F1 SWAP2 SWAP1 PUSH2 0x9C1 JUMP JUMPDEST PUSH1 0x3 DUP2 DUP2 LT PUSH2 0x203 JUMPI PUSH2 0x202 PUSH2 0x983 JUMP JUMPDEST JUMPDEST SWAP1 POP PUSH1 0x20 MUL ADD CALLDATALOAD SWAP2 POP DUP4 DUP4 PUSH1 0x0 DUP2 DUP2 LT PUSH2 0x220 JUMPI PUSH2 0x21F PUSH2 0x983 JUMP JUMPDEST JUMPDEST SWAP1 POP PUSH1 0x20 MUL DUP2 ADD SWAP1 PUSH2 0x232 SWAP2 SWAP1 PUSH2 0x9C1 JUMP JUMPDEST PUSH1 0x4 DUP2 DUP2 LT PUSH2 0x244 JUMPI PUSH2 0x243 PUSH2 0x983 JUMP JUMPDEST JUMPDEST SWAP1 POP PUSH1 0x20 MUL ADD CALLDATALOAD SWAP1 POP PUSH1 0x0 PUSH2 0x296 DUP6 DUP6 PUSH1 0x0 DUP2 DUP2 LT PUSH2 0x266 JUMPI PUSH2 0x265 PUSH2 0x983 JUMP JUMPDEST JUMPDEST SWAP1 POP PUSH1 0x20 MUL DUP2 ADD SWAP1 PUSH2 0x278 SWAP2 SWAP1 PUSH2 0x9C1 JUMP JUMPDEST PUSH1 0x0 DUP2 DUP2 LT PUSH2 0x28A JUMPI PUSH2 0x289 PUSH2 0x983 JUMP JUMPDEST JUMPDEST SWAP1 POP PUSH1 0x20 MUL ADD CALLDATALOAD PUSH2 0x429 JUMP JUMPDEST SWAP1 POP PUSH1 0x0 PUSH2 0x2E1 DUP7 DUP7 PUSH1 0x0 DUP2 DUP2 LT PUSH2 0x2B1 JUMPI PUSH2 0x2B0 PUSH2 0x983 JUMP JUMPDEST JUMPDEST SWAP1 POP PUSH1 0x20 MUL DUP2 ADD SWAP1 PUSH2 0x2C3 SWAP2 SWAP1 PUSH2 0x9C1 JUMP JUMPDEST PUSH1 0x1 DUP2 DUP2 LT PUSH2 0x2D5 JUMPI PUSH2 0x2D4 PUSH2 0x983 JUMP JUMPDEST JUMPDEST SWAP1 POP PUSH1 0x20 MUL ADD CALLDATALOAD PUSH2 0x429 JUMP JUMPDEST SWAP1 POP PUSH1 0x0 PUSH2 0x32C DUP8 DUP8 PUSH1 0x0 DUP2 DUP2 LT PUSH2 0x2FC JUMPI PUSH2 0x2FB PUSH2 0x983 JUMP JUMPDEST JUMPDEST SWAP1 POP PUSH1 0x20 MUL DUP2 ADD SWAP1 PUSH2 0x30E SWAP2 SWAP1 PUSH2 0x9C1 JUMP JUMPDEST PUSH1 0x2 DUP2 DUP2 LT PUSH2 0x320 JUMPI PUSH2 0x31F PUSH2 0x983 JUMP JUMPDEST JUMPDEST SWAP1 POP PUSH1 0x20 MUL ADD CALLDATALOAD PUSH2 0x429 JUMP JUMPDEST SWAP1 POP PUSH1 0x0 PUSH1 0x20 DUP3 PUSH8 0xFFFFFFFFFFFFFFFF AND SWAP1 SHR PUSH1 0x20 DUP5 PUSH8 0xFFFFFFFFFFFFFFFF AND SWAP1 SHL PUSH1 0x60 DUP7 PUSH8 0xFFFFFFFFFFFFFFFF AND SWAP1 SHL OR OR SWAP1 POP PUSH1 0x0 DUP2 SWAP1 POP CALLER PUSH20 0xFFFFFFFFFFFFFFFFFFFFFFFFFFFFFFFFFFFFFFFF AND DUP2 PUSH20 0xFFFFFFFFFFFFFFFFFFFFFFFFFFFFFFFFFFFFFFFF AND EQ PUSH2 0x3D4 JUMPI PUSH1 0x40 MLOAD PUSH32 0x8C379A000000000000000000000000000000000000000000000000000000000 DUP2 MSTORE PUSH1 0x4 ADD PUSH2 0x3CB SWAP1 PUSH2 0xA81 JUMP JUMPDEST PUSH1 0x40 MLOAD DUP1 SWAP2 SUB SWAP1 REVERT JUMPDEST DUP1 PUSH20 0xFFFFFFFFFFFFFFFFFFFFFFFFFFFFFFFFFFFFFFFF AND PUSH32 0x9508EE0B8CE58138EAD5F169FDE353BDA2E3991EA16A8AA21E626FB211A3F2EF PUSH1 0x40 MLOAD PUSH1 0x40 MLOAD DUP1 SWAP2 SUB SWAP1 LOG2 POP POP POP POP POP SWAP9 POP SWAP9 SWAP7 POP POP POP POP POP POP POP JUMP JUMPDEST PUSH1 0x0 DUP1 PUSH1 0x0 SWAP1 POP PUSH1 0x0 JUMPDEST PUSH1 0x8 DUP2 LT ISZERO PUSH2 0x478 JUMPI PUSH1 0xFF DUP2 PUSH1 0x8 PUSH2 0x44B SWAP2 SWAP1 PUSH2 0xAD0 JUMP JUMPDEST DUP6 PUSH8 0xFFFFFFFFFFFFFFFF AND SWAP1 SHR AND PUSH1 0x8 DUP4 PUSH8 0xFFFFFFFFFFFFFFFF AND SWAP1 SHL OR SWAP2 POP DUP1 DUP1 PUSH1 0x1 ADD SWAP2 POP POP PUSH2 0x433 JUMP JUMPDEST POP DUP1 SWAP2 POP POP SWAP2 SWAP1 POP JUMP JUMPDEST PUSH1 0x0 DUP1 REVERT JUMPDEST PUSH1 0x0 DUP1 REVERT JUMPDEST PUSH1 0x0 DUP1 REVERT JUMPDEST PUSH1 0x0 DUP1 REVERT JUMPDEST PUSH1 0x0 DUP1 REVERT JUMPDEST PUSH1 0x0 DUP1 DUP4 PUSH1 0x1F DUP5 ADD SLT PUSH2 0x4B1 JUMPI PUSH2 0x4B0 PUSH2 0x48C JUMP JUMPDEST JUMPDEST DUP3 CALLDATALOAD SWAP1 POP PUSH8 0xFFFFFFFFFFFFFFFF DUP2 GT ISZERO PUSH2 0x4CE JUMPI PUSH2 0x4CD PUSH2 0x491 JUMP JUMPDEST JUMPDEST PUSH1 0x20 DUP4 ADD SWAP2 POP DUP4 PUSH1 0x20 DUP3 MUL DUP4 ADD GT ISZERO PUSH2 0x4EA JUMPI PUSH2 0x4E9 PUSH2 0x496 JUMP JUMPDEST JUMPDEST SWAP3 POP SWAP3 SWAP1 POP JUMP JUMPDEST PUSH1 0x0 DUP1 DUP4 PUSH1 0x1F DUP5 ADD SLT PUSH2 0x507 JUMPI PUSH2 0x506 PUSH2 0x48C JUMP JUMPDEST JUMPDEST DUP3 CALLDATALOAD SWAP1 POP PUSH8 0xFFFFFFFFFFFFFFFF DUP2 GT ISZERO PUSH2 0x524 JUMPI PUSH2 0x523 PUSH2 0x491 JUMP JUMPDEST JUMPDEST PUSH1 0x20 DUP4 ADD SWAP2 POP DUP4 PUSH1 0x20 DUP3 MUL DUP4 ADD GT ISZERO PUSH2 0x540 JUMPI PUSH2 0x53F PUSH2 0x496 JUMP JUMPDEST JUMPDEST SWAP3 POP SWAP3 SWAP1 POP JUMP JUMPDEST PUSH1 0x0 DUP1 PUSH1 0x0 DUP1 PUSH1 0x0 DUP1 PUSH1 0x0 DUP1 PUSH1 0x80 DUP10 DUP12 SUB SLT ISZERO PUSH2 0x567 JUMPI PUSH2 0x566 PUSH2 0x482 JUMP JUMPDEST JUMPDEST PUSH1 0x0 DUP10 ADD CALLDATALOAD PUSH8 0xFFFFFFFFFFFFFFFF DUP2 GT ISZERO PUSH2 0x585 JUMPI PUSH2 0x584 PUSH2 0x487 JUMP JUMPDEST JUMPDEST PUSH2 0x591 DUP12 DUP3 DUP13 ADD PUSH2 0x49B JUMP JUMPDEST SWAP9 POP SWAP9 POP POP PUSH1 0x20 DUP10 ADD CALLDATALOAD PUSH8 0xFFFFFFFFFFFFFFFF DUP2 GT ISZERO PUSH2 0x5B4 JUMPI PUSH2 0x5B3 PUSH2 0x487 JUMP JUMPDEST JUMPDEST PUSH2 0x5C0 DUP12 DUP3 DUP13 ADD PUSH2 0x49B JUMP JUMPDEST SWAP7 POP SWAP7 POP POP PUSH1 0x40 DUP10 ADD CALLDATALOAD PUSH8 0xFFFFFFFFFFFFFFFF DUP2 GT ISZERO PUSH2 0x5E3 JUMPI PUSH2 0x5E2 PUSH2 0x487 JUMP JUMPDEST JUMPDEST PUSH2 0x5EF DUP12 DUP3 DUP13 ADD PUSH2 0x49B JUMP JUMPDEST SWAP5 POP SWAP5 POP POP PUSH1 0x60 DUP10 ADD CALLDATALOAD PUSH8 0xFFFFFFFFFFFFFFFF DUP2 GT ISZERO PUSH2 0x612 JUMPI PUSH2 0x611 PUSH2 0x487 JUMP JUMPDEST JUMPDEST PUSH2 0x61E DUP12 DUP3 DUP13 ADD PUSH2 0x4F1 JUMP JUMPDEST SWAP3 POP SWAP3 POP POP SWAP3 SWAP6 SWAP9 POP SWAP3 SWAP6 SWAP9 SWAP1 SWAP4 SWAP7 POP JUMP JUMPDEST PUSH1 0x0 PUSH20 0xFFFFFFFFFFFFFFFFFFFFFFFFFFFFFFFFFFFFFFFF DUP3 AND SWAP1 POP SWAP2 SWAP1 POP JUMP JUMPDEST PUSH1 0x0 DUP2 SWAP1 POP SWAP2 SWAP1 POP JUMP JUMPDEST PUSH1 0x0 PUSH2 0x675 PUSH2 0x670 PUSH2 0x66B DUP5 PUSH2 0x630 JUMP JUMPDEST PUSH2 0x650 JUMP JUMPDEST PUSH2 0x630 JUMP JUMPDEST SWAP1 POP SWAP2 SWAP1 POP JUMP JUMPDEST PUSH1 0x0 PUSH2 0x687 DUP3 PUSH2 0x65A JUMP JUMPDEST SWAP1 POP SWAP2 SWAP1 POP JUMP JUMPDEST PUSH1 0x0 PUSH2 0x699 DUP3 PUSH2 0x67C JUMP JUMPDEST SWAP1 POP SWAP2 SWAP1 POP JUMP JUMPDEST PUSH2 0x6A9 DUP2 PUSH2 0x68E JUMP JUMPDEST DUP3 MSTORE POP POP JUMP JUMPDEST PUSH1 0x0 PUSH1 0x20 DUP3 ADD SWAP1 POP PUSH2 0x6C4 PUSH1 0x0 DUP4 ADD DUP5 PUSH2 0x6A0 JUMP JUMPDEST SWAP3 SWAP2 POP POP JUMP JUMPDEST PUSH1 0x0 DUP2 SWAP1 POP SWAP2 SWAP1 POP JUMP JUMPDEST PUSH2 0x6DD DUP2 PUSH2 0x6CA JUMP JUMPDEST DUP3 MSTORE POP POP JUMP JUMPDEST PUSH1 0x0 PUSH1 0x40 DUP3 ADD SWAP1 POP PUSH2 0x6F8 PUSH1 0x0 DUP4 ADD DUP6 PUSH2 0x6D4 JUMP JUMPDEST PUSH2 0x705 PUSH1 0x20 DUP4 ADD DUP5 PUSH2 0x6D4 JUMP JUMPDEST SWAP4 SWAP3 POP POP POP JUMP JUMPDEST PUSH1 0x0 DUP3 DUP3 MSTORE PUSH1 0x20 DUP3 ADD SWAP1 POP SWAP3 SWAP2 POP POP JUMP JUMPDEST PUSH1 0x0 DUP1 REVERT JUMPDEST DUP3 DUP2 DUP4 CALLDATACOPY POP POP POP JUMP JUMPDEST PUSH1 0x0 PUSH2 0x737 DUP4 DUP6 PUSH2 0x70C JUMP JUMPDEST SWAP4 POP PUSH32 0x7FFFFFFFFFFFFFFFFFFFFFFFFFFFFFFFFFFFFFFFFFFFFFFFFFFFFFFFFFFFFFF DUP4 GT ISZERO PUSH2 0x76A JUMPI PUSH2 0x769 PUSH2 0x71D JUMP JUMPDEST JUMPDEST PUSH1 0x20 DUP4 MUL SWAP3 POP PUSH2 0x77B DUP4 DUP6 DUP5 PUSH2 0x722 JUMP JUMPDEST DUP3 DUP5 ADD SWAP1 POP SWAP4 SWAP3 POP POP POP JUMP JUMPDEST PUSH1 0x0 DUP3 DUP3 MSTORE PUSH1 0x20 DUP3 ADD SWAP1 POP SWAP3 SWAP2 POP POP JUMP JUMPDEST PUSH1 0x0 DUP2 SWAP1 POP SWAP2 SWAP1 POP JUMP JUMPDEST PUSH1 0x0 DUP3 DUP3 MSTORE PUSH1 0x20 DUP3 ADD SWAP1 POP SWAP3 SWAP2 POP POP JUMP JUMPDEST PUSH1 0x0 PUSH2 0x7BF DUP4 DUP6 PUSH2 0x7A2 JUMP JUMPDEST SWAP4 POP PUSH32 0x7FFFFFFFFFFFFFFFFFFFFFFFFFFFFFFFFFFFFFFFFFFFFFFFFFFFFFFFFFFFFFF DUP4 GT ISZERO PUSH2 0x7F2 JUMPI PUSH2 0x7F1 PUSH2 0x71D JUMP JUMPDEST JUMPDEST PUSH1 0x20 DUP4 MUL SWAP3 POP PUSH2 0x803 DUP4 DUP6 DUP5 PUSH2 0x722 JUMP JUMPDEST DUP3 DUP5 ADD SWAP1 POP SWAP4 SWAP3 POP POP POP JUMP JUMPDEST PUSH1 0x0 PUSH2 0x81C DUP5 DUP5 DUP5 PUSH2 0x7B3 JUMP JUMPDEST SWAP1 POP SWAP4 SWAP3 POP POP POP JUMP JUMPDEST PUSH1 0x0 DUP1 REVERT JUMPDEST PUSH1 0x0 DUP1 REVERT JUMPDEST PUSH1 0x0 DUP1 REVERT JUMPDEST PUSH1 0x0 DUP1 DUP4 CALLDATALOAD PUSH1 0x1 PUSH1 0x20 SUB DUP5 CALLDATASIZE SUB SUB DUP2 SLT PUSH2 0x851 JUMPI PUSH2 0x850 PUSH2 0x82F JUMP JUMPDEST JUMPDEST DUP4 DUP2 ADD SWAP3 POP DUP3 CALLDATALOAD SWAP2 POP PUSH1 0x20 DUP4 ADD SWAP3 POP PUSH8 0xFFFFFFFFFFFFFFFF DUP3 GT ISZERO PUSH2 0x879 JUMPI PUSH2 0x878 PUSH2 0x825 JUMP JUMPDEST JUMPDEST PUSH1 0x20 DUP3 MUL CALLDATASIZE SUB DUP4 SGT ISZERO PUSH2 0x88F JUMPI PUSH2 0x88E PUSH2 0x82A JUMP JUMPDEST JUMPDEST POP SWAP3 POP SWAP3 SWAP1 POP JUMP JUMPDEST PUSH1 0x0 PUSH1 0x20 DUP3 ADD SWAP1 POP SWAP2 SWAP1 POP JUMP JUMPDEST PUSH1 0x0 PUSH2 0x8B0 DUP4 DUP6 PUSH2 0x787 JUMP JUMPDEST SWAP4 POP DUP4 PUSH1 0x20 DUP5 MUL DUP6 ADD PUSH2 0x8C2 DUP5 PUSH2 0x798 JUMP JUMPDEST DUP1 PUSH1 0x0 JUMPDEST DUP8 DUP2 LT ISZERO PUSH2 0x908 JUMPI DUP5 DUP5 SUB DUP10 MSTORE PUSH2 0x8DD DUP3 DUP5 PUSH2 0x834 JUMP JUMPDEST PUSH2 0x8E8 DUP7 DUP3 DUP5 PUSH2 0x80F JUMP JUMPDEST SWAP6 POP PUSH2 0x8F3 DUP5 PUSH2 0x897 JUMP JUMPDEST SWAP4 POP PUSH1 0x20 DUP12 ADD SWAP11 POP POP POP PUSH1 0x1 DUP2 ADD SWAP1 POP PUSH2 0x8C6 JUMP JUMPDEST POP DUP3 SWAP8 POP DUP8 SWAP5 POP POP POP POP POP SWAP4 SWAP3 POP POP POP JUMP JUMPDEST PUSH1 0x0 PUSH1 0x80 DUP3 ADD SWAP1 POP DUP2 DUP2 SUB PUSH1 0x0 DUP4 ADD MSTORE PUSH2 0x935 DUP2 DUP11 DUP13 PUSH2 0x72B JUMP JUMPDEST SWAP1 POP DUP2 DUP2 SUB PUSH1 0x20 DUP4 ADD MSTORE PUSH2 0x94A DUP2 DUP9 DUP11 PUSH2 0x72B JUMP JUMPDEST SWAP1 POP DUP2 DUP2 SUB PUSH1 0x40 DUP4 ADD MSTORE PUSH2 0x95F DUP2 DUP7 DUP9 PUSH2 0x72B JUMP JUMPDEST SWAP1 POP DUP2 DUP2 SUB PUSH1 0x60 DUP4 ADD MSTORE PUSH2 0x974 DUP2 DUP5 DUP7 PUSH2 0x8A4 JUMP JUMPDEST SWAP1 POP SWAP10 SWAP9 POP POP POP POP POP POP POP POP POP JUMP JUMPDEST PUSH32 0x4E487B7100000000000000000000000000000000000000000000000000000000 PUSH1 0x0 MSTORE PUSH1 0x32 PUSH1 0x4 MSTORE PUSH1 0x24 PUSH1 0x0 REVERT JUMPDEST PUSH1 0x0 DUP1 REVERT JUMPDEST PUSH1 0x0 DUP1 REVERT JUMPDEST PUSH1 0x0 DUP1 REVERT JUMPDEST PUSH1 0x0 DUP1 DUP4 CALLDATALOAD PUSH1 0x1 PUSH1 0x20 SUB DUP5 CALLDATASIZE SUB SUB DUP2 SLT PUSH2 0x9DE JUMPI PUSH2 0x9DD PUSH2 0x9B2 JUMP JUMPDEST JUMPDEST DUP1 DUP5 ADD SWAP3 POP DUP3 CALLDATALOAD SWAP2 POP PUSH8 0xFFFFFFFFFFFFFFFF DUP3 GT ISZERO PUSH2 0xA00 JUMPI PUSH2 0x9FF PUSH2 0x9B7 JUMP JUMPDEST JUMPDEST PUSH1 0x20 DUP4 ADD SWAP3 POP PUSH1 0x20 DUP3 MUL CALLDATASIZE SUB DUP4 SGT ISZERO PUSH2 0xA1C JUMPI PUSH2 0xA1B PUSH2 0x9BC JUMP JUMPDEST JUMPDEST POP SWAP3 POP SWAP3 SWAP1 POP JUMP JUMPDEST PUSH1 0x0 DUP3 DUP3 MSTORE PUSH1 0x20 DUP3 ADD SWAP1 POP SWAP3 SWAP2 POP POP JUMP JUMPDEST PUSH32 0x506C617965722061646472657373206D69736D61746368000000000000000000 PUSH1 0x0 DUP3 ADD MSTORE POP JUMP JUMPDEST PUSH1 0x0 PUSH2 0xA6B PUSH1 0x17 DUP4 PUSH2 0xA24 JUMP JUMPDEST SWAP2 POP PUSH2 0xA76 DUP3 PUSH2 0xA35 JUMP JUMPDEST PUSH1 0x20 DUP3 ADD SWAP1 POP SWAP2 SWAP1 POP JUMP JUMPDEST PUSH1 0x0 PUSH1 0x20 DUP3 ADD SWAP1 POP DUP2 DUP2 SUB PUSH1 0x0 DUP4 ADD MSTORE PUSH2 0xA9A DUP2 PUSH2 0xA5E JUMP JUMPDEST SWAP1 POP SWAP2 SWAP1 POP JUMP JUMPDEST PUSH32 0x4E487B7100000000000000000000000000000000000000000000000000000000 PUSH1 0x0 MSTORE PUSH1 0x11 PUSH1 0x4 MSTORE PUSH1 0x24 PUSH1 0x0 REVERT JUMPDEST PUSH1 0x0 PUSH2 0xADB DUP3 PUSH2 0x6CA JUMP JUMPDEST SWAP2 POP PUSH2 0xAE6 DUP4 PUSH2 0x6CA JUMP JUMPDEST SWAP3 POP DUP3 DUP3 MUL PUSH2 0xAF4 DUP2 PUSH2 0x6CA JUMP JUMPDEST SWAP2 POP DUP3 DUP3 DIV DUP5 EQ DUP4 ISZERO OR PUSH2 0xB0B JUMPI PUSH2 0xB0A PUSH2 0xAA1 JUMP JUMPDEST JUMPDEST POP SWAP3 SWAP2 POP POP JUMP INVALID LOG2 PUSH5 0x6970667358 0x22 SLT KECCAK256 0xCB 0xC9 SWAP12 CREATE 0xD4 0xE2 DUP10 DUP3 0xE6 DUP8 0xBF PUSH24 0x307AF71D80713D41C76E0C94A0B2D13E851D512D64736F6C PUSH4 0x43000818 STOP CALLER "
        },
        "methodIdentifiers": {
          "submitScore(uint256[],uint256[],uint256[],uint256[][])": "0e5bc8d0",
          "verifier()": "2b7ac3f3",
          "verify(uint256[],uint256[],uint256[],uint256[][])": "ae022ccd"
        }
      }
    }
  }
}