{
  "_format": "hh-sol-artifact-1",
  "contractName": "ZK2048",
  "sourceName": "contracts/ZK2048.sol",
  "abi": [
    {
      "inputs": [
        {
          "internalType": "address",
          "name": "verifier_address",
          "type": "address"
        }
      ],
      "stateMutability": "nonpayable",
      "type": "constructor"
    },
    {
      "anonymous": false,
      "inputs": [
        {
          "components": [
            {
              "internalType": "uint256",
              "name": "seed",
              "type": "uint256"
            },
            {
              "internalType": "address",
              "name": "player_address",
              "type": "address"
            },
            {
              "internalType": "uint256",
              "name": "score",
              "type": "uint256"
            }
          ],
          "indexed": false,
          "internalType": "struct ZK2048.GameDetail[10]",
          "name": "leaderboard",
          "type": "tuple[10]"
        }
      ],
      "name": "LeaderboardUpdated",
      "type": "event"
    },
    {
      "anonymous": false,
      "inputs": [
        {
          "indexed": false,
          "internalType": "address",
          "name": "player",
          "type": "address"
        },
        {
          "indexed": false,
          "internalType": "uint256",
          "name": "score",
          "type": "uint256"
        }
      ],
      "name": "ScoreUpdated",
      "type": "event"
    },
    {
      "anonymous": false,
      "inputs": [],
      "name": "VerificationFailed",
      "type": "event"
    },
    {
      "anonymous": false,
      "inputs": [
        {
          "indexed": false,
          "internalType": "uint256",
          "name": "seed",
          "type": "uint256"
        },
        {
          "indexed": false,
          "internalType": "address",
          "name": "player_address",
          "type": "address"
        },
        {
          "indexed": false,
          "internalType": "uint256",
          "name": "score",
          "type": "uint256"
        }
      ],
      "name": "VerificationSucceeded",
      "type": "event"
    },
    {
      "inputs": [],
      "name": "getLeaderboard",
      "outputs": [
        {
          "components": [
            {
              "internalType": "uint256",
              "name": "seed",
              "type": "uint256"
            },
            {
              "internalType": "address",
              "name": "player_address",
              "type": "address"
            },
            {
              "internalType": "uint256",
              "name": "score",
              "type": "uint256"
            }
          ],
          "internalType": "struct ZK2048.GameDetail[10]",
          "name": "",
          "type": "tuple[10]"
        }
      ],
      "stateMutability": "view",
      "type": "function"
    },
    {
      "inputs": [],
      "name": "getScore",
      "outputs": [
        {
          "internalType": "uint256",
          "name": "",
          "type": "uint256"
        }
      ],
      "stateMutability": "view",
      "type": "function"
    },
    {
      "inputs": [
        {
          "internalType": "address",
          "name": "player",
          "type": "address"
        }
      ],
      "name": "getScore",
      "outputs": [
        {
          "internalType": "uint256",
          "name": "",
          "type": "uint256"
        }
      ],
      "stateMutability": "view",
      "type": "function"
    },
    {
      "inputs": [
        {
          "internalType": "uint256",
          "name": "",
          "type": "uint256"
        }
      ],
      "name": "leaderboard",
      "outputs": [
        {
          "internalType": "uint256",
          "name": "seed",
          "type": "uint256"
        },
        {
          "internalType": "address",
          "name": "player_address",
          "type": "address"
        },
        {
          "internalType": "uint256",
          "name": "score",
          "type": "uint256"
        }
      ],
      "stateMutability": "view",
      "type": "function"
    },
    {
      "inputs": [
        {
          "internalType": "address",
          "name": "",
          "type": "address"
        }
      ],
      "name": "scores",
      "outputs": [
        {
          "internalType": "uint256",
          "name": "",
          "type": "uint256"
        }
      ],
      "stateMutability": "view",
      "type": "function"
    },
    {
      "inputs": [
        {
          "internalType": "uint256[]",
          "name": "proof",
          "type": "uint256[]"
        },
        {
          "internalType": "uint256[]",
          "name": "verify_instance",
          "type": "uint256[]"
        },
        {
          "internalType": "uint256[]",
          "name": "aux",
          "type": "uint256[]"
        },
        {
          "internalType": "uint256[][]",
          "name": "instances",
          "type": "uint256[][]"
        }
      ],
      "name": "submitScore",
      "outputs": [],
      "stateMutability": "nonpayable",
      "type": "function"
    },
    {
      "inputs": [],
      "name": "verifier",
      "outputs": [
        {
          "internalType": "contract IDelphinusVerifier",
          "name": "",
          "type": "address"
        }
      ],
      "stateMutability": "view",
      "type": "function"
    },
    {
      "inputs": [
        {
          "internalType": "uint256[]",
          "name": "proof",
          "type": "uint256[]"
        },
        {
          "internalType": "uint256[]",
          "name": "verify_instance",
          "type": "uint256[]"
        },
        {
          "internalType": "uint256[]",
          "name": "aux",
          "type": "uint256[]"
        },
        {
          "internalType": "uint256[][]",
          "name": "instances",
          "type": "uint256[][]"
        }
      ],
      "name": "verify",
      "outputs": [
        {
          "components": [
            {
              "internalType": "uint256",
              "name": "seed",
              "type": "uint256"
            },
            {
              "internalType": "address",
              "name": "player_address",
              "type": "address"
            },
            {
              "internalType": "uint256",
              "name": "score",
              "type": "uint256"
            }
          ],
          "internalType": "struct ZK2048.GameDetail",
          "name": "",
          "type": "tuple"
        }
      ],
      "stateMutability": "nonpayable",
      "type": "function"
    }
  ],
  "bytecode": "0x60806040523480156200001157600080fd5b50604051620015e6380380620015e68339818101604052810190620000379190620000e8565b806000806101000a81548173ffffffffffffffffffffffffffffffffffffffff021916908373ffffffffffffffffffffffffffffffffffffffff160217905550506200011a565b600080fd5b600073ffffffffffffffffffffffffffffffffffffffff82169050919050565b6000620000b08262000083565b9050919050565b620000c281620000a3565b8114620000ce57600080fd5b50565b600081519050620000e281620000b7565b92915050565b6000602082840312156200010157620001006200007e565b5b60006200011184828501620000d1565b91505092915050565b6114bc806200012a6000396000f3fe608060405234801561001057600080fd5b50600436106100885760003560e01c8063ae022ccd1161005b578063ae022ccd14610115578063afd8206714610145578063bf36839914610163578063d47875d01461019557610088565b80630e5bc8d01461008d5780632b7ac3f3146100a95780636d763a6e146100c757806376dd110f146100e5575b600080fd5b6100a760048036038101906100a29190610ac5565b6101c5565b005b6100b16102ca565b6040516100be9190610c2d565b60405180910390f35b6100cf6102ee565b6040516100dc9190610d60565b60405180910390f35b6100ff60048036038101906100fa9190610da8565b6103aa565b60405161010c9190610de4565b60405180910390f35b61012f600480360381019061012a9190610ac5565b6103c2565b60405161013c9190610e41565b60405180910390f35b61014d610681565b60405161015a9190610de4565b60405180910390f35b61017d60048036038101906101789190610e88565b6106c8565b60405161018c93929190610ec4565b60405180910390f35b6101af60048036038101906101aa9190610da8565b610718565b6040516101bc9190610de4565b60405180910390f35b60006101d789898989898989896103c2565b905060016000826020015173ffffffffffffffffffffffffffffffffffffffff1673ffffffffffffffffffffffffffffffffffffffff16815260200190815260200160002054816040015111156102bf57806040015160016000836020015173ffffffffffffffffffffffffffffffffffffffff1673ffffffffffffffffffffffffffffffffffffffff168152602001908152602001600020819055507f66ead48cfe0e1d1aa8bad492e906c348dfcfeecbf3b7b2cdf9b1f3cfa42a2945816020015182604001516040516102ad929190610efb565b60405180910390a16102be81610761565b5b505050505050505050565b60008054906101000a900473ffffffffffffffffffffffffffffffffffffffff1681565b6102f661099b565b6002600a80602002604051908101604052809291906000905b828210156103a157838260030201604051806060016040529081600082015481526020016001820160009054906101000a900473ffffffffffffffffffffffffffffffffffffffff1673ffffffffffffffffffffffffffffffffffffffff1673ffffffffffffffffffffffffffffffffffffffff1681526020016002820154815250508152602001906001019061030f565b50505050905090565b60016020528060005260406000206000915090505481565b6103ca6109c9565b60008054906101000a900473ffffffffffffffffffffffffffffffffffffffff1673ffffffffffffffffffffffffffffffffffffffff1663ae022ccd8a8a8a8a8a8a8a8a6040518963ffffffff1660e01b8152600401610431989796959493929190611132565b60006040518083038186803b15801561044957600080fd5b505afa15801561045d573d6000803e3d6000fd5b505050506000838360008181106104775761047661119b565b5b905060200281019061048991906111d9565b600081811061049b5761049a61119b565b5b9050602002013590506000848460008181106104ba576104b961119b565b5b90506020028101906104cc91906111d9565b60048181106104de576104dd61119b565b5b905060200201359050600061053086866000818110610500576104ff61119b565b5b905060200281019061051291906111d9565b60018181106105245761052361119b565b5b90506020020135610942565b9050600061057b8787600081811061054b5761054a61119b565b5b905060200281019061055d91906111d9565b600281811061056f5761056e61119b565b5b90506020020135610942565b905060006105c6888860008181106105965761059561119b565b5b90506020028101906105a891906111d9565b60038181106105ba576105b961119b565b5b90506020020135610942565b9050600060208267ffffffffffffffff16901c60208467ffffffffffffffff16901b60608667ffffffffffffffff16901b1717905060008190507fa5b9e713549d93f644aa4849a41ed335a1f2c80458251b4307d78335044b162f87828860405161063393929190610ec4565b60405180910390a160405180606001604052808881526020018273ffffffffffffffffffffffffffffffffffffffff1681526020018781525097505050505050505098975050505050505050565b6000600160003373ffffffffffffffffffffffffffffffffffffffff1673ffffffffffffffffffffffffffffffffffffffff16815260200190815260200160002054905090565b600281600a81106106d857600080fd5b600302016000915090508060000154908060010160009054906101000a900473ffffffffffffffffffffffffffffffffffffffff16908060020154905083565b6000600160008373ffffffffffffffffffffffffffffffffffffffff1673ffffffffffffffffffffffffffffffffffffffff168152602001908152602001600020549050919050565b60005b600a81101561093e57600281600a81106107815761078061119b565b5b6003020160020154826040015111156109315760006001600a6107a4919061126b565b90505b8181111561087c5760026001826107be919061126b565b600a81106107cf576107ce61119b565b5b60030201600282600a81106107e7576107e661119b565b5b60030201600082015481600001556001820160009054906101000a900473ffffffffffffffffffffffffffffffffffffffff168160010160006101000a81548173ffffffffffffffffffffffffffffffffffffffff021916908373ffffffffffffffffffffffffffffffffffffffff1602179055506002820154816002015590505080806108749061129f565b9150506107a7565b5081600282600a81106108925761089161119b565b5b600302016000820151816000015560208201518160010160006101000a81548173ffffffffffffffffffffffffffffffffffffffff021916908373ffffffffffffffffffffffffffffffffffffffff160217905550604082015181600201559050507f27d11caa8befc8ad1f728162a6aed64d34fd5aee4317d5f0028b08e5aedea37460026040516109249190611428565b60405180910390a161093e565b8080600101915050610764565b5050565b6000806000905060005b60088110156109915760ff8160086109649190611444565b8567ffffffffffffffff16901c1660088367ffffffffffffffff16901b179150808060010191505061094c565b5080915050919050565b604051806101400160405280600a905b6109b36109c9565b8152602001906001900390816109ab5790505090565b604051806060016040528060008152602001600073ffffffffffffffffffffffffffffffffffffffff168152602001600081525090565b600080fd5b600080fd5b600080fd5b600080fd5b600080fd5b60008083601f840112610a2f57610a2e610a0a565b5b8235905067ffffffffffffffff811115610a4c57610a4b610a0f565b5b602083019150836020820283011115610a6857610a67610a14565b5b9250929050565b60008083601f840112610a8557610a84610a0a565b5b8235905067ffffffffffffffff811115610aa257610aa1610a0f565b5b602083019150836020820283011115610abe57610abd610a14565b5b9250929050565b6000806000806000806000806080898b031215610ae557610ae4610a00565b5b600089013567ffffffffffffffff811115610b0357610b02610a05565b5b610b0f8b828c01610a19565b9850985050602089013567ffffffffffffffff811115610b3257610b31610a05565b5b610b3e8b828c01610a19565b9650965050604089013567ffffffffffffffff811115610b6157610b60610a05565b5b610b6d8b828c01610a19565b9450945050606089013567ffffffffffffffff811115610b9057610b8f610a05565b5b610b9c8b828c01610a6f565b92509250509295985092959890939650565b600073ffffffffffffffffffffffffffffffffffffffff82169050919050565b6000819050919050565b6000610bf3610bee610be984610bae565b610bce565b610bae565b9050919050565b6000610c0582610bd8565b9050919050565b6000610c1782610bfa565b9050919050565b610c2781610c0c565b82525050565b6000602082019050610c426000830184610c1e565b92915050565b6000600a9050919050565b600081905092915050565b6000819050919050565b6000819050919050565b610c7b81610c68565b82525050565b6000610c8c82610bae565b9050919050565b610c9c81610c81565b82525050565b606082016000820151610cb86000850182610c72565b506020820151610ccb6020850182610c93565b506040820151610cde6040850182610c72565b50505050565b6000610cf08383610ca2565b60608301905092915050565b6000602082019050919050565b610d1281610c48565b610d1c8184610c53565b9250610d2782610c5e565b8060005b83811015610d58578151610d3f8782610ce4565b9650610d4a83610cfc565b925050600181019050610d2b565b505050505050565b60006103c082019050610d766000830184610d09565b92915050565b610d8581610c81565b8114610d9057600080fd5b50565b600081359050610da281610d7c565b92915050565b600060208284031215610dbe57610dbd610a00565b5b6000610dcc84828501610d93565b91505092915050565b610dde81610c68565b82525050565b6000602082019050610df96000830184610dd5565b92915050565b606082016000820151610e156000850182610c72565b506020820151610e286020850182610c93565b506040820151610e3b6040850182610c72565b50505050565b6000606082019050610e566000830184610dff565b92915050565b610e6581610c68565b8114610e7057600080fd5b50565b600081359050610e8281610e5c565b92915050565b600060208284031215610e9e57610e9d610a00565b5b6000610eac84828501610e73565b91505092915050565b610ebe81610c81565b82525050565b6000606082019050610ed96000830186610dd5565b610ee66020830185610eb5565b610ef36040830184610dd5565b949350505050565b6000604082019050610f106000830185610eb5565b610f1d6020830184610dd5565b9392505050565b600082825260208201905092915050565b600080fd5b82818337505050565b6000610f4f8385610f24565b93507f07ffffffffffffffffffffffffffffffffffffffffffffffffffffffffffffff831115610f8257610f81610f35565b5b602083029250610f93838584610f3a565b82840190509392505050565b600082825260208201905092915050565b6000819050919050565b600082825260208201905092915050565b6000610fd78385610fba565b93507f07ffffffffffffffffffffffffffffffffffffffffffffffffffffffffffffff83111561100a57611009610f35565b5b60208302925061101b838584610f3a565b82840190509392505050565b6000611034848484610fcb565b90509392505050565b600080fd5b600080fd5b600080fd5b6000808335600160200384360303811261106957611068611047565b5b83810192508235915060208301925067ffffffffffffffff8211156110915761109061103d565b5b6020820236038313156110a7576110a6611042565b5b509250929050565b6000602082019050919050565b60006110c88385610f9f565b9350836020840285016110da84610fb0565b8060005b878110156111205784840389526110f5828461104c565b611100868284611027565b955061110b846110af565b935060208b019a5050506001810190506110de565b50829750879450505050509392505050565b6000608082019050818103600083015261114d818a8c610f43565b9050818103602083015261116281888a610f43565b90508181036040830152611177818688610f43565b9050818103606083015261118c8184866110bc565b90509998505050505050505050565b7f4e487b7100000000000000000000000000000000000000000000000000000000600052603260045260246000fd5b600080fd5b600080fd5b600080fd5b600080833560016020038436030381126111f6576111f56111ca565b5b80840192508235915067ffffffffffffffff821115611218576112176111cf565b5b602083019250602082023603831315611234576112336111d4565b5b509250929050565b7f4e487b7100000000000000000000000000000000000000000000000000000000600052601160045260246000fd5b600061127682610c68565b915061128183610c68565b92508282039050818111156112995761129861123c565b5b92915050565b60006112aa82610c68565b9150600082036112bd576112bc61123c565b5b600182039050919050565b6000600a9050919050565b6000819050919050565b60008160001c9050919050565b6000819050919050565b6000611307611302836112dd565b6112ea565b9050919050565b600073ffffffffffffffffffffffffffffffffffffffff82169050919050565b600061134161133c836112dd565b61130e565b9050919050565b60608201600080830154905061135d816112f4565b61136a6000860182610c72565b506001830154905061137b8161132e565b6113886020860182610c93565b5060028301549050611399816112f4565b6113a66040860182610c72565b5050505050565b60006113b98383611348565b60608301905092915050565b6000600382019050919050565b6113db816112c8565b6113e58184610c53565b92506113f0826112d3565b8060005b83811015611420578161140787826113ad565b9650611412836113c5565b9250506001810190506113f4565b505050505050565b60006103c08201905061143e60008301846113d2565b92915050565b600061144f82610c68565b915061145a83610c68565b925082820261146881610c68565b9150828204841483151761147f5761147e61123c565b5b509291505056fea26469706673582212203734bccaa028c2dd7301d493f80657b02fac60c7f510716509b35448a91c842964736f6c63430008180033",
  "linkReferences": {},
  "deployedLinkReferences": {}
}