{
  "_format": "hh-sol-artifact-1",
  "contractName": "DummyContract",
  "sourceName": "contracts/DummyContract.sol",
  "abi": [
    {
      "inputs": [
        {
          "internalType": "address",
          "name": "verifier_address",
          "type": "address"
        }
      ],
      "stateMutability": "nonpayable",
      "type": "constructor"
    },
    {
      "anonymous": false,
      "inputs": [
        {
          "indexed": false,
          "internalType": "uint256",
          "name": "fib0",
          "type": "uint256"
        },
        {
          "indexed": false,
          "internalType": "uint256",
          "name": "fib1",
          "type": "uint256"
        }
      ],
      "name": "UpdateState",
      "type": "event"
    },
    {
      "anonymous": false,
      "inputs": [
        {
          "indexed": true,
          "internalType": "address",
          "name": "player_address",
          "type": "address"
        }
      ],
      "name": "VerificationSucceeded",
      "type": "event"
    },
    {
      "inputs": [
        {
          "internalType": "uint256[]",
          "name": "proof",
          "type": "uint256[]"
        },
        {
          "internalType": "uint256[]",
          "name": "verify_instance",
          "type": "uint256[]"
        },
        {
          "internalType": "uint256[]",
          "name": "aux",
          "type": "uint256[]"
        },
        {
          "internalType": "uint256[][]",
          "name": "instances",
          "type": "uint256[][]"
        }
      ],
      "name": "submitScore",
      "outputs": [],
      "stateMutability": "nonpayable",
      "type": "function"
    },
    {
      "inputs": [],
      "name": "verifier",
      "outputs": [
        {
          "internalType": "contract IDelphinusVerifier",
          "name": "",
          "type": "address"
        }
      ],
      "stateMutability": "view",
      "type": "function"
    },
    {
      "inputs": [
        {
          "internalType": "uint256[]",
          "name": "proof",
          "type": "uint256[]"
        },
        {
          "internalType": "uint256[]",
          "name": "verify_instance",
          "type": "uint256[]"
        },
        {
          "internalType": "uint256[]",
          "name": "aux",
          "type": "uint256[]"
        },
        {
          "internalType": "uint256[][]",
          "name": "instances",
          "type": "uint256[][]"
        }
      ],
      "name": "verify",
      "outputs": [
        {
          "internalType": "uint256",
          "name": "fib0",
          "type": "uint256"
        },
        {
          "internalType": "uint256",
          "name": "fib1",
          "type": "uint256"
        }
      ],
      "stateMutability": "nonpayable",
      "type": "function"
    }
  ],
  "bytecode": "0x608060405234801561001057600080fd5b50604051610c5f380380610c5f833981810160405281019061003291906100db565b806000806101000a81548173ffffffffffffffffffffffffffffffffffffffff021916908373ffffffffffffffffffffffffffffffffffffffff16021790555050610108565b600080fd5b600073ffffffffffffffffffffffffffffffffffffffff82169050919050565b60006100a88261007d565b9050919050565b6100b88161009d565b81146100c357600080fd5b50565b6000815190506100d5816100af565b92915050565b6000602082840312156100f1576100f0610078565b5b60006100ff848285016100c6565b91505092915050565b610b48806101176000396000f3fe608060405234801561001057600080fd5b50600436106100415760003560e01c80630e5bc8d0146100465780632b7ac3f314610062578063ae022ccd14610080575b600080fd5b610060600480360381019061005b9190610547565b6100b1565b005b61006a61010d565b60405161007791906106af565b60405180910390f35b61009a60048036038101906100959190610547565b610131565b6040516100a89291906106e3565b60405180910390f35b6000806100c48a8a8a8a8a8a8a8a610131565b915091507fecb087a34e164257c16319431a21cb2c4fcd9be7140eab666eef646dad11da5a82826040516100f99291906106e3565b60405180910390a150505050505050505050565b60008054906101000a900473ffffffffffffffffffffffffffffffffffffffff1681565b60008060008054906101000a900473ffffffffffffffffffffffffffffffffffffffff1673ffffffffffffffffffffffffffffffffffffffff1663ae022ccd8b8b8b8b8b8b8b8b6040518963ffffffff1660e01b815260040161019b98979695949392919061091a565b60006040518083038186803b1580156101b357600080fd5b505afa1580156101c7573d6000803e3d6000fd5b50505050838360008181106101df576101de610983565b5b90506020028101906101f191906109c1565b600381811061020357610202610983565b5b905060200201359150838360008181106102205761021f610983565b5b905060200281019061023291906109c1565b600481811061024457610243610983565b5b90506020020135905060006102968585600081811061026657610265610983565b5b905060200281019061027891906109c1565b600081811061028a57610289610983565b5b90506020020135610429565b905060006102e1868660008181106102b1576102b0610983565b5b90506020028101906102c391906109c1565b60018181106102d5576102d4610983565b5b90506020020135610429565b9050600061032c878760008181106102fc576102fb610983565b5b905060200281019061030e91906109c1565b60028181106103205761031f610983565b5b90506020020135610429565b9050600060208267ffffffffffffffff16901c60208467ffffffffffffffff16901b60608667ffffffffffffffff16901b1717905060008190503373ffffffffffffffffffffffffffffffffffffffff168173ffffffffffffffffffffffffffffffffffffffff16146103d4576040517f08c379a00000000000000000000000000000000000000000000000000000000081526004016103cb90610a81565b60405180910390fd5b8073ffffffffffffffffffffffffffffffffffffffff167f9508ee0b8ce58138ead5f169fde353bda2e3991ea16a8aa21e626fb211a3f2ef60405160405180910390a250505050509850989650505050505050565b6000806000905060005b60088110156104785760ff81600861044b9190610ad0565b8567ffffffffffffffff16901c1660088367ffffffffffffffff16901b1791508080600101915050610433565b5080915050919050565b600080fd5b600080fd5b600080fd5b600080fd5b600080fd5b60008083601f8401126104b1576104b061048c565b5b8235905067ffffffffffffffff8111156104ce576104cd610491565b5b6020830191508360208202830111156104ea576104e9610496565b5b9250929050565b60008083601f8401126105075761050661048c565b5b8235905067ffffffffffffffff81111561052457610523610491565b5b6020830191508360208202830111156105405761053f610496565b5b9250929050565b6000806000806000806000806080898b03121561056757610566610482565b5b600089013567ffffffffffffffff81111561058557610584610487565b5b6105918b828c0161049b565b9850985050602089013567ffffffffffffffff8111156105b4576105b3610487565b5b6105c08b828c0161049b565b9650965050604089013567ffffffffffffffff8111156105e3576105e2610487565b5b6105ef8b828c0161049b565b9450945050606089013567ffffffffffffffff81111561061257610611610487565b5b61061e8b828c016104f1565b92509250509295985092959890939650565b600073ffffffffffffffffffffffffffffffffffffffff82169050919050565b6000819050919050565b600061067561067061066b84610630565b610650565b610630565b9050919050565b60006106878261065a565b9050919050565b60006106998261067c565b9050919050565b6106a98161068e565b82525050565b60006020820190506106c460008301846106a0565b92915050565b6000819050919050565b6106dd816106ca565b82525050565b60006040820190506106f860008301856106d4565b61070560208301846106d4565b9392505050565b600082825260208201905092915050565b600080fd5b82818337505050565b6000610737838561070c565b93507f07ffffffffffffffffffffffffffffffffffffffffffffffffffffffffffffff83111561076a5761076961071d565b5b60208302925061077b838584610722565b82840190509392505050565b600082825260208201905092915050565b6000819050919050565b600082825260208201905092915050565b60006107bf83856107a2565b93507f07ffffffffffffffffffffffffffffffffffffffffffffffffffffffffffffff8311156107f2576107f161071d565b5b602083029250610803838584610722565b82840190509392505050565b600061081c8484846107b3565b90509392505050565b600080fd5b600080fd5b600080fd5b600080833560016020038436030381126108515761085061082f565b5b83810192508235915060208301925067ffffffffffffffff82111561087957610878610825565b5b60208202360383131561088f5761088e61082a565b5b509250929050565b6000602082019050919050565b60006108b08385610787565b9350836020840285016108c284610798565b8060005b878110156109085784840389526108dd8284610834565b6108e886828461080f565b95506108f384610897565b935060208b019a5050506001810190506108c6565b50829750879450505050509392505050565b60006080820190508181036000830152610935818a8c61072b565b9050818103602083015261094a81888a61072b565b9050818103604083015261095f81868861072b565b905081810360608301526109748184866108a4565b90509998505050505050505050565b7f4e487b7100000000000000000000000000000000000000000000000000000000600052603260045260246000fd5b600080fd5b600080fd5b600080fd5b600080833560016020038436030381126109de576109dd6109b2565b5b80840192508235915067ffffffffffffffff821115610a00576109ff6109b7565b5b602083019250602082023603831315610a1c57610a1b6109bc565b5b509250929050565b600082825260208201905092915050565b7f506c617965722061646472657373206d69736d61746368000000000000000000600082015250565b6000610a6b601783610a24565b9150610a7682610a35565b602082019050919050565b60006020820190508181036000830152610a9a81610a5e565b9050919050565b7f4e487b7100000000000000000000000000000000000000000000000000000000600052601160045260246000fd5b6000610adb826106ca565b9150610ae6836106ca565b9250828202610af4816106ca565b91508282048414831517610b0b57610b0a610aa1565b5b509291505056fea2646970667358221220cbc99bf0d4e28982e687bf77307af71d80713d41c76e0c94a0b2d13e851d512d64736f6c63430008180033",
  "linkReferences": {},
  "deployedLinkReferences": {}
}