{
  "_format": "hh-sol-artifact-1",
  "contractName": "GameStateStorage",
  "sourceName": "contracts/shared/GameStateStorage.sol",
  "abi": [
    {
      "inputs": [],
      "stateMutability": "nonpayable",
      "type": "constructor"
    },
    {
      "inputs": [
        {
          "internalType": "address",
          "name": "player",
          "type": "address"
        }
      ],
      "name": "getStates",
      "outputs": [
        {
          "internalType": "bytes",
          "name": "",
          "type": "bytes"
        }
      ],
      "stateMutability": "view",
      "type": "function"
    },
    {
      "inputs": [
        {
          "internalType": "address",
          "name": "",
          "type": "address"
        }
      ],
      "name": "states",
      "outputs": [
        {
          "internalType": "bytes",
          "name": "",
          "type": "bytes"
        }
      ],
      "stateMutability": "view",
      "type": "function"
    },
    {
      "inputs": [
        {
          "internalType": "bytes",
          "name": "state",
          "type": "bytes"
        },
        {
          "internalType": "address",
          "name": "player",
          "type": "address"
        }
      ],
      "name": "updateStates",
      "outputs": [],
      "stateMutability": "nonpayable",
      "type": "function"
    }
  ],
  "bytecode": "0x6080806040523461002857600080546001600160a01b031916331790556104ba908161002e8239f35b600080fdfe604060808152600436101561001357600080fd5b600090813560e01c806302a22337146102475780631535530f1461007857634fe8446f1461004057600080fd5b346100745760203660031901126100745761007090610065610060610281565b6103ea565b9051918291826103a1565b0390f35b5080fd5b50346100745780600319360112610074576004359067ffffffffffffffff80831161024357366023840112156102435782600401359081116102435760243681838601011161023f5780356001600160a01b038181169182900361023b5786541633036101ec5785526001926020908482528620946100f7865461029c565b601f81116101a6575b508691601f851160011461013e57509183949184938895610131575b5050501b916000199060031b1c191617905580f35b010135925038808061011c565b92909184601f198116888a52858a20958a905b8983831061018a575050501061016e575b50505050811b01905580f35b60001960f88660031b161c199201013516905538808080610162565b8786018701358955909701969384019388935090810190610151565b868852828820601f860160051c8101918487106101e2575b601f0160051c019086905b8281106101d7575050610100565b8981550186906101c9565b90915081906101be565b835162461bcd60e51b8152602060048201526023818401527f4f6e6c792063726561746f722063616e2063616c6c20746869732066756e637460448201526234b7b760e91b6064820152608490fd5b8680fd5b8480fd5b8380fd5b503461007457602036600319011261007457610070916100659082906001600160a01b03610273610281565b1681526001602052206102d6565b600435906001600160a01b038216820361029757565b600080fd5b90600182811c921680156102cc575b60208310146102b657565b634e487b7160e01b600052602260045260246000fd5b91607f16916102ab565b906040519160009080546102e98161029c565b908186526020926001916001811690816000146103835750600114610347575b50505050829003601f01601f1916820167ffffffffffffffff81118382101761033157604052565b634e487b7160e01b600052604160045260246000fd5b909293506000528260002091836000935b83851061036f575050505083010138808080610309565b805488860183015293019284908201610358565b60ff191688860152505050151560051b840101905038808080610309565b6020808252825181830181905290939260005b8281106103d657505060409293506000838284010152601f8019910116010190565b8181018601518482016040015285016103b4565b6001600160a01b031660008181526001602052604081205490919061040e9061029c565b1561042a578160409161042793526001602052206102d6565b90565b50604051908060208301528060408301528060608301528060808301528060a083015260a0825260c082019082821067ffffffffffffffff831117610470575060405290565b634e487b7160e01b81526041600452602490fdfea26469706673582212207feea081625edeb9474ddeef6a8f05b51d269b28b5581e3d19201f3d0219460264736f6c63430008180033",
  "linkReferences": {},
  "deployedLinkReferences": {}
}