{
  "_format": "hh-sol-artifact-1",
  "contractName": "SpinOPZKGameContract",
  "sourceName": "contracts/game_opzk/GameContract.sol",
  "abi": [
    {
      "inputs": [
        {
          "internalType": "address",
          "name": "_verifier",
          "type": "address"
        }
      ],
      "stateMutability": "nonpayable",
      "type": "constructor"
    },
    {
      "anonymous": false,
      "inputs": [
        {
          "indexed": true,
          "internalType": "uint256",
          "name": "submissionIndex",
          "type": "uint256"
        },
        {
          "indexed": true,
          "internalType": "address",
          "name": "challenger",
          "type": "address"
        }
      ],
      "name": "ChallengeEvent",
      "type": "event"
    },
    {
      "anonymous": false,
      "inputs": [
        {
          "indexed": true,
          "internalType": "uint256",
          "name": "submissionIndex",
          "type": "uint256"
        }
      ],
      "name": "SettleEvent",
      "type": "event"
    },
    {
      "anonymous": false,
      "inputs": [
        {
          "indexed": true,
          "internalType": "uint256",
          "name": "submissionIndex",
          "type": "uint256"
        }
      ],
      "name": "SettleSubmissionDroppedEvent",
      "type": "event"
    },
    {
      "anonymous": false,
      "inputs": [
        {
          "indexed": true,
          "internalType": "uint256",
          "name": "submissionIndex",
          "type": "uint256"
        },
        {
          "indexed": true,
          "internalType": "uint256",
          "name": "submissionNonce",
          "type": "uint256"
        },
        {
          "indexed": true,
          "internalType": "address",
          "name": "playerAddress",
          "type": "address"
        }
      ],
      "name": "SubmissionEvent",
      "type": "event"
    },
    {
      "inputs": [],
      "name": "CHALLENGING_WINDOW",
      "outputs": [
        {
          "internalType": "uint256",
          "name": "",
          "type": "uint256"
        }
      ],
      "stateMutability": "view",
      "type": "function"
    },
    {
      "inputs": [
        {
          "internalType": "uint64",
          "name": "input",
          "type": "uint64"
        }
      ],
      "name": "_reverseBytes",
      "outputs": [
        {
          "internalType": "uint64",
          "name": "",
          "type": "uint64"
        }
      ],
      "stateMutability": "pure",
      "type": "function"
    },
    {
      "inputs": [],
      "name": "batch_settle",
      "outputs": [],
      "stateMutability": "nonpayable",
      "type": "function"
    },
    {
      "inputs": [],
      "name": "batch_submit_submission",
      "outputs": [],
      "stateMutability": "nonpayable",
      "type": "function"
    },
    {
      "inputs": [
        {
          "internalType": "uint256",
          "name": "gameId",
          "type": "uint256"
        },
        {
          "internalType": "uint256",
          "name": "submissionIndex",
          "type": "uint256"
        },
        {
          "internalType": "uint256",
          "name": "segmentIndex",
          "type": "uint256"
        },
        {
          "internalType": "uint256[]",
          "name": "proof",
          "type": "uint256[]"
        },
        {
          "internalType": "uint256[]",
          "name": "verify_instance",
          "type": "uint256[]"
        },
        {
          "internalType": "uint256[]",
          "name": "aux",
          "type": "uint256[]"
        },
        {
          "internalType": "uint256[][]",
          "name": "instances",
          "type": "uint256[][]"
        }
      ],
      "name": "challenge_idle_challenger",
      "outputs": [],
      "stateMutability": "nonpayable",
      "type": "function"
    },
    {
      "inputs": [
        {
          "internalType": "uint256",
          "name": "gameId",
          "type": "uint256"
        },
        {
          "internalType": "uint256",
          "name": "submissionIndex",
          "type": "uint256"
        },
        {
          "internalType": "uint256",
          "name": "segmentIndex",
          "type": "uint256"
        },
        {
          "internalType": "uint256[]",
          "name": "proof",
          "type": "uint256[]"
        },
        {
          "internalType": "uint256[]",
          "name": "verify_instance",
          "type": "uint256[]"
        },
        {
          "internalType": "uint256[]",
          "name": "aux",
          "type": "uint256[]"
        },
        {
          "internalType": "uint256[][]",
          "name": "instances",
          "type": "uint256[][]"
        }
      ],
      "name": "challenge_operator",
      "outputs": [],
      "stateMutability": "nonpayable",
      "type": "function"
    },
    {
      "inputs": [
        {
          "internalType": "uint64[4]",
          "name": "a",
          "type": "uint64[4]"
        },
        {
          "internalType": "uint64[4]",
          "name": "b",
          "type": "uint64[4]"
        }
      ],
      "name": "equalUintArrays",
      "outputs": [
        {
          "internalType": "bool",
          "name": "",
          "type": "bool"
        }
      ],
      "stateMutability": "pure",
      "type": "function"
    },
    {
      "inputs": [],
      "name": "getStakingContract",
      "outputs": [
        {
          "internalType": "address",
          "name": "",
          "type": "address"
        }
      ],
      "stateMutability": "view",
      "type": "function"
    },
    {
      "inputs": [],
      "name": "getStorageContract",
      "outputs": [
        {
          "internalType": "address",
          "name": "",
          "type": "address"
        }
      ],
      "stateMutability": "view",
      "type": "function"
    },
    {
      "inputs": [
        {
          "internalType": "uint256",
          "name": "submissionIndex",
          "type": "uint256"
        }
      ],
      "name": "getSubmission",
      "outputs": [
        {
          "internalType": "uint256",
          "name": "gameId",
          "type": "uint256"
        },
        {
          "internalType": "uint256",
          "name": "blockNumber",
          "type": "uint256"
        },
        {
          "internalType": "address",
          "name": "playerAddress",
          "type": "address"
        },
        {
          "internalType": "address",
          "name": "operatorAddress",
          "type": "address"
        },
        {
          "internalType": "enum SpinOPZKGameContract.SubmissionStatus",
          "name": "status",
          "type": "uint8"
        },
        {
          "internalType": "bytes32[]",
          "name": "segmentInitialStateHashes",
          "type": "bytes32[]"
        }
      ],
      "stateMutability": "view",
      "type": "function"
    },
    {
      "inputs": [
        {
          "internalType": "address",
          "name": "player",
          "type": "address"
        }
      ],
      "name": "getSubmissionNonce",
      "outputs": [
        {
          "internalType": "uint256",
          "name": "",
          "type": "uint256"
        }
      ],
      "stateMutability": "view",
      "type": "function"
    },
    {
      "inputs": [],
      "name": "getVerifierContract",
      "outputs": [
        {
          "internalType": "address",
          "name": "",
          "type": "address"
        }
      ],
      "stateMutability": "view",
      "type": "function"
    },
    {
      "inputs": [
        {
          "internalType": "bytes32",
          "name": "data",
          "type": "bytes32"
        }
      ],
      "name": "hashBytes32ToUint64Array",
      "outputs": [
        {
          "internalType": "uint64[4]",
          "name": "",
          "type": "uint64[4]"
        }
      ],
      "stateMutability": "pure",
      "type": "function"
    },
    {
      "inputs": [],
      "name": "nextSettleIndex",
      "outputs": [
        {
          "internalType": "uint256",
          "name": "",
          "type": "uint256"
        }
      ],
      "stateMutability": "view",
      "type": "function"
    },
    {
      "inputs": [],
      "name": "nextSubmissionIndex",
      "outputs": [
        {
          "internalType": "uint256",
          "name": "",
          "type": "uint256"
        }
      ],
      "stateMutability": "view",
      "type": "function"
    },
    {
      "inputs": [],
      "name": "owner",
      "outputs": [
        {
          "internalType": "address",
          "name": "",
          "type": "address"
        }
      ],
      "stateMutability": "view",
      "type": "function"
    },
    {
      "inputs": [
        {
          "internalType": "uint256[3]",
          "name": "addressParts",
          "type": "uint256[3]"
        }
      ],
      "name": "parseAddress",
      "outputs": [
        {
          "internalType": "address",
          "name": "",
          "type": "address"
        }
      ],
      "stateMutability": "pure",
      "type": "function"
    },
    {
      "inputs": [
        {
          "internalType": "uint256[][]",
          "name": "instances",
          "type": "uint256[][]"
        }
      ],
      "name": "parseProofInstances",
      "outputs": [
        {
          "internalType": "uint64[4]",
          "name": "metaDataHash",
          "type": "uint64[4]"
        },
        {
          "internalType": "uint64[4]",
          "name": "endGameStateHash",
          "type": "uint64[4]"
        }
      ],
      "stateMutability": "pure",
      "type": "function"
    },
    {
      "inputs": [
        {
          "internalType": "address",
          "name": "",
          "type": "address"
        }
      ],
      "name": "playerSubmissionNonce",
      "outputs": [
        {
          "internalType": "uint256",
          "name": "",
          "type": "uint256"
        }
      ],
      "stateMutability": "view",
      "type": "function"
    },
    {
      "inputs": [
        {
          "internalType": "bytes32",
          "name": "hash",
          "type": "bytes32"
        },
        {
          "components": [
            {
              "internalType": "bytes32",
              "name": "r",
              "type": "bytes32"
            },
            {
              "internalType": "bytes32",
              "name": "yParityAndS",
              "type": "bytes32"
            }
          ],
          "internalType": "struct SpinOPZKGameContract.SignatureCompact",
          "name": "sig",
          "type": "tuple"
        }
      ],
      "name": "recoverHashFromCompact",
      "outputs": [
        {
          "internalType": "address",
          "name": "",
          "type": "address"
        }
      ],
      "stateMutability": "pure",
      "type": "function"
    },
    {
      "inputs": [
        {
          "internalType": "address",
          "name": "new_owner",
          "type": "address"
        }
      ],
      "name": "setOwner",
      "outputs": [],
      "stateMutability": "nonpayable",
      "type": "function"
    },
    {
      "inputs": [
        {
          "internalType": "address",
          "name": "verifier_address",
          "type": "address"
        }
      ],
      "name": "setVerifier",
      "outputs": [],
      "stateMutability": "nonpayable",
      "type": "function"
    },
    {
      "inputs": [
        {
          "internalType": "uint256[3]",
          "name": "commitments",
          "type": "uint256[3]"
        }
      ],
      "name": "setVerifierImageCommitments",
      "outputs": [],
      "stateMutability": "nonpayable",
      "type": "function"
    },
    {
      "inputs": [
        {
          "internalType": "uint256",
          "name": "gameId",
          "type": "uint256"
        },
        {
          "internalType": "uint256",
          "name": "submissionIndex",
          "type": "uint256"
        },
        {
          "internalType": "bytes",
          "name": "finalState",
          "type": "bytes"
        }
      ],
      "name": "settle",
      "outputs": [],
      "stateMutability": "nonpayable",
      "type": "function"
    },
    {
      "inputs": [],
      "name": "stakingContract",
      "outputs": [
        {
          "internalType": "contract StakingContract",
          "name": "",
          "type": "address"
        }
      ],
      "stateMutability": "view",
      "type": "function"
    },
    {
      "inputs": [],
      "name": "storageContract",
      "outputs": [
        {
          "internalType": "contract GameStateStorage",
          "name": "",
          "type": "address"
        }
      ],
      "stateMutability": "view",
      "type": "function"
    },
    {
      "inputs": [
        {
          "internalType": "uint256",
          "name": "game_id",
          "type": "uint256"
        },
        {
          "internalType": "uint256",
          "name": "submission_nonce",
          "type": "uint256"
        },
        {
          "components": [
            {
              "internalType": "bytes32",
              "name": "r",
              "type": "bytes32"
            },
            {
              "internalType": "bytes32",
              "name": "yParityAndS",
              "type": "bytes32"
            }
          ],
          "internalType": "struct SpinOPZKGameContract.SignatureCompact",
          "name": "player_signature",
          "type": "tuple"
        },
        {
          "internalType": "bytes32[]",
          "name": "segmentInitialStateHashes",
          "type": "bytes32[]"
        },
        {
          "internalType": "bytes32[]",
          "name": "segmentPlayerInputsHashes",
          "type": "bytes32[]"
        }
      ],
      "name": "submit_submission",
      "outputs": [],
      "stateMutability": "nonpayable",
      "type": "function"
    },
    {
      "inputs": [],
      "name": "verifier",
      "outputs": [
        {
          "internalType": "contract IZKVerifier",
          "name": "",
          "type": "address"
        }
      ],
      "stateMutability": "view",
      "type": "function"
    },
    {
      "inputs": [
        {
          "internalType": "uint256",
          "name": "",
          "type": "uint256"
        }
      ],
      "name": "zk_image_commitments",
      "outputs": [
        {
          "internalType": "uint256",
          "name": "",
          "type": "uint256"
        }
      ],
      "stateMutability": "view",
      "type": "function"
    }
  ],
  "bytecode": "0x6080346200018057601f6200384c38819003918201601f19168301926001600160401b03929091838511838610176200016a5781602092849260409788528339810103126200018057516001600160a01b0380821691829003620001805760018060a01b0319913383600254161760025582600154161760015583516104509384820194828610828711176200016a57620033fc928184823980600097039087f080156200014c57841685875416178655865161140280820190828210858311176200015657602091839162001ffa833930815203019087f080156200014c57841685600654161760065586519281840192848410908411176200013857908392918339039084f080156200012e57169082541617905560016009556001600a5551611e749081620001868239f35b84513d85823e3d90fd5b634e487b7160e01b87526041600452602487fd5b87513d88823e3d90fd5b634e487b7160e01b89526041600452602489fd5b634e487b7160e01b600052604160045260246000fd5b600080fdfe608080604052600436101561001357600080fd5b600090813560e01c90816311ce026714611415575080631255aa5a14610ef457806313af4035146113cc57806315a76bb41461127857806323c19ebf146111b65780632b7ac3f3146108285780632bdd45b91461117c57806337e87d57146111505780633e8686cc146110595780634a00ac6914610ffd57806350a2aaa914610fdf5780635437988d14610f91578063560bfc7e14610f4d578063667987921461070c5780636800ad1514610f315780636e77927114610ef4578063717e966f14610a1f5780637189997e146109675780638427fe8e146108ab5780638c1336ec1461087a5780638da5cb5b146108515780638e68dce4146101a7578063a74a043414610828578063b1f3c34914610711578063b49dac2c1461070c578063e0ee836b146101d0578063ee99205c146101a7578063f0342125146101805763fd9ce9a61461016057600080fd5b3461017d578060031936011261017d576020600954604051908152f35b80fd5b503461017d578060031936011261017d57546040516001600160a01b039091168152602090f35b503461017d578060031936011261017d576006546040516001600160a01b039091168152602090f35b503461017d57606036600319011261017d576001600160401b036044351161017d5736602360443501121561017d576001600160401b03604435600401351161017d573660246044356004013560443501011161017d57610237600954602435111561160e565b602435600a54036106b05760243581526007602052604081209060038201549160ff8360a01c16600481101561069c576002811461065757600182015490811561061657600103610295575b8261028f600a5461193d565b600a5580f35b606481018091116106025743106105b3576004810180541561059d576000908152602090205482546002830154604051634fe8446f60e01b81526001600160a01b039182166004820152959291859187916024918391165afa9485156105925784956104d5575b50602084610318819783604051928284809451938492016118c4565b8101039060025afa15610487578351036104975750815460028201546001600160a01b039182169116813b15610492578390604051928391631535530f60e01b835260406004840152604435600401356044840152604435600401356024604435016064850137836064604435600401358501015260248301528183606482601f19601f60443560040135011681010301925af1908115610487578391610470575b505060038101805460ff60a01b1916600160a11b1790556024357f67f9b6da05d35c16622d2e4741ef3dea2b527d384310142c1695c305906e569e8380a25b6006546003909101546001600160a01b039182169116813b1561046c57829160448392604051948593849263fc66db6960e01b84526001600485015260248401525af180156104615761044d575b80610283565b6104569061154e565b61017d578038610447565b6040513d84823e3d90fd5b5050fd5b6104799061154e565b6104845781386103ba565b50fd5b6040513d85823e3d90fd5b505050fd5b60ff60a01b1916600360a01b1760038201556024357f4f13636edcd4cbb9552e5d208fab3cff0feadf50b18a6e17226fca096cb25ad18380a26103f9565b3d95508585823e6104e68682611597565b602081878101031261058e578051906001600160401b03821161058a57868101601f83830101121561058a5781810151906001600160401b0382116105765786976040519061053f6020601f19601f8701160183611597565b838252820160208486850101011161057257610569889361031893602080978186019201016118c4565b975050506102fc565b8780fd5b634e487b7160e01b87526041600452602487fd5b8580fd5b8480fd5b6040513d86823e3d90fd5b634e487b7160e01b600052603260045260246000fd5b60405162461bcd60e51b815260206004820152602160248201527f4368616c6c656e67696e672077696e646f7720686173206e6f742070617373656044820152601960fa1b6064820152608490fd5b634e487b7160e01b83526011600452602483fd5b60405162461bcd60e51b815260206004820152601960248201527814dd589b5a5cdcda5bdb88191bd95cc81b9bdd08195e1a5cdd603a1b6044820152606490fd5b60405162461bcd60e51b815260206004820152601a60248201527f5375626d697373696f6e20616c726561647920736574746c65640000000000006044820152606490fd5b634e487b7160e01b83526021600452602483fd5b60405162461bcd60e51b815260206004820152602e60248201527f5375626d697373696f6e20616c726561647920736574746c65642c20496e646560448201526d3c1037baba1037b31037b93232b960911b6064820152608490fd5b61153b565b503461017d5761072036611469565b96989799509461073a60099592959493945489111561160e565b878b526007602052600160408c2001549860648a01808b11610814574311156107be578b9a610768996119b2565b6006546001600160a01b031690813b1561046c5782916044839260405194859384926330f1fa1f60e21b845233600485015260248401525af18015610461576107ae5750f35b6107b79061154e565b61017d5780f35b60405162461bcd60e51b815260206004820152602860248201527f4e6f726d616c206368616c6c656e67696e672077696e646f7720686173206e6f6044820152671d081c185cdcd95960c21b6064820152608490fd5b634e487b7160e01b8d52601160045260248dfd5b503461017d578060031936011261017d576001546040516001600160a01b039091168152602090f35b503461017d578060031936011261017d576002546040516001600160a01b039091168152602090f35b503461017d57602036600319011261017d5760043560038110156108a75760209060030154604051908152f35b5080fd5b503461017d57606036600319011261017d57366023121561017d576040516108d281611561565b60648136821161096357602093506004905b828210610954575050506001600160401b0363ffffffff61092461090a8385511661165a565b92604061091b82888801511661165a565b9501511661165a565b916bffffffffffffffff0000000060405194861b16906001600160401b0360601b9060601b161791841c16178152f35b813581529084019084016108e4565b8380fd5b503461017d5761010036600319011261017d573660231215610a025760405161098f8161157c565b608481368211610a02576004905b828210610a0757833660a31215610a0257604051906109bb8261157c565b8161010491368311610a02576020936084905b8482106109eb5750506109e1925061194c565b6040519015158152f35b8580916109f7846114f6565b8152019101906109ce565b600080fd5b60208091610a14846114f6565b81520191019061099d565b503461017d5760c036600319011261017d57604036604319011261017d576084356001600160401b0381116108a757610a5c903690600401611439565b9060a4356001600160401b03811161096357610a7c903690600401611439565b9290602085610ae6604051838101906004358252602435604082015260806060820152610ad5610ab060a08301898b6118a0565b82610ac9601f1992838382030160808401528d8b6118a0565b03908101835282611597565b6040519283928392519283916118c4565b8101039060025afa1561059257845160405160208101917f19457468657265756d205369676e6564204d6573736167653a0a3332000000008352603c820152603c8152610b3281611561565b5190206064358060ff1c601b0160ff8111610ede5760209260009260ff6080936040519384521685830152604435604083015260018060ff1b0316606082015282805260015afa15610ed2576000516001600160a01b0316808652600860205260408620549094906024359003610e92576001602435018060243511610e7e578587526008602052604087205560095493604051938460e08101106001600160401b0360e087011117610e685760e0850160405260043585526020850193438552610c276040870191898352610c18606089019533875260808a01958d875236916118e7565b9560a0890196875236916118e7565b60c08701528689526007602052604089208651815594516001860155516002850180546001600160a01b0319166001600160a01b0392831617905591516003850180549251909391909116906004811015610e54576001600160a81b03199092161760a09190911b60ff60a01b16179055518051906001600160401b03821161057657600160401b8211610576576004830154826004850155808310610e29575b5060200160048301875260208720875b838110610e155750505050600560c09101910151908151916001600160401b038311610e0157600160401b8311610e01578154838355808410610dda575b5060200190855260208520855b838110610dc65750505050610d3960095461193d565b60095560065483906001600160a01b0316803b156108a7578180916044604051809481936308fe53e760e21b8352600160048401523360248401525af1801561046157610dae575b5050602435907fb4369ae4c165e1165289efdf37dcee8df18857e3379869e35d225ed65bb514058480a480f35b610db79061154e565b610dc2578238610d81565b8280fd5b600190602084519401938184015501610d23565b828752836020882091820191015b818110610df55750610d16565b60008155600101610de8565b634e487b7160e01b86526041600452602486fd5b600190602084519401938184015501610cd8565b60048401885260208820908382015b8183018110610e48575050610cc8565b60008155600101610e38565b634e487b7160e01b8a52602160045260248afd5b634e487b7160e01b600052604160045260246000fd5b634e487b7160e01b87526011600452602487fd5b60405162461bcd60e51b8152602060048201526018602482015277496e76616c6964207375626d697373696f6e206e6f6e636560401b6044820152606490fd5b6040513d6000823e3d90fd5b634e487b7160e01b600052601160045260246000fd5b503461017d57602036600319011261017d576004356001600160a01b038116908190036108a7578160409160209352600883522054604051908152f35b503461017d578060031936011261017d57602060405160648152f35b503461017d57606036600319011261017d573660641161017d57610f7c60018060a01b036002541633146115b8565b60043560035560243560045560443560055580f35b503461017d57602036600319011261017d576004356001600160a01b0381811691829003610dc257610fc8906002541633146115b8565b600180546001600160a01b03191691909117905580f35b503461017d578060031936011261017d576020600a54604051908152f35b503461017d57602036600319011261017d57600435906001600160401b03821161017d5761010061105761103d6110373660048701611439565b90611787565b61104d604093929351809461150a565b608083019061150a565bf35b503461017d576020908160031936011261017d5760043581526007825260408120805460019360018301549360018060a01b03938460028201541690600381015495600460ff8860a01c16920196604051938a858096898c54918281520190819c8a528a8a20938a5b8c83821061113a57505050506110da92500386611597565b6040519960c08b01988b52878b015260408a0152166060880152600481101561069c57928694918894608087015260c060a08701525180925260e0850195925b8281106111275785870386f35b835187529581019592810192840161111a565b86548552958201958b95509093019281016110c2565b503461017d57602036600319011261017d57608061116f6004356116bb565b611057604051809261150a565b503461017d57602036600319011261017d576004356001600160401b038082168203610a02576111ad60209261165a565b60405191168152f35b503461017d57606036600319011261017d57604036602319011261017d5760405160208101907f19457468657265756d205369676e6564204d6573736167653a0a3332000000008252600435603c820152603c815261121481611561565b5190206044358060ff1c601b0160ff8111610ede5760209260009260ff6080936040519384521685830152602435604083015260018060ff1b0316606082015282805260015afa15610ed2576000516040516001600160a01b039091168152602090f35b503461017d5761128736611469565b9697989a9950946112a26009959295949394548c111561160e565b8a8a52600760205260408a20976001890154606481018091116113b85743101561137357600398909801805460ff60a01b198116600160a01b17909155986112eb98908c6119b2565b6006546001600160a01b0390811691823b1561096357906064849283604051958694859363577061c960e11b8552600160048601523360248601521660448401525af1801561046157611364575b509033907feaa488150dd59807afe629755b02de91b8f4fd621b0118f80a3da9a7b8704baf8380a380f35b61136d9061154e565b38611339565b60405162461bcd60e51b815260206004820152601d60248201527f4368616c6c656e67696e672077696e646f7720686173207061737365640000006044820152606490fd5b634e487b7160e01b8c52601160045260248cfd5b503461017d57602036600319011261017d576004356001600160a01b0381811691829003610dc25761140460025491821633146115b8565b6001600160a01b0319161760025580f35b9050346108a757816003193601126108a75790546001600160a01b03168152602090f35b9181601f84011215610a02578235916001600160401b038311610a02576020808501948460051b010111610a0257565b9060e0600319830112610a02576004359160243591604435916001600160401b0390606435828111610a0257816114a291600401611439565b93909392608435818111610a0257836114bd91600401611439565b9390939260a435838111610a0257826114d891600401611439565b9390939260c435918211610a02576114f291600401611439565b9091565b35906001600160401b0382168203610a0257565b6000915b6004831061151b57505050565b6001906001600160401b038351168152602080910192019201919061150e565b34610a02576000366003190112610a0257005b6001600160401b038111610e6857604052565b606081019081106001600160401b03821117610e6857604052565b608081019081106001600160401b03821117610e6857604052565b90601f801991011681019081106001600160401b03821117610e6857604052565b156115bf57565b60405162461bcd60e51b815260206004820152602160248201527f4f6e6c79206f776e65722063616e2063616c6c20746869732066756e6374696f6044820152603760f91b6064820152608490fd5b1561161557565b60405162461bcd60e51b815260206004820152601e60248201527f5375626d697373696f6e20696e646578206f7574206f6620626f756e647300006044820152606490fd5b600091825b6008808510156116a3576001600160fd1b0385168503610ede5767ffffffffffffff0060019260ff6001600160401b0387168860031b1c16921b161793019261165f565b5092509050565b90600481101561059d5760051b0190565b90604060806040516116cc8161157c565b369037604051906116dc8261157c565b608036833760005b600480821015611742578160061b9082820484148315171561172d5760c091820391821161172d5750906001600160401b03866001931c1661172682866116aa565b52016116e4565b601190634e487b7160e01b6000525260246000fd5b509193505050565b901561059d57803590601e1981360301821215610a025701908135916001600160401b038311610a02576020018260051b36038113610a02579190565b91604051926117958461157c565b608036853783604051916117a88361157c565b608036843782946117b9818361174a565b9390931561059d576001600160401b038094351681526117d9828461174a565b6001101561059d576020859101351660208201526117f7828461174a565b6002101561059d57604085910135166040820152611815828461174a565b6003101561059d578460608092013516910152611832818361174a565b6004101561059d57608001358316845261184c818361174a565b6005101561059d5760a0013583166020850152611869818361174a565b6006939193101561059d578360c061188894013516604086015261174a565b6007929192101561059d5760e0606092013516910152565b81835290916001600160fb1b038311610a025760209260051b809284830137010190565b60005b8381106118d75750506000910152565b81810151838201526020016118c7565b9092916001600160401b038411610e68578360051b602092602060405161191082850182611597565b8097815201918101928311610a0257905b82821061192e5750505050565b81358152908301908301611921565b6000198114610ede5760010190565b9060009060005b600481106119645750505050600190565b6001600160401b038061197783876116aa565b51169061198483856116aa565b51160361199357600101611953565b5050905090565b805482101561059d5760005260206000200190600090565b9894989796919795929395600052600760205260406000206119d48689611787565b60048394929401906001830190818411610ede57611a046119f8611a0a938561199a565b90549060031b1c6116bb565b9061194c565b611ddb576119f8611a216119f884611a2b9461199a565b926005850161199a565b9154906080604051611a3c8161157c565b3690376001600160401b03815116926001600160401b03602083015116916001600160401b03606081604084015116920151166001600160401b03835116906001600160401b03602085015116926001600160401b0360608160408801511696015116956040519860208a0198895260408a01526060890152608088015260a087015260c086015260e085015261010084015261012090818401528252816101408101106001600160401b0361014084011117610e685781610140816000938260209601604052611b1382518092858501906118c4565b810103910160025afa15610ed257611b3590611b306000516116bb565b61194c565b15611d7a5760035480611c66575b506001546001600160a01b031696873b15610a025760405163ae022ccd60e01b8152608060048201529889979594611baf949392611b9f9291611b8b9160848c0191906118a0565b9060031998898b84030160248c01526118a0565b91868884030160448901526118a0565b92848403016064850152808352602083019060208160051b85010193836000915b838310611bff5750505050505091818060009403915afa8015610ed257611bf45750565b611bfd9061154e565b565b9193959092949650601f198282030186528635601e1984360301811215610a0257830190602082359201916001600160401b038111610a02578060051b36038313610a0257611c5460209283926001956118a0565b98019601930190918896959492611bd0565b886001101561059d57602086013503611d3557876002101561059d57600454604086013503611cf057876003101561059d57600554606086013503611cab5738611b43565b60405162461bcd60e51b815260206004820152601a60248201527f496e76616c696420696d61676520636f6d6d69746d656e7420320000000000006044820152606490fd5b60405162461bcd60e51b815260206004820152601a60248201527f496e76616c696420696d61676520636f6d6d69746d656e7420310000000000006044820152606490fd5b60405162461bcd60e51b815260206004820152601a60248201527f496e76616c696420696d61676520636f6d6d69746d656e7420300000000000006044820152606490fd5b60405162461bcd60e51b815260206004820152603360248201527f537461727420737461746520646f6573206e6f74206d61746368207375626d696044820152727373696f6e2c206e6f206368616c6c656e676560681b6064820152608490fd5b60405162461bcd60e51b815260206004820152603560248201527f4f75747075742066726f6d2070726f6f6620646f6573206d61746368207375626044820152746d697373696f6e2c206e6f206368616c6c656e676560581b6064820152608490fdfea264697066735822122005237e2f69e7a94bcfe862b2f8e928e09768c4626d1253ab45da958f56753ba264736f6c6343000818003360803461007457601f61140238819003918201601f19168301916001600160401b038311848410176100795780849260209460405283398101031261007457516001600160a01b0381169081900361007457600080546001600160a01b03191691909117905560405161137290816100908239f35b600080fd5b634e487b7160e01b600052604160045260246000fdfe6040608081526004908136101561001557600080fd5b600091823560e01c90816301e280051461105757816306686b4a1461101f5781630c4d110d14610fd6578163238c0cda14610b3c57816323f94f9c14610f255781632ce569f214610d265781632ffac69e14610f0857816338b2471e14610d26578163424aa23014610ed25781634670998814610ec357816346d2d68f14610e9d5781634ef1a2c814610e805781634f1242ac14610b3c578163623d6a5f14610df757816373de880614610dda57816374365f7f14610dc6578163759ffb7b14610d2b57816382fbf80d14610d265781638e8e082e14610cfb5781639045bf1814610b3c578163aee0c39214610b41578163b2c7b1c314610b3c578163b39bcf3f14610b04578163b57fdcb5146107c9578163c3c7e87c14610598578163cbed6c9f14610362578163cc65653714610335578163d38589bb146102e3578163d3f33009146102bb578163d42b73951461029f578163f738978914610267578163fc66db69146101e2575063fea245c81461018e57600080fd5b816003193601126101de5733825260016020528082206101af3482546111c5565b9055513481527fe967d7e6b0193751e3222ac2bc8e7c61bc0c99a7deb97c78b2304799221c0d9960203392a280f35b5080fd5b90503461026357816003193601126102635760207fa073359ad4bc40c094d3e6c4a846502f3a281056368c29b8442972c4ad1d6987913561022161108f565b85546001600160a01b03919061023a9083163314611136565b16938486526002835261025082828820546111e8565b858752600284528187205551908152a280f35b8280fd5b5050346101de5760203660031901126101de5760209181906001600160a01b0361028f611079565b1681526002845220549051908152f35b5050346101de57816003193601126101de5760209051600a8152f35b5050346101de57816003193601126101de57905490516001600160a01b039091168152602090f35b5050816003193601126101de5733825260036020528082206103063482546111c5565b9055513481527f13d94c4c4e9a7306e1d75f4d1b544bbf746ce406d62bed04b4a6e018a79c8a5c60203392a280f35b5050346101de5760203660031901126101de5760209061035b610356611079565b6112ff565b9051908152f35b90503461026357816003193601126102635767ffffffffffffffff918135838111610594576103949036908401611105565b9290602494602435908111610590576103b09036908401611105565b929095875b86811061042657505091610410610420927f61477f9d307a0043d5e24cb59df826ea63bc741dafba391b277a9067a1da3cc8969594338a526020528489206103fe8782546111e8565b905584519585879687528601916112db565b90838203602085015233966112db565b0390a280f35b6104318188866112cb565b356064908181019081811161057e5761044c0180911161056c574311156105165761045d8289876112cb565b358a52896005916104828b61047b868b8d60209789895220936112cb565b35906110bb565b90543360039290921b1c6001600160a01b0316036104e257506104c78a61047b858a8f8d908f986104dc986104bc8f9c809c60019e6112cb565b3583525220936112cb565b81549060018060a01b039060031b1b19169055565b016103b5565b885162461bcd60e51b81528087018390526012818701527124b73b30b634b21031b430b63632b733b2b960711b6044820152fd5b836b081a5b881d1a19481c185cdd60a21b608492602c8660208c519562461bcd60e51b87528601528401527f496e76616c696420626c6f636b2077696e646f772c206e65656420746f2062656044840152820152fd5b634e487b7160e01b8b5260118552838bfd5b634e487b7160e01b8c5260118652848cfd5b8680fd5b8480fd5b839150346101de57826003193601126101de576105b3611079565b91602480359160018060a01b03906105cf828254163314611136565b6105df60649460648106906111e8565b92606484018085116107b75761044c85018091116107b7574310610775579495821694815b84835260056020908082528a852080548410156107715790610628848894936110bb565b939054600394851b1c16928387528b83528c87205415610716576106596103e88e868a528386528920541015611274565b8680808061012c8180f11561070c57868080806102bc8f82f11561070c5783875282528b862080546103e7198101919082116106fa57558286528a82528b862080546000198101919082116106fa578b9360019695938f92937ff9dc5cdc953d34f6526769033d6745919ece6254c7c8eb6876116deb45c1039694558b8a5281526106e96104c787848c206110bb565b858251918c8352820152a301610604565b634e487b7160e01b885260118d528688fd5b8c513d88823e3d90fd5b508b5162461bcd60e51b8152808c018390526030818701527f4368616c6c656e67657220686173206e6f7420636f6d6d697474656420746f2060448201526f616e7920626c6f636b2077696e646f7760801b818b0152608490fd5b8580f35b85601f60649260208b519362461bcd60e51b85528401528201527f4368616c6c656e67652077696e646f7720616c726561647920706173736564006044820152fd5b50634e487b7160e01b82526011865290fd5b8383346101de576107d9366110a5565b606492919294856107ea85846111e8565b06610ab15743841115610a5957838211156109e25785840661097f5761080f336111f5565b61081985846111e8565b90600a820291808304600a149015171561096c5790610839911015611182565b83855260059560209660056020528185882054101561093057855b8481106108bb5750508495965061086d600a95846111e8565b04903387526020526108838387209182546111c5565b9055815193845260208401528201527fa8e733e57775d1eca32d84027a85d4c42f4c9387c801a80ce07c1a503b13804460603392a280f35b868852818952858820805490600160401b82101561091d57906108e3916001820181556110bb565b81546001600160a01b0360039290921b91821b19163390911b1790558083019081101561085457634e487b7160e01b885260118452602488fd5b634e487b7160e01b8a526041865260248afd5b5090602084519162461bcd60e51b8352820152601760248201527610da185b1b195b99d95c881c1bdbdb081a5cc8199d5b1b604a1b6044820152fd5b634e487b7160e01b875260118352602487fd5b608490776d756c7469706c65206f6620626c6f636b2077696e646f7760401b87602086519362461bcd60e51b8552840152603860248401527f496e76616c696420737461727420626c6f636b2c206e65656420746f206265206044840152820152fd5b60a4907f626c6f636b206d7573742062652067726561746572207468616e20737461727487602086519362461bcd60e51b8552840152604660248401527f496e76616c696420626c6f636b2077696e646f772072616e67652c20656e642060448401528201526520626c6f636b60d01b6084820152fd5b6084906c696e207468652066757475726560981b87602086519362461bcd60e51b8552840152602d60248401527f496e76616c696420737461727420626c6f636b2c206e65656420746f206265206044840152820152fd5b608490676d756c7469706c6560c01b87602086519362461bcd60e51b8552840152602860248401527f496e76616c696420626c6f636b2077696e646f772072616e67652c206e6f74206044840152820152fd5b5050346101de5760203660031901126101de5760209181906001600160a01b03610b2c611079565b1681526001845220549051908152f35b6110e9565b8383346101de5760603660031901126101de578235610b5e61108f565b6044356001600160a01b038181169491859003610cf757610b83818754163314611136565b606484029084820460641485151715610ce45785875260209160018352610baf84892054821115611274565b61c35086028181046101f41482151715610cd1578899506103e89004978895818088159b8c610cc7575b82809291818093f115610cbb57831698868a8392610cb1575b8392839283928392f115610ca65792610c4f8593879593610c437f2e4b40321e205f512441db155b5080356c197414d55b00fbf7ef0529200c8fc19a98868d60609c985260018752209182546111e8565b90558b54163314611136565b878a5260028152610c6385848c20546111e8565b888b5260028252838b2055877fa073359ad4bc40c094d3e6c4a846502f3a281056368c29b8442972c4ad1d6987828551888152a28251948552840152820152a380f35b8451903d90823e3d90fd5b6108fc9250610bf2565b508451903d90823e3d90fd5b6108fc9150610bd9565b634e487b7160e01b895260118a52602489fd5b634e487b7160e01b875260118852602487fd5b8580fd5b8334610d235780600319360112610d2357610d2060018060a01b038254163314611136565b80f35b80fd5b611057565b905034610263576020366003190112610263573590610d5482610d4d336111f5565b1015611182565b3383526003602052808320610d6a8382546111e8565b90558280838015610dbc575b8280929181923390f115610db157519081527fedbaf812a554c50088c17404a924a56317bdeeab92b2a4d7bc32493721f6a90460203392a280f35b51913d9150823e3d90fd5b6108fc9150610d76565b8334610d235780600319360112610d235780f35b5050346101de57816003193601126101de57602090516103e88152f35b905034610263576020366003190112610263573590610e1982610d4d336112ff565b3383526001602052808320610e2f8382546111e8565b90558280838015610e76575b8280929181923390f115610db157519081527f7ece0b5879e2c02894ab69f96547e98f6b2726dd6be98c7fd338ec72c85cf03460203392a280f35b6108fc9150610e3b565b5050346101de57816003193601126101de576020905161012c8152f35b5050346101de5760203660031901126101de5760209061035b610ebe611079565b6111f5565b8380600319360112610d235780f35b9050346102635760203660031901126102635760209282916001600160a01b03610efa611079565b168252845220549051908152f35b5050346101de57816003193601126101de57602090516102bc8152f35b905034610263578160031936011261026357803590610f4261108f565b84546001600160a01b039290610f5b9084163314611136565b606484029084820460641485151715610fc357509181610fa2602094610d4d7f208d2f04c8fbda7bae9dd6d8f88ff4fc0e5db7dc80f79de7adfd310210239de497956112ff565b169384865260028352808620610fb98382546111c5565b905551908152a280f35b634e487b7160e01b875260119052602486fd5b5050346101de57610fe6366110a5565b929081526005602052818120908154841015610d235750602092611009916110bb565b905491519160018060a01b039160031b1c168152f35b5050346101de5760203660031901126101de5760209181906001600160a01b03611047611079565b1681526003845220549051908152f35b346110745760003660031901126110745760206040516101f48152f35b600080fd5b600435906001600160a01b038216820361107457565b602435906001600160a01b038216820361107457565b6040906003190112611074576004359060243590565b80548210156110d35760005260206000200190600090565b634e487b7160e01b600052603260045260246000fd5b3461107457600036600319011261107457602060405160648152f35b9181601f840112156110745782359167ffffffffffffffff8311611074576020808501948460051b01011161107457565b1561113d57565b60405162461bcd60e51b815260206004820152601f60248201527f43616c6c6572206973206e6f74207468652067616d6520636f6e7472616374006044820152606490fd5b1561118957565b60405162461bcd60e51b8152602060048201526014602482015273496e73756666696369656e742062616c616e636560601b6044820152606490fd5b919082018092116111d257565b634e487b7160e01b600052601160045260246000fd5b919082039182116111d257565b9060009160018060a01b03168252600360205260408220546004602052604083205490606482029180830460641481151715611260576103e80291808304600a149015171561124c576112499293506111e8565b90565b634e487b7160e01b84526011600452602484fd5b634e487b7160e01b85526011600452602485fd5b1561127b57565b60405162461bcd60e51b815260206004820152602260248201527f496e73756666696369656e742062616c616e636520746f20626520736c617368604482015261195960f21b6064820152608490fd5b91908110156110d35760051b0190565b81835290916001600160fb1b0383116110745760209260051b809284830137010190565b60018060a01b0316600052600160205260406000205460026020526040600020546064810290808204606414901517156111d257611249916111e856fea264697066735822122013059b85a32d318cb02a77578f4371530a005bf3415a2b444798194042c6544764736f6c634300081800336080806040523461002857600080546001600160a01b03191633179055610422908161002e8239f35b600080fdfe604060808152600436101561001357600080fd5b600090813560e01c806302a223371461025b5780631535530f1461008c57634fe8446f1461004057600080fd5b3461008857602036600319011261008857610084916100799082906001600160a01b0361006b610283565b1681526001602052206102d8565b9051918291826103a3565b0390f35b5080fd5b50346100885780600319360112610088576004359067ffffffffffffffff8083116102575736602384011215610257578260040135908111610257576024368183860101116102535780356001600160a01b038181169182900361024f57865416330361020057855260019260209084825286209461010b865461029e565b601f81116101ba575b508691601f851160011461015257509183949184938895610145575b5050501b916000199060031b1c191617905580f35b0101359250388080610130565b92909184601f198116888a52858a20958a905b8983831061019e5750505010610182575b50505050811b01905580f35b60001960f88660031b161c199201013516905538808080610176565b8786018701358955909701969384019388935090810190610165565b868852828820601f860160051c8101918487106101f6575b601f0160051c019086905b8281106101eb575050610114565b8981550186906101dd565b90915081906101d2565b835162461bcd60e51b8152602060048201526023818401527f4f6e6c792063726561746f722063616e2063616c6c20746869732066756e637460448201526234b7b760e91b6064820152608490fd5b8680fd5b8480fd5b8380fd5b503461008857602036600319011261008857610084916100799082906001600160a01b0361006b5b600435906001600160a01b038216820361029957565b600080fd5b90600182811c921680156102ce575b60208310146102b857565b634e487b7160e01b600052602260045260246000fd5b91607f16916102ad565b906040519160009080546102eb8161029e565b908186526020926001916001811690816000146103855750600114610349575b50505050829003601f01601f1916820167ffffffffffffffff81118382101761033357604052565b634e487b7160e01b600052604160045260246000fd5b909293506000528260002091836000935b83851061037157505050508301013880808061030b565b80548886018301529301928490820161035a565b60ff191688860152505050151560051b84010190503880808061030b565b6020808252825181830181905290939260005b8281106103d857505060409293506000838284010152601f8019910116010190565b8181018601518482016040015285016103b656fea26469706673582212206f8cc2f94c5c5799d70b35845c8e40eaaa76274dfb2a5d8acf6c0549e80b8c3464736f6c63430008180033",
  "linkReferences": {},
  "deployedLinkReferences": {}
}